:020000040800F2
:10000000380A0020CD0000080916000899120008DF
:1000100000000000000000000000000000000000E0
:10002000000000000000000000000000931700081E
:1000300000000000000000000D16000895170008E1
:10004000DF00000800000000DF000008DF000008FB
:10005000DF000008DF000008DF000008DF00000804
:1000600000000000DF000008310200083302000831
:10007000DF000008DF000008DF00000800000000CB
:10008000DF000008DF00000800000000DF000008BB
:10009000DF0000080D1800081D180008DF00000828
:1000A000DF000008DF000008DF000008ED1800088E
:1000B000EF1800080448854600F0A8F800480047FB
:1000C00019230008C046C046380A0020044880476B
:1000D00004480047FEE7FEE7FEE7FEE7FEE7FEE72F
:1000E0000B180008B500000830B50B46014600208B
:1000F0002022012409E00D46D5409D4205D31D462E
:100100009540491B2546954040191546521E002D25
:10011000F1DC30BDF0B51FB40646002082B00546C4
:100120004024019100901BE0019922460F46304681
:1001300000F020F8049A059B801A994110D31046CC
:100140001946224600F052F8361A8F41019722468E
:1001500001200021009F00F049F838184D4100901F
:100160002046641E0028DFDC019B009829463246A9
:1001700007B0F0BD10B5202A04DB0846203AD04075
:10018000002110BD0B46D340D0402024A21A91403C
:100190000843194610BD03460B439B0703D009E0F3
:1001A00008C9121F08C0042AFAD203E00B780370B2
:1001B000401C491C521EF9D27047D2B201E00270B5
:1001C000401C491EFBD270470022F6E710B51346CB
:1001D0000A4604461946FFF7F0FF204610BD421CB0
:1001E0000178401C0029FBD1801A704710B5202AE5
:1001F00004DB0146203A9140002010BD91402023AD
:100200009C1A0346E3401943904010BD064C01255B
:10021000064E05E0E36807CC2B430C3C98471034AE
:10022000B442F7D3FFF74AFF502A0008702A0008AB
:100230007047704772B600BFFEE7000078B503460E
:100240000A460021DFE001268E4014683440002C6D
:100250007ED01579AD07AD0F012D04D01579AD070E
:10026000AD0F022D18D198684E000325B540064603
:10027000AE4330464E00D568B54028439860586874
:1002800001258D400646AE43304610265568354060
:100290002D098D40284358601579AD07AD0F032D0A
:1002A0000BD0D8684E000325B5400646AE43304615
:1002B0004E009568B5402843D8601579AD07AD0F5D
:1002C000022D15D1CD08AE001D462035A8594D0789
:1002D000EE0E0F25B5400646AE4330464E07F60EED
:1002E0001569B5402843CD08AD001E462036705133
:1002F00018684E000325B5400646AE4330461579D2
:10030000AD07AD0F4E00B5402843186003263604F4
:1003100055683540002D75D000BF3E4DAD690126B2
:1003200035433C4EB5613546AD69ED07ED0F00959F
:1003300000BF00BF384D8E08B600A8598D072E0F9C
:100340000F25B5400646AE4330460925ED0600E0D0
:1003500058E0AB4201D100250FE0304DAB4201D156
:1003600001250AE02E4DAB4201D1022505E02D4DBD
:10037000AB4201D1032500E005258E07360FB540BD
:100380002843254D8E08B600A851274DA86805467C
:10039000A54328460126360555683540002D02D074
:1003A000054625432846204DA860E8680546A54334
:1003B00028460126760555683540002D02D00546B1
:1003C00025432846184DE86068680546A543284639
:1003D0000126760455683540002D02D00546254398
:1003E0002846114D686028680546A5432846012621
:1003F000360455683540002D02D005462543284671
:10040000094D2860491C1568CD40002D00D01AE721
:1004100078BD0000001002400800014000040048C0
:1004200000080048000C004800040140024613691F
:100430000B40002B01D0012000E000207047002A73
:1004400001D0816100E081627047000001480068CE
:100450007047000004000020034800680349097841
:100460004018014908607047040000200C0000207B
:1004700010B50648006810210843044908600320AD
:1004800000F006F800F02EF8002010BD0020024019
:1004900070B50446104801787D20C000FFF724FEA7
:1004A000064631460D480068FFF71EFE054600F07F
:1004B000C1FC002801D0012070BD042C07D200220D
:1004C0002146501E00F03CF80548046001E0012080
:1004D000F2E70020F0E700000C00002010000020F0
:1004E0000800002008B500BF0D48806901210843BD
:1004F0000B49886108468069C007C00F009000BFA3
:1005000000BF00BF0846C069090408430449C86128
:100510000846C06909040840009000BF00BF08BD3C
:10052000001002400146002905DBCB06DB0E01224C
:100530009A40024B1A6000BF7047000000E100E0E3
:1005400070B504460D4616462946204601F0A6FA27
:1005500070BD0000F8B504460026002501210904FD
:100560002068084088427AD100274B48C0690903B7
:10057000084000280DD100BF4748C06908434649DC
:10058000C8610846C06909040840009000BF00BF68
:10059000012742480068FF2101310840002816D198
:1005A0003E48006808433D490860FFF74FFF064694
:1005B00006E0FFF74BFF801B642801D90320F8BD3C
:1005C00036480068FF21013108400028F1D0324848
:1005D000006A0321090208400546002D2DD06068FD
:1005E0000840A84229D02C48006A884305462A487A
:1005F000006A012109040843274908620846006A85
:100600000121090488432449086208460562E80775
:10061000C00F002811D0FFF719FF064607E0FFF7CB
:1006200015FF801B1E49884201D90320C7E71A48DD
:10063000006A022108400028F1D01748006A03210F
:10064000090288436168084313490862012F05D1F4
:100650000846C069090488430F49C86100BF207873
:10066000C007C00F002807D00B48006B800880002F
:10067000A168084308490863202120680840202811
:1006800007D10548006B10218843E16808430249FF
:100690000863002093E70000001002400070004053
:1006A0008813000070B504460D46002C01D10120CE
:1006B00070BD52480068C007C00FA8420ED24F4814
:1006C00000684008400028434C490860084600681C
:1006D000C007C00FA84201D00120E9E7022120682D
:1006E0000840022814D1042120680840042807D1BA
:1006F0004348406807210902884340184049486040
:100700003F484068F0218843A16808433C4948605D
:100710002078C007C00F00283BD06068012808D1AE
:1007200037480068012149040840002815D10120FC
:10073000BEE76068022808D13148006801214906F7
:100740000840002809D10120B2E72D4800680221A5
:100750000840002801D10120AAE729484068800804
:1007600080006168084326494860FFF76FFE06462F
:1007700007E0FFF76BFE801B2249884201D9032066
:1007800096E71F4840680C2108406168890088424C
:10079000EFD11A480068C007C00FA8420ED9174809
:1007A0000068400840002843144908600846006873
:1007B000C007C00FA84201D0012079E704212068BA
:1007C0000840042808D10E484068072109028843E0
:1007D000E16808430A49486000F01AF80849496886
:1007E000F02211400909084A515CC84007490860D5
:1007F0000320FFF74DFE00205AE7000000200240D2
:100800000010024088130000D428000810000020C7
:10081000F8B50024002500270026002000901D4880
:1008200044680C20204000282DD0042802D008283D
:1008300028D102E01848009028E00F2080042040D2
:10084000800C16490E5C1348C06A0007000F14495B
:100850000D5C0120000420400121090488420AD1D6
:100860002A4600230C481946FFF754FC314601F094
:10087000EFF8074604E00B48314601F0E9F8074677
:10088000009703E000BF0448009000BF00BF00983D
:10089000F8BD00000010024000127A00B4280008E1
:1008A000C428000800093D00FEB50446002C01D113
:1008B0000120FEBD2078C007C00F002871D0FC4881
:1008C00040680C21084004280BD0F94840680840D3
:1008D000082812D1F64840680121090408408842DE
:1008E0000BD1F348006801214904084000286BD06F
:1008F0006068002868D10120DBE700BF606801283C
:1009000007D1EB480068012109040843E849086061
:1009100031E0606800280ED1E54800680121090433
:100920008843E34908600846006801218904884338
:10093000DF4908601FE0606805280ED1DC480068C8
:10094000012189040843DA4908600846006801214A
:1009500009040843D64908600DE0D5480068012124
:1009600009048843D24908600846006801218904C7
:100970008843CF49086000BF6068002812D0FFF7A5
:1009800065FD054606E0FFF761FD401B642801D9BF
:1009900003208EE7C648006801214904084000286A
:1009A000F1D011E0FFF752FD054606E0FFF74EFDDE
:1009B000401B642801D903207BE7BD480068012162
:1009C000490408400028F1D102212068084002288B
:1009D00061D1B74840680C21084000280BD0B448CA
:1009E0004068084008281BD1B1484068012109042B
:1009F0000840002814D1AE480068022108400028B1
:100A000004D0E068012801D0012052E7A84800681E
:100A1000F82188432169C9000843A54908603AE0E4
:100A2000E068002820D0A248006801210843A049BE
:100A30000860FFF70BFD054606E0FFF707FD401BCA
:100A4000022801D9032034E79948006802210840B0
:100A50000028F2D096480068F82188432169C9002F
:100A600008439349086016E0914800684008400038
:100A70008F490860FFF7EAFC054606E0FFF7E6FC51
:100A8000401B022801D9032013E78948006802218E
:100A900008400028F2D1082120680840082831D1F8
:100AA000E069002817D08248406A01210843804944
:100AB0004862FFF7CBFC054606E0FFF7C7FC401B8A
:100AC000022801D90320F4E67948406A022108404F
:100AD0000028F2D016E07648406A40084000744989
:100AE0004862FFF7B3FC054606E0FFF7AFFC401B8A
:100AF000022801D90320DCE66D48406A0221084043
:100B00000028F2D1042120680840042873D1002075
:100B100001906748C0698906084000280ED100BFCF
:100B20006348C06908436249C8610846C06909044E
:100B30000840009000BF00BF012001905D480068A0
:100B4000FF2101310840002816D15A4800680843A7
:100B500058490860FFF77AFC054606E0FFF776FC87
:100B6000401B642801D90320A3E652480068FF21F6
:100B7000013108400028F1D000BFA068012806D14B
:100B80004B48006A01210843494908622BE0A068EC
:100B900000280CD14648006A4008400044490862D9
:100BA0000846006A04218843414908621BE0A068A6
:100BB00005280CD13E48006A042108433C490862DC
:100BC0000846006A01210843394908620BE03848A9
:100BD000006A40084000364908620846006A04215D
:100BE00088433349086200BFA068002813D0FFF78C
:100BF0002DFC054608E02BE0FFF728FC401B2E49A2
:100C0000884201D9032054E62948006A022108409D
:100C10000028F1D011E0FFF719FC054607E0FFF7C7
:100C200015FC401B2449884201D9032041E6204895
:100C3000006A022108400028F1D10198012806D15C
:100C40001B48C0690121090788431949C86100BFD1
:100C5000102120680840102860D1606901282DD13A
:100C60001348406B04210843114948630846406B10
:100C7000012108430E494863FFF7E8FB054606E0FB
:100C8000FFF7E4FB401B022801D9032011E60848C6
:100C9000406B022108400028F2D00548406BF82143
:100CA0008843A169C90008430149486336E0000050
:100CB0000010024000700040881300006069401D71
:100CC00000280FD15A48406B042188435849486393
:100CD0000846406BF8218843A169C900084354497C
:100CE00048631BE05248406B042108435049486365
:100CF0000846406B400840004863FFF7A7FB0546E5
:100D000006E0FFF7A3FB401B022801D90320D0E532
:100D10004748406B022108400028F2D1206A002891
:100D20004FD0434840680C210840082864D0206A0E
:100D3000022847D13E4800680121090688433C4902
:100D40000860FFF783FB054606E0FFF77FFB401BCB
:100D5000022801D90320ACE5354800680121490685
:100D600008400028F1D100BF3148C06A00090001E5
:100D7000E16A08432E49C862616AA06A08432C49A7
:100D800049683D221204914308432949486000BF45
:100D90000846006801210906084325490860FFF755
:100DA00055FB054606E0FFF751FB401B022801D921
:100DB00003207EE51E4800680121490608400028FE
:100DC000F1D033E01A480068012109068843184928
:100DD0000860FFF73BFB054606E0FFF737FB401BCB
:100DE000022801D9032064E5114800680121490661
:100DF00008400028F1D119E0206A012800D158E507
:100E00000B484668C76A012000043040616A884286
:100E10000AD13907090FE06A814205D10F20800409
:100E20003040A16A884201D0012042E5002040E51F
:100E30000010024070B504462546681E09498842E4
:100E400001D901200CE0681E074948610321081FF1
:100E500000F024FE0020044988610720086100207A
:100E600070BD0000FFFFFF0000E000E0704770472A
:100E700010B50446002C01D1012010BD3D20005DBD
:100E8000002805D100213C200155204600F022F821
:100E900002213D200155211D206800F0CFFC0121D9
:100EA0004620015500BF3E2001553F2001554020FE
:100EB00001554120015500BF00BF4220015543208C
:100EC0000155442001554520015500BF3D200155E5
:100ED0000020D2E738B504461C492068884218D162
:100EE00000BF1B48806901214904084318498861F3
:100EF00008468069012149040840009000BF00BFF6
:100F0000002201211520FFF71BFB1520FFF70AFB2C
:100F10001BE010492068884217D100BF0C48806947
:100F20000121890408430A49886108468069012132
:100F300089040840009000BF00BF00220121162054
:100F4000FFF7FEFA1620FFF7EDFA38BD0044014026
:100F5000001002400048014001463D20405C01284D
:100F600001D00120704702233D2043540868C06827
:100F7000012318430B68D860104B0868984207D0CB
:100F80000F4B0868984203D00E4B086898420CD16A
:100F9000086880684207520F062A0CD0086800686B
:100FA000012318430B68186005E0086800680123F6
:100FB00018430B6818600020D4E70000002C0140A3
:100FC0000004004000400140704770B504462068AE
:100FD000C5682068066902203040022819D12840DF
:100FE000022816D1401F216808610120207720685F
:100FF00080698007800F002803D02046FFF7E4FFB8
:1010000005E0204600F098F8204600F096F8002011
:1010100020770420304004281AD12840042817D112
:10102000C04321680861022020772068806903217D
:1010300009020840002803D02046FFF7C5FF05E05D
:10104000204600F079F8204600F077F8002020775D
:1010500008203040082819D12840082816D1C0435C
:1010600021680861042020772068C0698007800F0C
:10107000002803D02046FFF7A7FF05E0204600F038
:101080005BF8204600F059F800202077102030400F
:1010900010281AD12840102817D1C04321680861B0
:1010A000082020772068C069032109020840002831
:1010B00003D02046FFF788FF05E0204600F03CF80B
:1010C000204600F03AF800202077F007C00F0028F3
:1010D0000AD0E807C00F002806D00120C0432168CD
:1010E0000861204600F02AF880203040802808D18E
:1010F0002840802805D1C043216808612046FFF7B9
:10110000B5FE40203040402808D12840402805D175
:10111000C04321680861204600F030F820203040AC
:10112000202808D12840202805D1C0432168086123
:101130002046FFF79CFE70BD7047704710B504460F
:101140000B492068884212D100F0ACFD00F0BEF9D6
:1011500008480088401C0749088008460088642821
:1011600005DD01200449087000200249088010BDF7
:1011700000480140020000200000002070470000ED
:1011800010B520210148FFF71FF810BDCC05002045
:1011900070B500251EE0114804780078401C0F4906
:1011A000087008460078202801D3002008700C48F9
:1011B000005D0C49095D88420AD00948015D20465E
:1011C00000F0E5FE0648005D06490855012070BDA7
:1011D000681CC5B2202DDED30020F8E720000020D7
:1011E000CC050020EC05002010B50446002C01D0F1
:1011F000012000E000200246012189020148FFF79A
:101200001EF910BD0004004810B50446002C01D0A2
:10121000012000E000200246012109030148FFF7F8
:101220000EF910BD0004004808B50020009003E04E
:1012300000BF0098401C009000980428F8D308BD17
:1012400010B50446002C01D0012000E00020024629
:101250000121C9020148FFF7F2F810BD000400485F
:1012600030B51346202801D2082900D330BD01240F
:101270008C40E2B2002B05D0064C245C1443054D93
:101280002C5404E0034C245C9443024D2C5400BFC6
:10129000ECE70000CC05002000BFFEE7704700002F
:1012A00010B5044600203749088037490870374890
:1012B000007800281DD1002C02D101F093F817E02E
:1012C000012C02D101F07CF812E0022C10D1304840
:1012D000007800280CD001202C49087000202D49EE
:1012E00008702D49088001202C4908702C4908708D
:1012F00010BD022C0DD1002024490870012027497F
:10130000087027490870274A517CD068FFF7C6FF4C
:1013100036E01F480078012818D1002C02D101F0D6
:101320005DFA09E0012C07D105211A480078401C1C
:10133000FEF7DAFE174801700120184908700020F6
:101340001549088001201649087019E010480078F6
:10135000022815D1002C01D0012C08D11148407C65
:10136000002801D1012000E000200E49487401202E
:101370000A490870002008490880012008490870BF
:1013800000BFB5E72A0000202C0000202300002029
:101390002200002024000020260000202D00002034
:1013A0002E00002020060020074A904200D9104657
:1013B000064AD0605174064A1278002A02D00122EF
:1013C000044B1A70704700009F8601002006002021
:1013D000220000202E00002010B50D4B1B68834218
:1013E00009D10B4C0823E35E8B4204D123465B6892
:1013F000934200D110BD064B186019815A60054B0D
:101400001B78002B02D10123034C237000BFF1E7AE
:1014100020060020220000202E000020642800D991
:1014200064200649097C814200D170470349087451
:101430000121034A117000BFF7E7000020060020D9
:101440002E00002010B519480078002811D0002087
:101450001649087016490870164908701649087030
:101460001649088016490870012016490870164967
:1014700008701348007800280BD00020104908702D
:1014800010480078012148400E49087001200E499B
:1014900008700D480078002804D000200A49087020
:1014A00001F08EF8FFF774FE10BD00002C00002044
:1014B000220000202300002024000020260000201D
:1014C000280000202D0000202E0000201948007860
:1014D000002817D0184800887D21C900884204D20E
:1014E00015480088401C14490880134800887D2155
:1014F000C900884209D300200F49088001200F4904
:10150000087002E000200C4908800D48007800288F
:1015100000D170470B480088401C0A4908800846E3
:101520000088322804D30020088001200649087072
:1015300000BFEEE7220000202A0000202C0000203F
:1015400023000020260000202800002008B500BF4E
:101550000E484069012108430C494861084640692A
:10156000C007C00F009000BF00BF002211460A2034
:10157000FEF7E6FF0A20FEF7D5FF002211460B20FA
:10158000FEF7DEFF0B20FEF7CDFF08BD0010024086
:1015900010B50B480B4908600B484860002109480A
:1015A00081606321C160002101614161802181610D
:1015B000FFF75EFC002801D0FEF73CFE10BD0000E6
:1015C00000440140300000201F03000010B50B480C
:1015D0000B4908600B48486000210948816063217D
:1015E000C16000210161416180218161FFF740FC00
:1015F000002801D0FEF71EFE10BD0000004801408B
:10160000780000201F03000000BFFEE770470000C5
:10161000FEB5044600BF2248009000980078532889
:1016200001D000F065F900BF0027FF20694608716E
:10163000102C30D21B48005D4871194D1835EFF35E
:1016400010800090012080F3108800BF00BF287D2B
:101650008007800F022807D113480470022201A9D5
:10166000284600F08BF90FE0284600F079F906468D
:10167000022E07D30C480470022201A9284600F06C
:10168000BCF901E00027FF430098C0B280F3108846
:1016900000BF00BF01E00027FF433846FEBD000049
:1016A000C0000020EC28000814000020F8B5044613
:1016B0000D46164600BF0E4F3878532801D000F073
:1016C00017F900BFEFF310800746012080F3108860
:1016D00000BF00BF32462946204600F00BF80090BC
:1016E000F8B280F3108800BF00BF0098F8BD00007A
:1016F000C0000020F7B582B0074616460398019057
:10170000182078431B494018009000984069002831
:1017100004D0012811D0022826D11EE0009800F044
:101720001FF90546B54201D2002405E03446324691
:101730000199009800F061F918E0009800F010F9A4
:101740000546B54201D2284600E03046044622460E
:101750000199009800F051F908E03246019900988B
:1017600000F00CF9044601E0002400BF00BF204651
:1017700005B0F0BDD800002070B505460C462046E7
:10178000FEF72DFD0646324621462846FFF78EFF1E
:1017900070BD704710B5FEF75FFE10BD00B595B087
:1017A000302109A8FEF710FD002005900690079053
:1017B00008900190029003900490012009900A90F3
:1017C0000020119009A8FFF76FF8002801D0FEF75C
:1017D00031FD072005900120069000200790089019
:1017E000002105A8FEF75EFF002801D0FEF722FDCC
:1017F000012001900020039001A8FEF7ABFE002815
:1018000001D0FEF717FD15B000BD704710B50248B6
:10181000FFF7DBFB10BD00003000002010B50248D0
:10182000FFF7D3FB10BD00007800002010B5024880
:10183000FFF792FB10BD00007800002010B5026891
:10184000244B984202D0244B984205D17024134671
:10185000A3431A464B681A431E4B98420ED01E4BA8
:1018600098420BD01D4B984208D01D4B984205D092
:101870001C4B984202D01C4B984206D103242402F0
:101880001346A3431A46CB681A4380241346A34346
:101890004C6923431A4602608B68C3620B688362FB
:1018A0000C4B984208D00E4B984205D00D4B9842F5
:1018B00002D00D4B984201D10B69036301234361B0
:1018C0000369DB07DB0F002B03D003695B085B00B8
:1018D000036110BD002C01400004004000200040C6
:1018E00000400140004401400048014070477047FB
:1018F00070B5144CA8212046FEF766FC0320206139
:10190000606111A0A0611349E16101218902216296
:101910000021A1626162E1620BA020660E4961664E
:101920001021A16600212167E1666167002505E0BD
:101930000F20401B0949085C60556D1C102DF7D322
:1019400070BD0000C00000205465726D696E616C4E
:10195000000000006801002068050020FC28000845
:1019600010B501460A69CB689A4204D88C68641E97
:10197000E41AA01801E0D41A601E10BDF7B584B0B7
:101980000446174600200390E56800BF20690290D6
:101990000298A84203D90298401B461E04E0A168A1
:1019A0000298281A401C0E1AA068401BB04201D9A8
:1019B000304601E0A068401B0646BE4201D23046D8
:1019C00000E03846064660684019019032460599A5
:1019D0000198FEF7E0FB03988019039005988019A1
:1019E0000590BF1BAD19A068A84200D10025E56095
:1019F000002FCBD1039807B0F0BDF7B582B00446F5
:101A00001546E668A068871BAF420AD9606880194E
:101A100000902A4603990098FEF7BDFB7019E0601C
:101A200014E00197606880190090019A039900986A
:101A3000FEF7B1FBE81B0190606800900398C119A4
:101A4000019A0098FEF7A7FB0198E06005B0F0BD91
:101A5000F8B582B28BB2040C0D0C1046584300212D
:101A600026465E43370C36048019794116466E438C
:101A7000370C36048019794126466E438919F8BD22
:101A800030B47446641E2578641CAB4204D3635D95
:101A90005B00E31830BC18471D46F8E710B5002876
:101AA00019DB1A4A03231B02D21883089B00D25861
:101AB0008307DC0EFF23A3409A438B071B0E84078A
:101AC000E40EA3401A43114B032424021B1984087B
:101AD000A4001A5118E00E4A03071B0F083B9B088D
:101AE0009B00D2588307DC0EFF23A3409A438B0749
:101AF0001B0E8407E40EA3401A43054B0407240F72
:101B0000083CA408A4001A5110BD000000E100E048
:101B10001CED00E002E008C8121F08C1002AFAD13B
:101B200070477047002001E001C1121F002AFBD15D
:101B300070470000FCB501460322140230258026C0
:101B4000042740200190082000900846372930D013
:101B500009DC2D380300FFF793FF0A414444191CA8
:101B60001E2023262944482831D008DC382822D0DA
:101B7000392823D0412824D0462832D124E04E28C9
:101B80002AD04F2803D057282BD123E000BFFF20B5
:101B9000FCBD0C20FCE71448FAE713483838F7E797
:101BA000E3208000F4E710484430F1E70E48843029
:101BB000EEE70F20ECE70C488830E9E70A484830A8
:101BC000E6E709485830E3E707484C30E0E7F32000
:101BD0008000DDE70548DBE70548D9E70320000280
:101BE000D6E70020D4E7000077030000CCA0000077
:101BF000CC2400007CB505466946284600F0B0F8C4
:101C0000002407E06846015D0122204600F020F82C
:101C1000601CC4B2052CF5D37CBDF8B5054628463A
:101C2000FEF7DDFAC7B200240FE00520C01B201A22
:101C300046B2002E01DBA85D00E020200146012213
:101C4000204600F005F8601CC4B2052CEDD3F8BDA9
:101C5000F8B505460E461746052D00D3F8BD002FF2
:101C600003D03046FFF766FF00E00020009000241C
:101C700012E06A010A4BD2186300D05A0122A24036
:101C8000009B1A40002A01D0012200E000221146E8
:101C900000F01CFD601CC4B2102CEAD300BFDDE7CD
:101CA0007229000870B50025002400BF4EE0002511
:101CB000204600F071F8054608202840002811D081
:101CC00024480068002803D0204622490968884734
:101CD000200121494018C0790821884321011E4A6A
:101CE0008918C87110202840002811D01B480068AE
:101CF000002803D020461949096888472001164961
:101D00004018C079102188432101134A8918C871ED
:101D100002202840002809D020010F494018C0792E
:101D20000221884321010C4A8918C87104202840E7
:101D3000002809D0200108494018C07904218843AF
:101D40002101054A8918C871601CC4B2042CAEDB9D
:101D500070BD0000180000208C0500201C00002031
:101D600070B505460E460B48854200D90546042449
:101D70000CE00A212846FEF7B7F9303131550A2127
:101D80002846FEF7B1F90546601E44B2002CF0DA91
:101D900070BD00009F86010070B5044600252046F6
:101DA00000F036FB0546012D2DD1200134494018A5
:101DB000007A012821D120014018407A401C2101DD
:101DC0002F4A89184872200111464018407A210193
:101DD0008918897A88424DDB0020210189184872D0
:101DE000210189180872200111464018C07902218A
:101DF000084321018918C8713CE000202101204AD4
:101E00008918487236E020011D494018007A0028E0
:101E10002BD120014018407A401C2101184A891812
:101E20004872200111464018407A21018918897AA8
:101E300088421FDB002021018918487201202101FE
:101E400089180872200111464018C07904210843FE
:101E500021018918C871200111464018C079082154
:101E6000084321018918C87104E000202101044AB7
:101E700089184872200102494018C07970BD0000DD
:101E80008C05002008B500BF234840690121890462
:101E900008432149486108464069012189040840F6
:101EA000009000BF00BF00BF1B48406908431A49AB
:101EB000486108464069012189040840009000BF3C
:101EC00000BF00BF144840690843134948610846F1
:101ED0004069012189040840009000BF00BF012033
:101EE0000E494860022088600320C86001208002FB
:101EF00008600B48FEF7A2F90120C00207490860FC
:101F00000748FEF79BF901200003044908600448D4
:101F1000FEF794F908BD0000001002400C060020F6
:101F20000004004810B504460020FFF789F9002C92
:101F300001D0012100E000210846FFF765F9FFF715
:101F400073F90120FFF77CF9FFF76EF910BD70B54A
:101F500006460C46601E45B207E031462941C807D7
:101F6000C00FFFF7DFFF681E45B2002DF5DA70BD28
:101F700070B50546002407E029462141C807C00F77
:101F8000FFF7D0FF601CC4B2042CF5D370BD70B550
:101F900005460C466806060E0020FFF725F90321CA
:101FA0000520FFF7D4FF06213046FFF7D0FF2007BA
:101FB000000FFFF7DDFF2106080FFFF7D9FF012013
:101FC000FFF712F9FFF730F970BD000010B50446B5
:101FD000002C08D1FFF71CFB14A10020FFF7CCFB5D
:101FE0000020FFF75DF9012C09D10020FFF710FB5D
:101FF00012A10020FFF7C0FB0120FFF751F9022CCE
:1020000009D10020FFF704FB10A10020FFF7B4FB6B
:102010000220FFF745F9032C06D10020FFF7F8FA5C
:102020000EA10020FFF7A8FB10BD00004B65793121
:102030005F434C49434B0D0A000000004B65793269
:102040005F434C49434B0D0A000000004B65793358
:102050005F434C49434B0D0A000000004B65793447
:102060005F434C49434B0D0A0000000001490860E2
:10207000704700001800002010B50446002C05D160
:10208000FFF7C6FA0FA10020FFF776FB012C06D15F
:102090000020FFF7BDFA0FA10020FFF76DFB022C17
:1020A00006D10020FFF7B4FA0EA10020FFF764FB71
:1020B000032C06D10020FFF7ABFA0EA10020FFF79A
:1020C0005BFB10BD4B6579315F445F434C49434B2B
:1020D0000D0A00004B6579325F445F434C49434B26
:1020E0000D0A00004B6579335F445F434C49434B15
:1020F0000D0A00004B6579345F445F434C49434B04
:102100000D0A000001490860704700001C00002013
:1021100008B500BF2B4840690121890408432949BB
:10212000486108464069012189040840009000BFC9
:1021300000BF00BF23484069084322494861084660
:102140004069012189040840009000BF00BF00BF22
:102150001C48406908431B49486108464069012101
:1021600089040840009000BF00BF00BF15484069C7
:102170000843144948610846406901218904084020
:10218000009000BF00BF00200F4948600120886018
:102190000320C860102008600C48FEF74FF820208C
:1021A000094908600948FEF749F8402006490860D7
:1021B0000648FEF743F88020034908600348FEF70D
:1021C0003DF808BD001002407805002000040048DA
:1021D00010B5FFF79DFF00F039F810BD70B500286D
:1021E00001DD042800DD70BD441E2401164D295177
:1021F000441E24016419A280441E24016419A371A1
:102200000125441E2401104EA419E571441E240129
:10221000A41925720025441E2401A4196572022503
:10222000441E2401A419A5720025441E2401A419EA
:10223000E572441E2401A41925731E25441E2401A1
:10224000A419657300BFCEE78C05002010B50023EC
:1022500010220B490120FFF7C1FF0023202208496B
:102260000220FFF7BBFF0023402205490320FFF7B0
:10227000B5FF0023802202490420FFF7AFFF10BD05
:102280000004004800B587B000BF00BF2048406987
:102290000121890408431E4948610846406901211B
:1022A00089040840019000BF00BF00BF00BF00BF0D
:1022B00017484069084316494861084640690121AA
:1022C00089040840019000BF00BF00BF881202903F
:1022D0000120039004900320059002A90D48FDF70A
:1022E000ADFF01204002029002A90A48FDF7A6FFB7
:1022F00000BF012211020748FEF7A1F800BF00BF8E
:10230000012251020348FEF79AF800BF07B000BD52
:102310000010024000040048FEF7AAF8FFF73EFA5A
:10232000FFF714F9FFF752F9FFF732F9FFF77EFADA
:10233000FFF7A8FDFFF74CFFFFF7A4FF0020FFF712
:1023400067F916A10020FFF717FA1848FFF78EFE6D
:102350001748FFF7D7FE00BF012211021548FEF70C
:102360006EF800BF00BF012251021248FEF767F865
:1023700000BF8022FE211048FFF72EF800210F48F1
:10238000FFF712F84120FFF749F806E08022FE210E
:102390000948FFF721F8FFF755F8F7E750726F6A21
:1023A0006563742053746172740D0A00CD1F0008B8
:1023B0007920000800040048FB020000D20400005D
:1023C00010B5032105480078401CFDF78DFE034839
:1023D000017001200249087010BD00002200002099
:1023E0002E00002008480078002803D1022006496A
:1023F000087004E004480078401E0349087001207A
:102400000249087070470000220000202E000020C2
:1024100070B5044622010D4BD218918822019858BC
:10242000FEF704F805462001084940188079002885
:1024300005D1002D01D1012070BD0020FCE7002D49
:1024400001D10020F8E70120F6E700008C0500200C
:1024500010B519480078002803D0184800780028E3
:1024600001D0012000E0002004461549497C0029E4
:1024700001D014A100E014A10846214600F0F6F9AD
:102480000021502000F022F910A0FFF7C6FB012226
:1024900020210F4800F06BF9012220210C480E305A
:1024A00000F065F900219F2000F010F90021602064
:1024B00000F00CF910BD0000230000202D000020CA
:1024C000200600204F4E00004F464600574841006E
:1024D00056290008FEB537480068002801DA0020B8
:1024E00001E034480068064632484068002801DAB6
:1024F000002001E02F48406807462E480825455F28
:102500002D48864200D906462B48874200D9074607
:1025100001A93046FFF724FC0021C94301A800F0BF
:102520008BF90121502000F0D1F83846FFF762FB0B
:102530000121542000F0CAF80021572000F0C6F80D
:102540000021562000F0C2F80021552000F0BEF80E
:10255000002D06DA684284B201219F2000F0B6F80F
:1025600004E0ACB200219F2000F0B0F80A21601D09
:10257000FDF7BAFD84B2632C00D963240A212046FA
:10258000FDF7B2FD3030C0B20122014600900B4889
:1025900000F0EDF80A212046FDF7A6FD30310122BA
:1025A00006480E30009100F0E2F80121602000F0B2
:1025B0008DF8FEBD200600209F86010056290008E8
:1025C00010B5FEF7DDFD0B480078002804D0012887
:1025D00005D0022809D105E0FFF77CFF06E000F0F6
:1025E00035F803E0FFF734FF00E000BF00BF00F064
:1025F00003F810BD2200002070B51248067C642E3E
:1026000000D96426002E01D1002508E031461422AD
:102610005143084663306421FDF766FDC5B20024CE
:102620000CE0AC4201DA012200E000221146620017
:10263000054B985A00F04AF8601CC4B2142CF0D331
:1026400070BD000020060020122A00081CB50024DE
:10265000E4431849C8686946FFF782FB16480078CA
:10266000002808D015480078002804D114480078C4
:102670000421081A44B22146684600F0DDF8002122
:10268000502000F023F80FA0FFF7C7FA0122202105
:102690000D4800F06CF8012220210B480E3000F0AC
:1026A00066F800219F2000F011F80021602000F062
:1026B0000DF81CBD20060020230000202D00002066
:1026C00024000020574841005629000870B50446F0
:1026D0000D466107490F6205100E2A46FEF7C0FD40
:1026E00070BD00B50146084637292CD009DC2D38CD
:1026F0000300FFF7C5F90A383A3A191C1E202224B4
:10270000263A482829D008DC38281ED039281ED07F
:1027100041281ED0462828D11DE04E281FD04F2822
:1027200003D06E2821D11CE000BF3F2000BD062051
:10273000FCE75B20FAE74F20F8E76620F6E76D201C
:10274000F4E77D20F2E70720F0E77F20EEE76F2037
:10275000ECE77720EAE77120E8E77620E6E7372024
:10276000E4E75420E2E74020E0E70020DEE7F8B5A8
:1027700004460E461746002F03D03046FFF7B1FF40
:1027800000E000200546E907C90F2088FFF79EFFFB
:1027900002222A4051086088FFF798FF04222A404D
:1027A0009108A088FFF792FF08222A40D108E0880C
:1027B000FFF78CFF10222A4011092089FFF786FFBE
:1027C00020222A4051096089FFF780FF40222A40D9
:1027D0009109A089FFF77AFFF8BD0000F8B512480B
:1027E0000078052802D300200F4908700E480078B1
:1027F00080000E490D580E48C46829462046FDF752
:1028000073FC07460A21FDF76FFC0E46092E03D321
:10281000E8002818241A00E064190648844200D908
:1028200004460348C460F8BD240000203C2A000888
:10283000200600209F860100F8B505460E460024BC
:102840000FE063B2B34201D0012300E000231A4637
:10285000295D0E236343044FD819FFF788FF601CDE
:10286000C4B2052CEDD3F8BD10290008FEB505460D
:102870000E462846FDF7B3FCC0B20190002414E0D8
:1028800005210198081A201A47B2002F01DBE85DE4
:1028900000E0202000900E216143054A881832464E
:1028A0000099FFF764FF601CC4B2052CE8D3FEBD9D
:1028B0001029000802030405060708090A0B0C0D7D
:1028C0000E0F10100102030405060708090A0B0C7D
:1028D0000D0E0F10000000000000000001020304B4
:1028E00006070809000000000102030430313233FA
:1028F00034353637383941424344454600000000FC
:1029000000005454522052454747455300000000F0
:1029100076007500720070007100740073007E0014
:102920007D007A00780079007C007B0086008500BD
:10293000820080008100840083008E008D008A0068
:10294000880089008C008B00960095009200900012
:102950009100940093009E009D009A0098009900B9
:102960009C009B00A600A500A200A000A100A4005E
:10297000A300000008000B000F0007000600040081
:10298000020003000C00010009000A000E000D0007
:102990000500100018001B001F001700160014008F
:1029A000120013001C00110019001A001E001D0067
:1029B0001500200028002B002F00270026002400EF
:1029C000220023002C00210029002A002E002D00C7
:1029D0002500300038003B003F003700360034004F
:1029E000320033003C00310039003A003E003D0027
:1029F0003500400048004B004F00470046004400AF
:102A0000420043004C00410049004A004E004D0086
:102A10004500A800A900AA00AB00AC00AD00AE00C4
:102A2000AF00B000B100B200B300B400B500B60012
:102A3000B700B800B900BA00BB00000001000000F8
:102A40000A00000064000000E803000010270000F6
:102A5000702A00080000002030000000141B00084D
:102A6000A02A000830000020080A0000241B0008EB
:102A70000000000000000000040000000100000051
:102A800000127A00000000000000000000000000BA
:102A90000000000000000000000000000000000036
:04000005080000B53A
:00000001FF
