:020000040800F2
:1000000038120020CD00000815260008392200080B
:1000100000000000000000000000000000000000E0
:100020000000000000000000000000009F27000802
:10003000000000000000000019260008A1270008A9
:10004000DF00000800000000DF000008DF000008FB
:10005000DF000008DF000008DF000008DF00000804
:1000600000000000DF0000084D08000865080008D7
:10007000DF000008DF000008DF00000800000000CB
:10008000DF000008DF00000800000000DF000008BB
:10009000DF0000081928000829280008DF000008F0
:1000A000DF000008DF000008DF000008C53000089E
:1000B000D53000080448854600F086FB004800471C
:1000C00099470008C046C0463812002004488047BF
:1000D00004480047FEE7FEE7FEE7FEE7FEE7FEE72F
:1000E00017280008B500000830B50B46014600206F
:1000F0002022012409E00D46D5409D4205D31D462E
:100100009540491B2546954040191546521E002D25
:10011000F1DC30BDF0B51FB40646002082B00546C4
:100120004024019100901BE0019922460F46304681
:1001300000F020F8049A059B801A994110D31046CC
:100140001946224600F03FF9361A8F4101972246A0
:1001500001200021009F00F036F938184D41009031
:100160002046641E0028DFDC019B009829463246A9
:1001700007B0F0BD10B5202A04DB0846203AD04075
:10018000002110BD0B46D340D0402024A21A91403C
:100190000843194610BD03460B439B0703D009E0F3
:1001A00008C9121F08C0042AFAD203E00B780370B2
:1001B000401C491C521EF9D27047D2B201E00270B5
:1001C000401C491EFBD270470022F6E710B51346CB
:1001D0000A4604461946FFF7F0FF204610BD421CB0
:1001E0000178401C0029FBD1801A704770B5024687
:1001F0004A40D50F40004A00ED0740085208002849
:1002000014D0002A12D0C40DD30D41020120C00524
:100210005202490A520AE41A091812187D3491420E
:1002200001D3641C00E04900002C01DA002070BDFD
:100230000023914201D3891A034340084900002852
:10024000F7D100290AD0914202D10121C90705E066
:10025000914201D2012101E00121C943E005C0180A
:10026000401900F0C0F870BDF0B50C465C4085B098
:10027000E40FE40703944C000026640859009446F8
:10028000490802460296224321D062460A431ED004
:100290006200570D4A000E032303550D0124024648
:1002A0002C492405781B1B0B360B4018234326438F
:1002B000614600901C46501AB44103D30098401C7C
:1002C000009002E0921800985B41002803DA0020B9
:1002D000014605B0F0BD002001210905074686460C
:1002E00011E064461D46141BB54106D36546521BFA
:1002F000B341744607430C43A646CD07400849085E
:10030000284392185B4105460D43EAD11046184335
:1003100013D06046194650407140084306D06046ED
:10032000101AB34106D20122002306E00022012365
:10033000DB0702E00122D243531000987446010506
:10034000381C6141029C039D0019694100F08CF842
:10035000BFE70000FD03000010B500229623114600
:1003600000F049F810BDC20FD207400040080BD082
:10037000C10D0723DB01C91840020905400A1143DA
:10038000C208400711437047002001467047CB0F59
:10039000DB07490010B5490802460A4307D00A0D99
:1003A00007240903E401090B121B002A01DC0020C9
:1003B00010BDC900440F0C43C100E018D2058018DD
:1003C00000F011F810BD10B5202A04DB0146203AD8
:1003D0009140002010BD914020239C1A0346E34029
:1003E0001943904010BD002904DA401C490001D196
:1003F00040084000704770B40024050C05D110245B
:10040000000402D1002921D01124050E01D10002DF
:100410000834050F01D10001241D850F01D1800092
:10042000A41C002801DB4000641C002908D0202502
:100430002E1B0D46F540A14000D001212943084361
:1004400001061B1B000ADB1D02D5002070BC704793
:10045000DB05181880180029F8DA401C4900F5D18E
:1004600070BC40084000704710B5002B08DA00242B
:10047000401C614192185B411A4301D14008400081
:1004800010BDF0B51FB482B005460C0003D008467D
:1004900002F0E6FE02E002F0E3FE203002460090A9
:1004A00021462846FFF78FFF049B059A04460F4616
:1004B00018431143084314D0184610431BD000982A
:1004C00040210A1A18460599FFF754FE05460E46C4
:1004D000009A05990498FFF776FF084305D001209C
:1004E00004E02046394607B0F0BD0020C11705439F
:1004F0000E432C43374300990E986305401A790543
:10050000E40A00220C43FD0A0A3002D5002001460D
:10051000E9E70105101969410C9C0D9D001969411D
:10052000FFF7A2FFDFE70000F0B507460846584096
:1005300087B0C00F049048000E4659004008490893
:10054000BC1A884105D2384631461E4617460B462E
:1005500002465800400810434DD0300D039040052E
:100560005900400D490D0590401A0290402873DA59
:1005700018030121000B090508430190049800921B
:10058000002806D01146019A49420020904100916E
:100590000190029840210A1A01990098FFF713FF71
:1005A00005460C466B4607CB00F020F9C019714197
:1005B000039A0E0D0023D71756401A467A40164369
:1005C00044D0049A002A2DD0029A012A039A15DCFD
:1005D0001205C01A914101263605001C7141D20F47
:1005E000059ED2070093019202962A462346FFF702
:1005F00048FF07B0F0BD38463146FAE71605234AF2
:100600000F46B218C01AB74101210905001C4F411D
:1006100000187F41114618187941E20F10436D19F7
:10062000644113E0E2076D0815436408C2071443F0
:10063000039A01261205C01A91413605001C71412A
:10064000CE07400830434908C01851412A46234686
:10065000FFF70AFFCDE7FFE7049801224000C1172A
:10066000121A00238B4104983146C417381AA1414D
:10067000EEE730B40124E407634030BC54E730B403
:100680000124E407614030BC4EE700000000E0FFB9
:10069000F0B51FB488B00B99099800244840099917
:1006A000C00F490049080991C0070B990090490003
:1006B00049080B9109990898A64608431CD00B9944
:1006C0000A98084318D0099801244000420D4800B8
:1006D000410D099824050003000B204309900B9855
:1006E0000003000B20430B9050181C4940180022B7
:1006F00001901446104605E0002001460DB0F0BD03
:10070000032801DA034600E003239C46C11A0AAE1F
:100710000AE05F0008ADED5B4F00F75B7D4300270B
:10072000AA187C41491C5B1E6145F2DD410004AB07
:100730005A522104120C0A43240C401C0828DFDB07
:10074000019802900099704601910090059B049ACF
:1007500007990698FFF795FED0E700000DFCFFFF14
:100760004A0009030123090B1B0519430A4B10B565
:10077000520D9A4202DA0020014610BD064B343376
:100780009A4203DC9A1AFFF7F5FC10BD034BD2180E
:10079000FFF719FE10BD0000FF030000CDFBFFFFB7
:1007A00010B5002904DB0124E40740428C412146B6
:1007B000002B04DB1C460123DB075242A341994274
:1007C00000D1904210BD0000064C0125064E05E008
:1007D000E36807CC2B430C3C98471034B442F7D362
:1007E000FFF76CFCBC540008DC54000810B5202A4C
:1007F00006DBCB170846203A1041C1170B4306E031
:100800000B461341D0402024A21A914008431946B8
:1008100010BD000070B502460B46FF25FF2408E01E
:100820001178521C61400748405C68400446064805
:10083000455C18465E1EF3B20028F1D12802204321
:1008400070BD0000BC520008BC53000810B503483E
:1008500000F087F8024800F084F810BD2C07002053
:10086000E80600207047000010B50446054A2168DC
:10087000881A1421FFF738FC8000206401480838EA
:10088000E06310BD0800024030B50124056CAC40A7
:10089000C56B6C60046863604468102C04D1046804
:1008A000A2600468E16003E00468A1600468E2609B
:1008B00030BD72B600BFFEE701462120405C022831
:1008C00008D00420886300BF00222020425400BFCB
:1008D00001207047086800680E2290430A68106083
:1008E00008680068400840000A68106001200A6C2F
:1008F0009040CA6B506001222120425400BF002268
:100900002020425400BF0020E3E770B504460025D4
:100910002120005D022803D00420A06301251EE0F1
:10092000206800680E2188432168086020680068FC
:1009300040084000216808600120216C8840E16B7C
:10094000486001212120015500BF002120200155D0
:1009500000BF606B002802D02046616B88472846A4
:1009600070BD70B50446E06B056820680668042019
:10097000216C8840284000281BD0042030400028EB
:1009800017D02068006820210840002805D1206881
:10099000006804218843216808600420216C884095
:1009A000E16B4860E06A002852D02046E16A88473F
:1009B0004EE00220216C88402840002823D00220ED
:1009C000304000281FD020680068202108400028FF
:1009D00008D1206800680A21884321680860012145
:1009E000212001550220216C8840E16B486000BF46
:1009F00000212020015500BFA06A002828D02046F1
:100A0000A16A884724E00820216C884028400028FB
:100A10001ED00820304000281AD0206800680E211F
:100A20008843216808600120216C8840E16B4860A0
:100A30000120A06301212120015500BF00212020B9
:100A4000015500BF206B002802D02046216B88474B
:100A500070BD000070B504460025002C01D10120B6
:100A600070BD022121200155206805680F4805400E
:100A7000A16860680843E168084321690843616927
:100A80000843A1690843E1690843054320680560FC
:100A90002046FFF7E9FE0020A06301212120015537
:100AA0000021202001550020DAE700000FC0FFFFE1
:100AB000F8B504460D4616461F460020009000BFBC
:100AC0002020005D012801D10220F8BD0121202055
:100AD000015500BF2120005D01282DD102212120D8
:100AE00001550020A063206800684008400021688C
:100AF00008603B46324629462046FFF7C5FEE06ABD
:100B0000002806D0206800680E210843216808608C
:100B10000BE0206800680A2108432168086020680B
:100B2000006804218843216808602068006801216A
:100B300008432168086006E000BF0021202001551D
:100B400000BF022000900098BFE7000078B5034680
:100B50000A460021DFE001268E4014683440002C54
:100B60007ED01579AD07AD0F012D04D01579AD07F5
:100B7000AD0F022D18D198684E000325B5400646EA
:100B8000AE4330464E00D568B5402843986058685B
:100B900001258D400646AE43304610265568354047
:100BA0002D098D40284358601579AD07AD0F032DF1
:100BB0000BD0D8684E000325B5400646AE433046FC
:100BC0004E009568B5402843D8601579AD07AD0F44
:100BD000022D15D1CD08AE001D462035A8594D0770
:100BE000EE0E0F25B5400646AE4330464E07F60ED4
:100BF0001569B5402843CD08AD001E46203670511A
:100C000018684E000325B5400646AE4330461579B8
:100C1000AD07AD0F4E00B5402843186003263604DB
:100C200055683540002D75D000BF3E4DAD69012699
:100C300035433C4EB5613546AD69ED07ED0F009586
:100C400000BF00BF384D8E08B600A8598D072E0F83
:100C50000F25B5400646AE4330460925ED0600E0B7
:100C600058E0AB4201D100250FE0304DAB4201D13D
:100C700001250AE02E4DAB4201D1022505E02D4DA4
:100C8000AB4201D1032500E005258E07360FB540A4
:100C90002843254D8E08B600A851274DA868054663
:100CA000A54328460126360555683540002D02D05B
:100CB000054625432846204DA860E8680546A5431B
:100CC00028460126760555683540002D02D0054698
:100CD00025432846184DE86068680546A543284620
:100CE0000126760455683540002D02D0054625437F
:100CF0002846114D686028680546A5432846012608
:100D0000360455683540002D02D005462543284657
:100D1000094D2860491C1568CD40002D00D01AE708
:100D200078BD0000001002400800014000040048A7
:100D300000080048000C0048000401400246136906
:100D40000B40002B01D0012000E00020704710B5BF
:100D5000426913460B401B040C46944323438361B2
:100D600010BD002A01D0816100E08162704700005F
:100D70000148006870470000040000200348006834
:100D800003490978401801490860704704000020B1
:100D90000C00002010B506480068102108430449E3
:100DA0000860032000F006F800F02EF8002010BDC7
:100DB0000020024070B50446104801787D20C00034
:100DC000FFF792F9064631460D480068FFF78CF9A7
:100DD000054600F0D9FC002801D0012070BD042C8C
:100DE00007D200222146501E00F03CF8054804605E
:100DF00001E00120F2E70020F0E700000C000020F5
:100E0000100000200800002008B500BF0D488069D0
:100E1000012108430B49886108468069C007C00F5B
:100E2000009000BF00BF00BF0846C0690904084326
:100E30000449C8610846C06909040840009000BF21
:100E400000BF08BD001002400146002905DBCB06AB
:100E5000DB0E01229A40024B1A6000BF704700006F
:100E600000E100E070B504460D46164629462046CE
:100E700002F034FA70BD0000F8B5044600260025E3
:100E8000012109042068084088427AD100274B4894
:100E9000C0690903084000280DD100BF4748C06958
:100EA00008434649C8610846C069090408400090E3
:100EB00000BF00BF012742480068FF210131084000
:100EC000002816D13E48006808433D490860FFF7F6
:100ED0004FFF064606E0FFF74BFF801B642801D951
:100EE0000320F8BD36480068FF2101310840002882
:100EF000F1D03248006A0321090208400546002D5E
:100F00002DD060680840A84229D02C48006A884348
:100F100005462A48006A0121090408432749086256
:100F20000846006A012109048843244908620846EA
:100F30000562E807C00F002811D0FFF719FF064629
:100F400007E0FFF715FF801B1E49884201D90320E7
:100F5000C7E71A48006A022108400028F1D0174864
:100F6000006A032109028843616808431349086243
:100F7000012F05D10846C069090488430F49C8619B
:100F800000BF2078C007C00F002807D00B48006BB7
:100F900080088000A1680843084908632021206870
:100FA0000840202807D10548006B10218843E168DC
:100FB000084302490863002093E700000010024044
:100FC000007000408813000070B504460D46002CE8
:100FD00001D1012070BD52480068C007C00FA8426F
:100FE0000ED24F4800684008400028434C49086032
:100FF00008460068C007C00FA84201D00120E9E7F9
:10100000022120680840022814D1042120680840E9
:10101000042807D143484068072109028843401843
:10102000404948603F484068F0218843A168084330
:101030003C4948602078C007C00F00283BD060685A
:10104000012808D1374800680121490408400028D8
:1010500015D10120BEE76068022808D13148006838
:10106000012149060840002809D10120B2E72D4896
:10107000006802210840002801D10120AAE7294880
:101080004068800880006168084326494860FFF78F
:101090006FFE064607E0FFF76BFE801B2249884281
:1010A00001D9032096E71F4840680C210840616879
:1010B00089008842EFD11A480068C007C00FA842D3
:1010C0000ED91748006840084000284314490860BA
:1010D00008460068C007C00FA84201D0012079E788
:1010E000042120680840042808D10E4840680721E0
:1010F00009028843E16808430A49486000F032F871
:1011000008494968F02211400909084A515CC84061
:10111000074908600320FFF74DFE00205AE7000052
:1011200000200240001002408813000040510008D7
:1011300010000020014800687047000010000020E7
:1011400000B5FFF7F7FF0549496807221202114071
:10115000090A034A515CC84000BD0000001002406B
:1011600050510008F8B50024002500270026002073
:1011700000901D4844680C20204000282DD00428F1
:1011800002D0082828D102E01848009028E00F205B
:1011900080042040800C16490E5C1348C06A00078A
:1011A000000F14490D5C01200004204001210904B6
:1011B00088420AD12A4600230C481946FEF7AAFFA6
:1011C000314602F064F8074604E00B48314602F06D
:1011D0005EF80746009703E000BF0448009000BF98
:1011E00000BF0098F8BD00000010024000127A0015
:1011F000205100083051000800093D00FEB50446AA
:10120000002C01D10120FEBD2078C007C00F0028AE
:1012100071D0FC4840680C21084004280BD0F948E4
:1012200040680840082812D1F648406801210904A6
:10123000084088420BD1F348006801214904084066
:1012400000286BD06068002868D10120DBE700BF70
:101250006068012807D1EB480068012109040843B0
:10126000E849086031E0606800280ED1E548006870
:10127000012109048843E349086008460068012108
:1012800089048843DF4908601FE0606805280ED1A3
:10129000DC480068012189040843DA4908600846EF
:1012A0000068012109040843D64908600DE0D548CB
:1012B0000068012109048843D24908600846006893
:1012C000012189048843CF49086000BF6068002875
:1012D00012D0FFF74DFD054606E0FFF749FD401B24
:1012E000642801D903208EE7C6480068012149041B
:1012F00008400028F1D011E0FFF73AFD054606E06E
:10130000FFF736FD401B642801D903207BE7BD4869
:1013100000680121490408400028F1D10221206819
:101320000840022861D1B74840680C2108400028D5
:101330000BD0B4484068084008281BD1B148406829
:10134000012109040840002814D1AE480068022198
:101350000840002804D0E068012801D0012052E7AD
:10136000A8480068F82188432169C9000843A549B5
:1013700008603AE0E068002820D0A2480068012117
:101380000843A0490860FFF7F3FC054606E0FFF7B5
:10139000EFFC401B022801D9032034E7994800687C
:1013A000022108400028F2D096480068F8218843BE
:1013B0002169C90008439349086016E09148006814
:1013C000400840008F490860FFF7D2FC054606E060
:1013D000FFF7CEFC401B022801D9032013E7894800
:1013E0000068022108400028F2D108212068084046
:1013F000082831D1E069002817D08248406A0121CD
:10140000084380494862FFF7B3FC054606E0FFF752
:10141000AFFC401B022801D90320F4E67948406A5A
:10142000022108400028F2D016E07648406A4008C1
:10143000400074494862FFF79BFC054606E0FFF751
:1014400097FC401B022801D90320DCE66D48406A66
:10145000022108400028F2D1042120680840042815
:1014600073D1002001906748C069890608400028B0
:101470000ED100BF6348C06908436249C86108468D
:10148000C06909040840009000BF00BF012001901E
:101490005D480068FF2101310840002816D15A48F4
:1014A0000068084358490860FFF762FC054606E0FB
:1014B000FFF75EFC401B642801D90320A3E65248D5
:1014C0000068FF21013108400028F1D000BFA0686A
:1014D000012806D14B48006A0121084349490862A6
:1014E0002BE0A06800280CD14648006A4008400064
:1014F000444908620846006A042188434149086259
:101500001BE0A06805280CD13E48006A042108436E
:101510003C4908620846006A0121084339490862CB
:101520000BE03848006A4008400036490862084627
:10153000006A042188433349086200BFA06800287C
:1015400013D0FFF715FC054608E02BE0FFF710FC71
:10155000401B2E49884201D9032054E62948006ADD
:10156000022108400028F1D011E0FFF701FC0546F8
:1015700007E0FFF7FDFB401B2449884201D9032007
:1015800041E62048006A022108400028F1D1019874
:10159000012806D11B48C069012109078843194960
:1015A000C86100BF102120680840102860D1606920
:1015B00001282DD11348406B042108431149486389
:1015C0000846406B012108430E494863FFF7D0FBF2
:1015D000054606E0FFF7CCFB401B022801D903209B
:1015E00011E60848406B022108400028F2D0054867
:1015F000406BF8218843A169C90008430149486349
:1016000036E0000000100240007000408813000027
:101610006069401D00280FD15A48406B042188435F
:10162000584948630846406BF8218843A169C900BE
:101630000843544948631BE05248406B0421084367
:10164000504948630846406B400840004863FFF734
:101650008FFB054606E0FFF78BFB401B022801D9F4
:101660000320D0E54748406B022108400028F2D112
:10167000206A00284FD0434840680C2108400828C1
:1016800064D0206A022847D13E480068012109063B
:1016900088433C490860FFF76BFB054606E0FFF70F
:1016A00067FB401B022801D90320ACE535480068E0
:1016B0000121490608400028F1D100BF3148C06A25
:1016C00000090001E16A08432E49C862616AA06A04
:1016D00008432C4949683D22120491430843294993
:1016E000486000BF084600680121090608432549F3
:1016F0000860FFF73DFB054606E0FFF739FB401B9E
:10170000022801D903207EE51E4800680121490610
:1017100008400028F1D033E01A480068012109068A
:10172000884318490860FFF723FB054606E0FFF7EA
:101730001FFB401B022801D9032064E51148006803
:101740000121490608400028F1D119E0206A01284A
:1017500000D158E50B484668C76A012000043040B4
:10176000616A88420AD13907090FE06A814205D1CE
:101770000F2080043040A16A884201D0012042E558
:10178000002040E50010024070B504462546681E62
:101790000949884201D901200CE0681E07494861C7
:1017A0000321081F01F09AFD0020044988610720E9
:1017B0000861002070BD0000FFFFFF0000E000E0B6
:1017C0007047704710B50446002C01D1012010BDB0
:1017D0003D20005D002805D100213C200155204618
:1017E00000F022F802213D200155211D206801F062
:1017F0002BF801214620015500BF3E2001553F2016
:101800000155402001554120015500BF00BF422035
:10181000015543200155442001554520015500BF85
:101820003D2001550020D2E738B504461C49206808
:10183000884218D100BF1B48806901214904084330
:1018400018498861084680690121490408400090D0
:1018500000BF00BF002201211520FFF703FB152068
:10186000FFF7F2FA1BE010492068884217D100BF49
:101870000C4880690121890408430A4988610846A7
:101880008069012189040840009000BF00BF002248
:1018900001211620FFF7E6FA1620FFF7D5FA38BD2A
:1018A00000440140001002400048014001463D2034
:1018B000405C012801D00120704702233D204354A1
:1018C0000868C068012318430B68D860104B08688B
:1018D000984207D00F4B0868984203D00E4B086817
:1018E00098420CD1086880684207520F062A0CD033
:1018F00008680068012318430B68186005E0086851
:101900000068012318430B6818600020D4E700002A
:10191000002C01400004004000400140704770B5B9
:1019200004462068C5682068066902203040022805
:1019300019D12840022816D1401F216808610120D2
:101940002077206880698007800F002803D0204618
:10195000FFF7E4FF05E0204600F098F8204600F08D
:1019600096F8002020770420304004281AD128401F
:10197000042817D1C043216808610220207720681D
:101980008069032109020840002803D02046FFF7A0
:10199000C5FF05E0204600F079F8204600F077F812
:1019A0000020207708203040082819D12840082836
:1019B00016D1C04321680861042020772068C069DF
:1019C0008007800F002803D02046FFF7A7FF05E01F
:1019D000204600F05BF8204600F059F80020207700
:1019E0001020304010281AD12840102817D1C043A9
:1019F00021680861082020772068C0690321090256
:101A00000840002803D02046FFF788FF05E0204665
:101A100000F03CF8204600F03AF800202077F0076C
:101A2000C00F00280AD0E807C00F002806D0012008
:101A3000C04321680861204600F02AF88020304029
:101A4000802808D12840802805D1C043216808613A
:101A50002046FFF7B5FE40203040402808D12840FE
:101A6000402805D1C04321680861204600F032F8C3
:101A700020203040202808D12840202805D1C0430C
:101A8000216808612046FFF79CFE70BD70477047D3
:101A900010B504460C492068884214D102F088F938
:101AA00000F01AFD02F0DEFE08480088401C0749DD
:101AB000088008460088642805DD01200449087074
:101AC00000200249088010BD0048014002000020AB
:101AD000000000207047F8B504460D4617468020E8
:101AE000005920283AD1002D01D0002F01D101202A
:101AF000F8BD01210903A068884208D120690028A7
:101B000005D1E807C00F002801D00120F0E701202F
:101B10002066002060663A462946204601F00AFA0F
:101B20000646002E18D1206E012814D110202168FD
:101B3000086200BF00BFEFF310800090012001F0A9
:101B40001EFC206800681021084321680860009886
:101B500001F015FC00E001263046C9E70220C7E786
:101B600070B504460D460F492068884218D12A46B0
:101B70000D490E4802F0FAFD01200D49087080223F
:101B800009490C48FFF7A7FF002809D10948406F11
:101B900000680068042188430649496F09680860A5
:101BA00070BD00000038014094090020700700203B
:101BB000300000206006002070470000F0B585B0BE
:101BC00004462068C5692068066820688768E3487D
:101BD00028400390039800280FD120202840002897
:101BE0000BD020203040002807D0A06E002802D063
:101BF0002046A16E884705B0F0BD039800287DD02F
:101C0000F807C00F002803D1D54830400028F6D08F
:101C1000E807C00F00280DD0FF2001303040002819
:101C200008D001202168086284200059012108435E
:101C3000842108510220284000280CD0F807C00F4A
:101C4000002808D00220216808628420005904215D
:101C50000843842108510420284000280CD0F807AC
:101C6000C00F002808D00420216808628420005991
:101C7000022108438421085108202840002810D060
:101C800020203040002803D1F807C00F002808D0DA
:101C90000820216808628420005908210843842113
:101CA00008510120C002284000280ED001208006E3
:101CB0003040002809D00120C00221680862842039
:101CC000005920210843842108518420005900280C
:101CD00054D020202840002809D02020304000285F
:101CE00005D0A06E002802D02046A16E884784202F
:101CF0000059029020688068402100E03FE00840E1
:101D0000402804D0282102980840002830D02046DE
:101D100000F0CEFF2068806840210840402823D191
:101D200000BF01F017FB0190012001F025FB2068A6
:101D300080684021884321688860019801F01CFB7D
:101D400000BF606F00280BD08648616F4863606FEA
:101D5000FEF7DBFD002811D0606F416B88470DE076
:101D60002046FFF729FF09E02046FFF725FF05E0A1
:101D70002046FFF721FF0021842001513BE7206E20
:101D800001287DD110202840002879D01020304033
:101D90000028FAD01020216808622068806840215D
:101DA000084040286ED1606F0068406880B20190A2
:101DB0000198002863D05820015B019881425EDDC4
:101DC0005A2101980853606F806920284CD000BFC9
:101DD00001F0C0FA0090012001F0CEFA20680068FE
:101DE000FF210131884321680860009801F0C4FA9E
:101DF00000BF00BF01F0AEFA0090012001F0BCFA74
:101E0000206880684008400021688860009801F0E0
:101E1000B3FA00BF00BF01F09DFA0090012001F06D
:101E2000ABFA206880684021884321688860009868
:101E300001F0A2FA00BF202180200151002020667D
:101E400000BF01F087FA0090012001F095FA2068A8
:101E500000681021884321680860009801F08CFA1E
:101E600000BF606FFEF728FD022060665820025B0D
:101E70005A20005B101A81B22046FFF771FEBAE6C5
:101E80004FE0FFE75820015B5A20005B081A80B240
:101E900001905A20005B002842D0019800283FD0D2
:101EA00000BF01F057FA0090012001F065FA2068A8
:101EB0000068FF212131884321680860009801F003
:101EC0005BFA00BF00BF01F045FA0090012001F06D
:101ED00053FA2068806840084000216888600098B4
:101EE00001F04AFA00BF2021802001510020206625
:101EF000A06600BF01F02EFA0090012001F03CFA2C
:101F0000206800681021884321680860009801F06B
:101F100033FA00BF0220606620460199FFF720FED9
:101F200069E68020284000280AD080203040002820
:101F300006D0E06E002802D02046E16E88475AE6BF
:101F400040202840002807D040203040002803D0FF
:101F5000204600F0EDFE4EE600BF4CE60F08000004
:101F600020010004E92A000810B50446002C01D124
:101F7000012010BDA069002800D000E000BFE06F84
:101F8000002805D1002178200155204600F02BF8CB
:101F90002420E0672068006840084000216808604D
:101FA000606A002802D0204600F0A6FC204600F01F
:101FB000F1FE012800D1DCE7206840680121C90258
:101FC0008843216848602068806808218843216828
:101FD0008860206800680121084321680860204665
:101FE00000F002FDC5E7704770477047F8B504463A
:101FF0000E461546E06F202853D1002E01D0002D4B
:1020000001D10120F8BD01210903A068884208D14F
:102010002069002805D1F007C00F002801D0012059
:10202000F0E7E66450200553522005530021842038
:1020300001512120E067206F00281CD01A48216F31
:1020400088621A48216FC8621948216F086300200E
:10205000216F486323681A4628322B46E16C206FB3
:10206000FEF726FD002806D01021842001512020F3
:10207000E0670120C6E740202168086200BF01F048
:1020800069F90746012001F077F92068806880210E
:10209000084321688860384601F06EF900BF0020CF
:1020A000B0E70220AEE70000452C0008A32C000892
:1020B000012B0008034A0168914202D10021024A23
:1020C0001170704700380140380000207047000050
:1020D00010B520210148FEF777F810BDF805002063
:1020E00070B500251EE0114804780078401C0F49A7
:1020F000087008460078202801D3002008700C489A
:10210000005D0C49095D88420AD00948015D2046FE
:1021100002F01BF90648005D06490855012070BD14
:10212000681CC5B2202DDED30020F8E72000002077
:10213000F80500201806002010B5012000F024F852
:10214000012000F04DF8012000F02EF820210B486E
:10215000FEF73AF8FF2220210948FEF72EF800206A
:1021600008490870022002F0A7F8FF20C73002F0EB
:10217000A3F8062002F0A0F810BD0000F80500202A
:10218000180600202000002010B50446002C01D0C5
:10219000012000E000200246012189020148FEF7EB
:1021A000E0FD10BD0004004810B50446002C01D02D
:1021B000012000E000200246012109030148FEF74A
:1021C000D0FD10BD0004004808B50020009003E0D9
:1021D00000BF0098401C009000980428F8D308BD68
:1021E00010B50446002C01D0012000E0002002467A
:1021F0000121C9020148FEF7B4FD10BD00040048EA
:1022000030B51346202801D2082900D330BD01245F
:102210008C40E2B2002B05D0064C245C1443054DE3
:102220002C5404E0034C245C9443024D2C5400BF16
:10223000ECE70000F805002000BFFEE77047000053
:1022400010B514210F48FDF7BFFF7D20C0000D49D8
:10225000C860002008740C4908700C4908700C49CB
:1022600008700C4908800C4908700C4908800C491A
:10227000087001200B4908700B490870FFF75CFFDC
:1022800010BD00004C06002022000020230000208A
:102290002400002026000020280000202A00002022
:1022A0002C0000202D0000202E00002010B5044638
:1022B00000203749088037490870374800780028DF
:1022C0001DD1002C02D102F0FDFA17E0012C02D141
:1022D00002F0E6FA12E0022C10D130480078002813
:1022E0000CD001202C49087000202D4908702D4980
:1022F000088001202C4908702C49087010BD022C60
:102300000DD1002024490870012027490870274971
:102310000870274A517CD068FFF790FF36E01F48CD
:102320000078012818D1002C02D102F07FFD09E0CD
:10233000012C07D105211A480078401CFDF7D4FE76
:1023400017480170012018490870002015490880BD
:1023500001201649087019E010480078022815D1AC
:10236000002C01D0012C08D11148407C002801D15B
:10237000012000E000200E49487401200A4908703D
:1023800000200849088001200849087000BFB5E70F
:102390002A0000202C000020230000202200002022
:1023A00024000020260000202D0000202E00002008
:1023B0004C060020074A904200D91046064AD060D9
:1023C0005174064A1278002A02D00122044B1A7076
:1023D000704700009F8601004C060020220000206C
:1023E0002E00002010B50D4B1B68834209D10B4C09
:1023F0000823E35E8B4204D123465B68934200D1FD
:1024000010BD064B186019815A60054B1B78002BD4
:1024100002D10123034C237000BFF1E74C060020DA
:10242000220000202E000020642800D964200649E4
:10243000097C814200D17047034908740121034A95
:10244000117000BFF7E700004C0600202E000020AE
:1024500010B519480078002811D0002016490870DE
:102460001649087016490870164908701649088000
:10247000164908700120164908701649087013485B
:10248000007800280BD00020104908701048007810
:10249000012148400E49087001200E4908700D487E
:1024A0000078002804D000200A49087002F0F8FAE9
:1024B000FFF716FE10BD00002C00002022000020B7
:1024C00023000020240000202600002028000020F7
:1024D0002D0000202E00002019480078002817D079
:1024E000184800887D21C900884204D21548008818
:1024F000401C14490880134800887D21C900884287
:1025000009D300200F49088001200F49087002E01C
:1025100000200C4908800D480078002800D1704741
:102520000B480088401C0A49088008460088322869
:1025300004D30020088001200649087000BFEEE7A0
:10254000220000202A0000202C0000202300002070
:10255000260000202800002008B500BF0E48406972
:10256000012108430C49486108464069C007C00F73
:10257000009000BF00BF002211460A20FEF772FC47
:102580000A20FEF761FC002211460B20FEF76AFCD0
:102590000B20FEF759FC08BD0010024010B50B4897
:1025A0000B4908600B48486000210948816063219D
:1025B000C16000210161416180218161FFF702F961
:1025C000002801D0FEF775F910BD0000004401405D
:1025D0005C0000201F03000010B50B480B49086089
:1025E0000B4848600021094881606321C1600021D7
:1025F0000161416180218161FFF7E4F8002801D089
:10260000FEF757F910BD000000480140A40000206B
:102610001F03000000BFFEE770470000FEB5044640
:1026200000BF2248009000980078532801D000F0A5
:1026300053FD00BF0027FF2069460871102C30D2DF
:102640001B48005D4871194D1835EFF3108000905C
:10265000012080F3108800BF00BF287D8007800F15
:10266000022807D113480470022201A9284600F06D
:1026700079FD0FE0284600F067FD0646022E07D3DD
:102680000C480470022201A9284600F0AAFD01E0CE
:102690000027FF430098C0B280F3108800BF00BF3E
:1026A00001E00027FF433846FEBD0000EC0000209B
:1026B0005851000814000020F8B504460D4616468F
:1026C00000BF0E4F3878532801D000F005FD00BF41
:1026D000EFF310800746012080F3108800BF00BF91
:1026E00032462946204600F00BF80090F8B280F3FD
:1026F000108800BF00BF0098F8BD0000EC0000206B
:10270000F7B582B007461646039801901820784323
:102710001B494018009000984069002804D0012807
:1027200011D0022826D11EE0009800F00DFD0546CC
:10273000B54201D2002405E03446324601990098A2
:1027400000F04FFD18E0009800F0FEFC0546B54291
:1027500001D2284600E030460446224601990098FE
:1027600000F03FFD08E032460199009800F0FAFCC5
:10277000044601E0002400BF00BF204605B0F0BDC4
:102780000401002070B505460C462046FDF727FDE4
:102790000646324621462846FFF78EFF70BD704739
:1027A00010B5FEF7EBFA10BD00B595B0302109A8C1
:1027B000FDF70AFD00200590069007900890019013
:1027C000029003900490012009900A90002011903B
:1027D00009A8FEF713FD002801D0FEF76AF80720CC
:1027E000059001200690002007900890002105A880
:1027F000FEF7EAFB002801D0FEF75BF8012001900C
:102800000020039001A8FEF737FB002801D0FEF757
:1028100050F815B000BD704710B50248FFF77FF8BB
:1028200010BD00005C00002010B50248FFF777F8EB
:1028300010BD0000A400002010B50248FFF736F8D4
:1028400010BD0000A400002010B50268244B98427F
:1028500002D0244B984205D170241346A3431A4654
:102860004B681A431E4B98420ED01E4B98420BD019
:102870001D4B984208D01D4B984205D01C4B9842E6
:1028800002D01C4B984206D1032424021346A343D2
:102890001A46CB681A4380241346A3434C6923434A
:1028A0001A4602608B68C3620B6883620C4B9842C5
:1028B00008D00E4B984205D00D4B984202D00D4BDC
:1028C000984201D10B690363012343610369DB076C
:1028D000DB0F002B03D003695B085B00036110BDB5
:1028E000002C014000040040002000400040014056
:1028F00000440140004801400822416A1140082973
:1029000007D10168496812039143426B1143026881
:102910005160818CC907C90F002908D00168496836
:10292000012252049143826A1143026851600222DB
:10293000416A1140022907D101684968D2039143D5
:10294000C26A1143026851600422416A114004299D
:1029500007D10168496812049143026B1143026870
:1029600051601022416A1140102907D1016889681D
:1029700012029143826B1143026891602022416AE6
:102980001140202907D10168896812029143C26B66
:102990001143026891604022416A1140402915D1DB
:1029A0000168496892039143026C114302685160C7
:1029B00001221205016C914208D101684968032285
:1029C00052059143426C1143026851608022416A72
:1029D0001140802907D10168496812039143826C34
:1029E0001143026851607047F8B504460021842005
:1029F0000151FEF7BDF9054620680068082108402E
:102A0000082823D137482B4600228904009020460D
:102A100000F0FEFA002819D000BF00F09BFC06462B
:102A2000012000F0A9FC206800688021884321680B
:102A30000860304600F0A0FC00BF2020E06700BF27
:102A400000217820015500BF0320F8BD20680068F0
:102A500004210840042836D122482B4600220905CB
:102A60000090204600F0D4FA00282CD000BF00F0DF
:102A700071FC0646012000F07FFC20680068FF2101
:102A80002131884321680860304600F075FC00BFA2
:102A900000BF00F05FFC0646012000F06DFC2068DE
:102AA00080684008400021688860304600F064FC7F
:102AB00000BF20218020015100BF00217820015556
:102AC00000BF0320C1E72020E067202180200151C2
:102AD00000202066606600BF00217820015500BFFD
:102AE0000020B2E7FFFFFF0170B505466C6A0021C8
:102AF0005A200153522001532046FFF75DF870BD64
:102B0000F8B505466C6AE66F802007592068806832
:102B100080210840802807D1212E05D10021522094
:102B20000153204600F01FF92068806840210840CA
:102B3000402807D1222F05D100215A2001532046D9
:102B400000F0B6F884200059102108438421085170
:102B50002046FFF731F8F8BD70B505466C6AA869E4
:102B600020284DD000215A20015300BF00F0F2FB75
:102B70000646012000F000FC20680068FF210131BA
:102B8000884321680860304600F0F6FB00BF00BFB4
:102B900000F0E0FB0646012000F0EEFB20688068B4
:102BA0004008400021688860304600F0E5FB00BF27
:102BB00000BF00F0CFFB0646012000F0DDFB2068DF
:102BC00080684021884321688860304600F0D4FB4B
:102BD00000BF202180200151206E012810D100BFAC
:102BE00000F0B8FB0646012000F0C6FB2068006834
:102BF0001021884321680860304600F0BDFB00BF0B
:102C000000206066206E012805D15820015B204617
:102C1000FEF7A6FF02E02046FFF7E6F970BD70B5AB
:102C200005466C6A01206066206E012806D1582096
:102C3000005B41082046FEF793FF02E02046FFF7C5
:102C4000D4F970BD70B505466C6AA869202824D0F7
:102C500000215220015300BF00F07CFB06460120FA
:102C600000F08AFB206880688021884321688860A2
:102C7000304600F081FB00BF00BF00F06BFB064652
:102C8000012000F079FB206800684021084321689A
:102C90000860304600F070FB02E02046FFF70AFAB9
:102CA00070BD70B50446656A2846FFF70FFA70BD1F
:102CB00070B5044600BF00F04DFB0546012000F052
:102CC0005BFB20680068FF21213188432168086090
:102CD000284600F051FB00BF00BF00F03BFB05465B
:102CE000012000F049FB206880684008400021680E
:102CF0008860284600F040FB00BF206E012810D1FC
:102D000000BF00F027FB0546012000F035FB2068DE
:102D100000681021884321680860284600F02CFBD9
:102D200000BF20218020015100202066A06670BDD8
:102D300070B5044600BF00F00DFB0546012000F011
:102D40001BFB2068006840218843216808602846F2
:102D500000F012FB00BF2020E0670020E066204664
:102D6000FFF7A8F970BD70B5044600BF00F0F2FA95
:102D70000546012000F000FB20680068C021884360
:102D800021680860284600F0F7FA00BF2020E067BD
:102D900070BD0000FEB50446002000902169A068C7
:102DA000084361690843E1690843029020680068AC
:102DB0005A49084002990843216808602068406821
:102DC000032109038843E168084321684860A0693A
:102DD0000290206A029908430290206880680B21C3
:102DE00009028843029908432168886000BF4C4962
:102DF0002068884217D14B48006B8007800F00285D
:102E000006D0012808D0022808D0032808D101E004
:102E1000002707E0022705E0042703E0082701E078
:102E2000102700BF06E040492068884201D10027F2
:102E300000E0102700BF0121C903E069884239D1B1
:102E4000002F06D0022F08D0042F08D0082F0DD154
:102E500009E0FEF775F905460CE0344D0AE0FEF78F
:102E600081F9054606E00125ED0303E00025012078
:102E7000009000BF00BF002D4AD06A0063685B0865
:102E8000D0186168FDF730F90646102E0FD3284898
:102E900086420CD826480F38304001903007400F4A
:102EA00001990843019001982168C86030E0012031
:102EB00000902DE0002F06D0022F08D0042F08D05C
:102EC000082F0DD109E0FEF73BF905460CE0174D40
:102ED0000AE0FEF747F9054606E00125ED0303E0A9
:102EE00000250120009000BF00BF002D10D06168B8
:102EF0004A085019FDF7F8F80646102E06D30C487C
:102F0000864203D8B0B22168C86001E00120009079
:102F10000020A066E0660098FEBD0000F369FFFF98
:102F200000380140001002400044004000127A00C6
:102F3000FFFF0000F8B504460E46154666655820AA
:102F40000553002184200151222180200151606F0E
:102F500000281DD02B48616F88622B48616FC862C2
:102F60002A48616F08630020616F4863236819462F
:102F700024312B46626D606FFDF79AFD002807D063
:102F80001021842001512021802001510120F8BD11
:102F90002069002811D000BF00F0DCF907460120AD
:102FA00000F0EAF920680068FF2101310843216838
:102FB0000860384600F0E0F900BF00BF00F0CAF931
:102FC0000746012000F0D8F92068806801210843F5
:102FD00021688860384600F0CFF900BF00BF00F0DC
:102FE000B9F90746012000F0C7F920688068402140
:102FF000084321688860384600F0BEF900BF002011
:10300000C5E70000592B00081F2C0008012B000801
:10301000FFB581B004460D4617460A9E46E0701C77
:10302000002843D0FDF7A4FE0499401AB04201D80D
:10303000002E02D1032005B0F0BD206800680421F5
:103040000840002832D0802D30D0402D2ED020686E
:10305000C06908210840C00800280FD00820216856
:1030600008622046FFF724FE08218420015100BF9A
:1030700000217820015500BF0120DCE72068C069ED
:103080000121C9020840C00A00280FD00846216863
:1030900008622046FFF70CFE20218420015100BF6A
:1030A00000217820015500BF0320C4E72068C069D3
:1030B0002840A84201D1012000E00020B842AED053
:1030C0000020B8E710B50248FEF778FD10BD0000FB
:1030D000600600207047000070B5144CA8212046FF
:1030E000FDF772F803202061606111A0A06113490F
:1030F000E1610121890221620021A1626162E16234
:103100000BA020660E4961661021A166002121678F
:10311000E1666167002505E00F20401B0949085C56
:1031200060556D1C102DF7D370BD0000EC00002021
:103130005465726D696E616C00000000940100209E
:10314000940500206851000810B501460A69CB6853
:103150009A4204D88C68641EE41AA01801E0D41ABC
:10316000601E10BDF7B584B00446174600200390DA
:10317000E56800BF206902900298A84203D902982E
:10318000401B461E04E0A1680298281A401C0E1A33
:10319000A068401BB04201D9304601E0A068401B46
:1031A0000646BE4201D2304600E038460646606818
:1031B00040190190324605990198FCF7ECFF0398FD
:1031C00080190390059880190590BF1BAD19A06860
:1031D000A84200D10025E560002FCBD1039807B0AD
:1031E000F0BDF7B582B004461546E668A068871BB7
:1031F000AF420AD96068801900902A460399009866
:10320000FCF7C9FF7019E06014E00197606880194D
:103210000090019A03990098FCF7BDFFE81B01900C
:10322000606800900398C119019A0098FCF7B3FFF9
:103230000198E06005B0F0BD0FB410B504A9074BCC
:1032400002AA039800F058F9044602A9002000F0F1
:10325000F1FC204610BC08BC04B01847353C0008FF
:103260002021020C01D010211046020A01D0104684
:103270000839020901D01046091F820801D0104602
:10328000891E420801D0881E7047081A7047F8B599
:1032900082B28BB2040C0D0C104658430021264616
:1032A0005E43370C36048019794116466E43370C5D
:1032B00036048019794126466E438919F8BD30B429
:1032C0007446641E2578641CAB4204D3635D5B00C6
:1032D000E31830BC18471D46F8E7000010B5002879
:1032E00019DB1A4A03231B02D21883089B00D25809
:1032F0008307DC0EFF23A3409A438B071B0E840732
:10330000E40EA3401A43114B032424021B19840822
:10331000A4001A5118E00E4A03071B0F083B9B0834
:103320009B00D2588307DC0EFF23A3409A438B07F0
:103330001B0E8407E40EA3401A43054B0407240F19
:10334000083CA408A4001A5110BD000000E100E0F0
:103350001CED00E0EFF31080704702E008C8121F78
:1033600008C1002AFAD170477047002001E001C16E
:10337000121F002AFBD1704780F31088704780F33A
:1033800010887047F0B51FB486B00998089A030DED
:103390000021024314D05148514A181850430514D3
:1033A0001198012810981AD0281A401C00264D4F59
:1033B0004D49009601910490002812DA444211E030
:1033C0001198012449A3012801D11098C1430698FE
:1033D000119A84600360C26041600BB0F0BD40424E
:1033E000E4E70446210500203F4A001C51410391B7
:1033F000029012E0E00707D032463B460199009860
:10340000FDF746F90191009032463B4610461946B9
:10341000FDF73EF906460F466410002CEAD10498E9
:10342000039B0028029A0999089806DAFDF730F9FB
:10343000019B009AFDF72CF905E0FCF715FF019BB5
:10344000009AFCF711FF04460E460022284BFDF7B8
:10345000A7F903D80020C043014607E00022254B0E
:1034600020463146FDF760F8FDF77AF9102409E0AF
:10347000002C0ADB0A220023FCF74CFE079B3032AB
:103480001A55641E02460A43F2D11122641C079B9E
:10349000121B1C19119B012B03D0012308430ED1D1
:1034A0000AE0084304D0112010900020119077E723
:1034B0001098151A6D1E0BE01098824202DD002351
:1034C0006D1C03E0824201DA00236D1E002BEED05A
:1034D000069811998260C16030C07EE701FCFFFF51
:1034E000104D0000000014400000F03F30000000CC
:1034F0000000F0430000E03FFFB597B0064600250E
:103500001BE2252876D100242746F749049400E0E1
:103510000443761C32780120203A90400842F7D1CB
:1035200030782A280ED00222307801463039092915
:1035300016D804990A235943303940181443761C8D
:103540000490F1E7189802C804911890002904DA51
:103550000120400304434842049002200443761CA7
:1035600030782E2814D1042004437078761C2A2841
:1035700009D11898761C80C8189009E00A214F4399
:10358000303FC719761C3078014630390929F5D902
:1035900030786C2810D006DC4C281AD068280ED061
:1035A0006A2817D104E0742813D07A2812D110E0C9
:1035B0000120400504430CE00121090501E003213D
:1035C00009050C437178814203D1012000052418BC
:1035D000761C761C307866280BD013DC58287DD0FA
:1035E00009DC00287BD04528F6D04628F4D04728AF
:1035F0001AD1A9E118E0632835D0642870D0652875
:1036000012D1A1E170286CD008DC6728F1D06928BC
:103610007DD06E280DD06F2806D1BCE073282ED047
:10362000752873D0782859D01A9A199990476D1C2B
:1036300082E16002400F022809D003280DD004283F
:10364000189801680DD00D60001D189074E118984D
:10365000EA1701680D604A60F6E7189801680D8066
:10366000F2E70D70F0E718986A4601781172001DB4
:1036700018900020507202A80090012005E01898D0
:1036800002C8189000200091C04361070ED50021A8
:1036900001E00199491C0191B94213DA8142F8DB3A
:1036A000019A0099895C0029F3D10BE0002101E027
:1036B0000199491C01918142FADB019A0099895CC8
:1036C0000029F5D1019904981A9B471A21463846DA
:1036D000199A00F099FA4019019903E051E030E19C
:1036E00015E050E0451807E0009800990078491C63
:1036F00000911A9A199990470198401E0190401C18
:10370000F2D1214638461A9B199A12E137E00A2075
:103710000021009001916002410F022907D0189A00
:1037200001CA1892C2179446032908D00AE01898D3
:10373000C01DC108C90005C91891944607E000B230
:10374000C2179446042902D140B2C1178C46002208
:103750006146944506DA0A460021404291418C4672
:103760002D2102E0210504D52B216A461173012188
:1037700003E0E10701D02021F7E7029156E00A209B
:103780000AE0102008E010200090002104200443EB
:103790000191082703E008200021019100906002B8
:1037A000410F022907D0189A01CA189200229446A4
:1037B000032908D008E01898C01DC108C90005C930
:1037C0001891944603E080B2042900D1C0B20021D0
:1037D000029121072AD531780D91702906D0009ADF
:1037E0001021019B4A401A4305D00EE040216A4651
:1037F0001173012108E06146014306D030216A4679
:1038000011730D99517302210291009A0821019BB5
:103810004A401A430AD16146014301D1610705D5E7
:1038200030216A46117301217F1E02913178582997
:1038300004D02EA10E910DA90D910DE030A1F9E754
:103840006146019B009AFCF765FC0E9B8C469B5CD5
:103850000D9A521E0D92137061460143F0D10D98DE
:1038600005A9081A20300190600703D50120000443
:10387000844300E001270198874201DD381A00E007
:103880000020019900904118029809180498401AE4
:103890000490E00306D421461A9B199A049800F07C
:1038A000B3F94519002706E003A81A9AC05D1999D3
:1038B00090476D1C7F1C02988742F5DBE0030CD516
:1038C00021461A9B199A049800F09EF9451904E0C4
:1038D0001A9A3020199990476D1C0099481E009043
:1038E0000029F5DC1FE000000928010030313233E7
:1038F000343536373839616263646566000000002C
:103900003031323334353637383941424344454615
:10391000000000000D980D990078491C0D911A9A2D
:10392000199990476D1C0199481E01900029F1DCFE
:103930004DE100F059F94519761C3078002800D087
:10394000DFE528461BB0F0BD600700D406271898B5
:10395000C01DC108C90048680A680831C30FDB07E9
:103960001891190001D09CA108E0210501D59BA167
:1039700004E0E10701D09AA100E09AA14300109170
:1039800030785B0865280CD006DC452809D046282D
:103990001DD0472841D141E0662818D067283CD186
:1039A0003CE00021112F01DB112000E0781C019187
:1039B000009008A911A8FFF7E5FC139905910021D3
:1039C000119A15927F1C12980197009150E00120E6
:1039D000C00703900120019008A9009711A8FFF7E4
:1039E000D1FC139A149905920022119B009212980F
:1039F0001593059A0192002901D0104602E0791C26
:103A000040180190381A01D5019804E04042401E48
:103A10000090781C0190C01B029043E0012F00DA57
:103A200001270021112F01DD112000E0384601910E
:103A3000009008A911A8FFF7A5FC13990591119A08
:103A40000021129815920091019721070CD4059935
:103A5000B94201DB019900E00191012904DD159AC9
:103A6000491E515C302906D0B84201DA011D05DA41
:103A70000121029115E00199491EEDE7002805DCBE
:103A80000099411800910199091A03E0019A411C1B
:103A9000914200DD01910099401A401C02900120E2
:103AA000C0070390200706D402990198814202DBE7
:103AB0000020C043029000206946C87707AF01216B
:103AC00003980337C907884224D0022011902B2085
:103AD0001290039800280CDA404203902D20129097
:103AE00007E00A210398FCF7FFFA30317F1E0390AC
:103AF00039701199481E11900029F2DC03980028B2
:103B0000EFD1791E12980870307820210840453096
:103B1000BF1E387006A8C01BC01D03901098007807
:103B2000002800D00120019941180298C0170918F7
:103B3000039809180498401A401E0490E00306D424
:103B400021461A9B199A049800F05EF845191098BE
:103B50000078002803D01A9A199990476D1CE00349
:103B600024D521461A9B199A049800F04DF845195E
:103B70001CE00098002807DB00990598884203DDC7
:103B80001598405C199901E0199930201A9A9047CC
:103B900000986D1C401C00900298401E0290002866
:103BA00004D11A9A2E20199990476D1C0199481E2C
:103BB00001900029DDDC05E038781A9A7F1C1999FC
:103BC00090476D1C0399481E03900029F4DC2146A0
:103BD0001A9B199A0498ACE62D0000002B000000F7
:103BE0002000000000000000F8B5044600251E4635
:103BF0001746880404D405E039462020B0476D1CE0
:103C0000641EF9D52846F8BDFFB50446002581B0ED
:103C10001E46C80301D5302700E02027880404D5BC
:103C200005E038460399B0476D1C641EF9D5284657
:103C300005B0F0BD0A68531C0B601070704700009F
:103C4000FCB50146032214023025802604274020BB
:103C50000190082000900846372930D009DC2D3823
:103C60000300FFF72CFB0A414444191C1E202326A5
:103C70002944482831D008DC382822D0392823D0DC
:103C8000412824D0462832D124E04E282AD04F287B
:103C900003D057282BD123E000BFFF20FCBD0C2010
:103CA000FCE71448FAE713483838F7E7E3208000C8
:103CB000F4E710484430F1E70E488430EEE70F2077
:103CC000ECE70C488830E9E70A484830E6E709485D
:103CD0005830E3E707484C30E0E7F3208000DDE7A9
:103CE0000548DBE70548D9E703200002D6E70020B6
:103CF000D4E7000077030000CCA00000CC24000033
:103D00007CB505466946284600F0F6F9002407E030
:103D10006846015D0122204600F020F8601CC4B214
:103D2000052CF5D37CBDF8B505462846FCF757FAB7
:103D3000C7B200240FE00520C01B201A46B2002E97
:103D400001DBA85D00E0202001460122204600F0B2
:103D500005F8601CC4B2052CEDD3F8BDF8B50546D6
:103D60000E461746052D00D3F8BD002F03D0304670
:103D7000FFF766FF00E000200090002412E06A01D7
:103D80000A4BD2186300D05A0122A240009B1A406D
:103D9000002A01D0012200E00022114600F0BFFFFE
:103DA000601CC4B2102CEAD300BFDDE7DE5100086E
:103DB00070B50025002400BF4EE00025204600F02D
:103DC000B7F9054608202840002811D0244800688B
:103DD000002803D02046224909688847200121494C
:103DE0004018C0790821884321011E4A8918C871EA
:103DF00010202840002811D01B480068002803D05C
:103E00002046194909688847200116494018C07999
:103E1000102188432101134A8918C87102202840C3
:103E2000002809D020010F494018C0790221884399
:103E300021010C4A8918C87104202840002809D0A3
:103E4000200108494018C079042188432101054A0E
:103E50008918C871601CC4B2042CAEDB70BD0000B0
:103E600018000020B80500201C000020F0B589B023
:103E70000020089085480088002814D184480078E4
:103E80008449087006218348FCF7C4FC0446814934
:103E90008C712012C87108217E4801F033F801208E
:103EA0007A490880EFE07C4800780128FAD17B4805
:103EB0000078002811D1FEF7B1FB79A10020FEF7B0
:103EC00061FC73480088401C7149088008460088DE
:103ED000EC2801DDE1200880CEE08022744975489D
:103EE00000F01CFC0746B81EC1B27148FCF792FCFA
:103EF00004462112781E6E4A105C81427ED1E1B2E6
:103F0000B81E105C8142F9D11B2FF7D100206A49FD
:103F100008601046C0780860084600680002114634
:103F20000979401864490860084600680002114693
:103F30004979401860490860084600680002114647
:103F4000897940185C49086008460068FCF704FA63
:103F50000590FCF708FA0022584B07910690FCF7F1
:103F600083F90546FCF713FA5549086000205249C9
:103F700008604F48C07908600846006800024C4954
:103F8000097A40184C490860084600680002484910
:103F9000497A4018484908600846006800024449C8
:103FA000897A40184449086008460068FCF7D4F94B
:103FB0000590FCF7D8F905460022404BFCF754F970
:103FC00007910690FCF7E3F93E49086000203A4962
:103FD00008603748407B08600846006800023449A2
:103FE000897B40183449086008460068FCF7B4F93A
:103FF00005468321C905FCF7F9F800E02AE03249BB
:10400000086008460068FCF7AEF905460E462D48E4
:104010000068FCF7A8F90791069029480068FCF7AA
:10402000A2F90396029505910490079906980191CB
:10403000009026A12B48059B049AFFF7FDF8C0B21B
:1040400008900020FEF7EAFA26490020089AFEF7B9
:1040500033FB11E00020FEF7E1FA23A10020FEF778
:1040600091FB0B480088401C0949088008460088DD
:10407000EC2801DDE1200880002007490870034991
:1040800008800649087009B0F0BD00003A00002021
:1040900050000020520000203C0000203000002092
:1040A00079777920635F6572726F72210D0A000063
:1040B000940D0020700700204C0000200000F0400C
:1040C0004000002044000020480000207977793A21
:1040D000252E32662C20252E32662C20252E326687
:1040E0000D0A0000140E0020797779206572726F36
:1040F00072210D0A0000000070B505460E460B48FF
:10410000854200D9054604240CE00A212846FBF725
:10411000EBFF303131550A212846FBF7E5FF054614
:10412000601E44B2002CF0DA70BD00009F860100D2
:1041300070B504460025204600F0DAFB0546012D47
:104140002DD1200134494018007A012821D12001C5
:104150004018407A401C21012F4A891848722001DA
:1041600011464018407A21018918897A88424DDB2E
:104170000020210189184872210189180872200144
:1041800011464018C0790221084321018918C871DD
:104190003CE000202101204A8918487236E02001C5
:1041A0001D494018007A00282BD120014018407A80
:1041B000401C2101184A89184872200111464018F4
:1041C000407A21018918897A88421FDB0020210169
:1041D00089184872012021018918087220011146AE
:1041E0004018C0790421084321018918C8712001B1
:1041F00011464018C0790821084321018918C87167
:1042000004E000202101044A891848722001024973
:104210004018C07970BD0000B805002008B500BF87
:104220002248406901218904084320494861084621
:104230004069012189040840009000BF00BF00BF11
:104240001A484069084319494861084640690121F4
:1042500089040840009000BF00BF00BF13484069B8
:104260000843124948610846406901218904084011
:10427000009000BF00BF01200D4948600220886007
:104280000120C860800208600A48FCF75FFC01203A
:10429000C002074908600748FCF758FC01200003EA
:1042A000034908600348FCF751FC08BD00100240B8
:1042B000380600200004004810B504460020FDF731
:1042C00063FF0321042000F020F8E005C00D092160
:1042D00000F01BF80120FDF757FFFDF775FF10BD3B
:1042E00010B504460020FDF77BFF002C01D0012112
:1042F00000E000210846FDF757FFFDF765FF0120AC
:10430000FDF76EFFFDF760FF10BD70B506460C4669
:10431000601E45B207E031462941C807C00FFFF7CC
:10432000DFFF681E45B2002DF5DA70BD70B5054699
:10433000002407E029462141C807C00FFFF7D0FF3E
:10434000601CC4B2042CF5D370BD70B505460C4694
:104350006806060E0020FDF717FF03210520FFF772
:10436000D4FF06213046FFF7D0FF2007000FFFF7EC
:10437000DDFF2106080FFFF7D9FF0120FDF704FF3D
:10438000FDF722FF70BD000010B50446002C08D1D7
:10439000FEF744F914A10020FEF7F4F90020FDF720
:1043A00085FF012C09D10020FEF738F912A1002069
:1043B000FEF7E8F90120FDF779FF022C09D1002072
:1043C000FEF72CF910A10020FEF7DCF90220FDF722
:1043D0006DFF032C06D10020FEF720F90EA100206E
:1043E000FEF7D0F910BD00004B6579315F434C49B1
:1043F000434B0D0A000000004B6579325F434C4986
:10440000434B0D0A000000004B6579335F434C4974
:10441000434B0D0A000000004B6579345F434C4963
:10442000434B0D0A0000000001490860704700007E
:104430001800002010B50446002C05D1FEF7EEF858
:104440000FA10020FEF79EF9012C06D10020FEF7F7
:10445000E5F80FA10020FEF795F9022C06D1002007
:10446000FEF7DCF80EA10020FEF78CF9032C06D134
:104470000020FEF7D3F80EA10020FEF783F910BD4F
:104480004B6579315F445F434C49434B0D0A000053
:104490004B6579325F445F434C49434B0D0A000042
:1044A0004B6579335F445F434C49434B0D0A000031
:1044B0004B6579345F445F434C49434B0D0A000020
:1044C00001490860704700001C00002008B500BFCB
:1044D0002B4840690121890408432949486108465D
:1044E0004069012189040840009000BF00BF00BF5F
:1044F0002348406908432249486108464069012130
:1045000089040840009000BF00BF00BF1C484069FC
:1045100008431B4948610846406901218904084055
:10452000009000BF00BF00BF154840690843144910
:10453000486108464069012189040840009000BF95
:1045400000BF00200F494860012088600320C86038
:10455000102008600C48FCF7F9FA2020094908608F
:104560000948FCF7F3FA4020064908600648FCF7C2
:10457000EDFA8020034908600348FCF7E7FA08BD1C
:1045800000100240A40500200004004810B5FFF709
:104590009DFF00F039F810BD70B5002801DD04283A
:1045A00000DD70BD441E2401164D2951441E240116
:1045B0006419A280441E24016419A3710125441EBC
:1045C0002401104EA419E571441E2401A41925727A
:1045D0000025441E2401A41965720225441E2401ED
:1045E000A419A5720025441E2401A419E572441ED5
:1045F0002401A41925731E25441E2401A4196573E2
:1046000000BFCEE7B805002010B5002310220B49EB
:104610000120FFF7C1FF0023202208490220FFF7F5
:10462000BBFF0023402205490320FFF7B5FF00230D
:10463000802202490420FFF7AFFF10BD00040048AC
:1046400000B587B000BF00BF204840690121890440
:1046500008431E4948610846406901218904084011
:10466000019000BF00BF00BF00BF00BF17484069F6
:1046700008431649486108464069012189040840F9
:10468000019000BF00BF00BF88120290012003907C
:1046900004900320059002A90D48FCF757FA012069
:1046A0004002029002A90A48FCF750FA00BF01221A
:1046B00011020748FCF755FB00BF00BF0122510261
:1046C0000348FCF74EFB00BF07B000BD00100240DE
:1046D00000040048016082800023C380038170478A
:1046E0000246501C82B28A4201DB0020704710460D
:1046F000FCE770B504460D46A1882089FFF7F0FF5E
:1047000006462089E188884201D1002070BD2189B8
:104710002068405C287026810120F7E7F8B507463D
:104720000D461646002400BF08E029193846FFF759
:10473000E0FF002800D103E0601C84B2B442F4DB47
:1047400000BF2046F8BD70B504460D46A188E0883C
:10475000FFF7C6FF06462089B04201D1002070BD98
:10476000E18820684554E6800120F8E7F8B507465F
:104770000D461646002400BF08E0295D3846FFF7C5
:10478000E2FF002800D103E0601C84B2B442F4DBF5
:1047900000BF2046F8BD0000FCF7FCFAFEF704F865
:1047A000FDF7DAFEFDF718FFFDF7F8FEFEF744F817
:1047B000FFF734FDFFF7EAFEFFF742FFFDF740FD8C
:1047C0004B20C00100F0D4FB0020FDF727FF1BA108
:1047D0000020FDF7D7FF1D48FFF726FE1C48FFF716
:1047E0006FFE8022FE211B48FDF7FCFD00211A48C8
:1047F000FDF7E0FD4120FDF717FE1EE0FFF736FB59
:1048000000F090FB8022FE211248FDF7EBFDFDF742
:104810001FFE1248007801280FD100BF0102104886
:10482000FCF795FA00BF00BF012149020C48FCF7D4
:104830008EFA00BF002009490870DFE750726F6AE6
:104840006563742053746172740D0A008943000813
:1048500035440008FB020000D204000000000020E4
:10486000000400480B480088012812D10A4800784B
:1048700000280ED109480088401C084908800846D5
:104880000088462805DD01200349087000200349FF
:10489000088070473A0000203C0000205A000020A9
:1048A00010B5032105480078401CFBF71DFC0348A8
:1048B000017001200249087010BD00002200002094
:1048C0002E00002008480078002803D10220064965
:1048D000087004E004480078401E03490870012075
:1048E0000249087070470000220000202E000020BE
:1048F00070B5044622010D4BD218918822019858B8
:10490000FCF71CFA05462001084940188079002868
:1049100005D1002D01D1012070BD0020FCE7002D44
:1049200001D10020F8E70120F6E70000B8050020DB
:1049300010B519480078002803D0184800780028DE
:1049400001D0012000E0002004461549497C0029DF
:1049500001D014A100E014A10846214600F0AEFAEF
:104960000021502000F0DBF910A0FFF7DCF9012254
:1049700020210F4800F024FA012220210C480E309B
:1049800000F01EFA00219F2000F0C9F900216020EC
:1049900000F0C5F910BD0000230000202D0000200C
:1049A0004C0600204F4E00004F464600574841003D
:1049B000C2510008FEB537480068002801DA00201F
:1049C00001E034480068064632484068002801DAB1
:1049D000002001E02F48406807462E480825455F23
:1049E0002D48864200D906462B48874200D9074603
:1049F00001A93046FFF780FB0021C94301A800F060
:104A000043FA0121502000F08AF93846FFF778F97F
:104A10000121542000F083F90021572000F07FF994
:104A20000021562000F07BF90021552000F077F995
:104A3000002D06DA684284B201219F2000F06FF950
:104A400004E0ACB200219F2000F069F90A21601D4A
:104A5000FBF74AFB84B2632C00D963240A21204669
:104A6000FBF742FB3030C0B20122014600900B48F8
:104A700000F0A6F90A212046FBF736FB303101226F
:104A800006480E30009100F09BF90121602000F0F3
:104A900046F9FEBD4C0600209F860100C251000869
:104AA00010B5FDF715FB0B480078002804D001284D
:104AB00005D0022809D105E0FFF77CFF06E000F0F1
:104AC00035F803E0FFF734FF00E000BF00BF00F05F
:104AD00003F810BD2200002070B51248067C642E39
:104AE00000D96426002E01D1002508E031461422A9
:104AF0005143084663306421FBF7F6FAC5B200243F
:104B00000CE0AC4201DA012200E000221146620012
:104B1000054B985A00F003F9601CC4B2142CF0D372
:104B200070BD00004C0600207E5200081CB5002419
:104B3000E4431849C8686946FFF7DEFA164800786A
:104B4000002808D015480078002804D114480078BF
:104B50000421081A44B22146684600F095F9002164
:104B6000502000F0DCF80FA0FFF7DDF80122202133
:104B70000D4800F025F9012220210B480E3000F0ED
:104B80001FF900219F2000F0CAF80021602000F0EA
:104B9000C6F81CBD4C060020230000202D0000207C
:104BA0002400002057484100C25100080146488AAD
:104BB0008A8A904201D1012070470020FCE701461B
:104BC000488A8A8A904207DB488A8A8A801A0A8A37
:104BD000101A401E80B27047888A4A8A801A401E86
:104BE00080B2F8E70146C8880A89904207DBC88886
:104BF0000A89801A8A88101A401E80B27047088974
:104C0000CA88801A401E80B2F8E730B5039C016064
:104C100082800025C5800581C3600482458285822B
:104C200030BDF8B504460E46002C01D0002E01D14F
:104C30000020F8BD00F072F92046FFF7B7FF00280A
:104C400003D000F06DF90020F3E7A18A4900E06885
:104C5000475AA08A401CA082A08A218A884201DB90
:104C60000020A08200250EE021892068405C70555C
:104C70002089401C20812089A188884201DB0020F6
:104C80002081681C85B2BD42EEDB00F049F9384650
:104C9000CFE7F8B504460F461546002C03D0002F89
:104CA00001D0002D01D10020F8BDFF200130854248
:104CB00001DD0020F8E700F031F92046FFF792FF10
:104CC000A84204DB2046FFF77AFF002803D100F05A
:104CD00027F90020E8E700260EE0B85DE2882168A9
:104CE0008854E088401CE080E088A188884201DB8D
:104CF0000020E080701C86B2AE42EEDB618A490083
:104D0000E0684552608A401C6082608A218A88423D
:104D100001DB0020608200F003F90120C4E770B5D8
:104D200004460D466107490F6205100E2A46FDF73D
:104D300067FA70BD00B50146084637292CD009DC5A
:104D40002D380300FEF7BBFA0A383A3A191C1E2028
:104D50002224263A482829D008DC38281ED03928B1
:104D60001ED041281ED0462828D11DE04E281FD035
:104D70004F2803D06E2821D11CE000BF3F2000BD8A
:104D80000620FCE75B20FAE74F20F8E76620F6E70D
:104D90006D20F4E77D20F2E70720F0E77F20EEE7C3
:104DA0006F20ECE77720EAE77120E8E77620E6E776
:104DB0003720E4E75420E2E74020E0E70020DEE788
:104DC000F8B504460E461746002F03D03046FFF7CD
:104DD000B1FF00E000200546E907C90F2088FFF772
:104DE0009EFF02222A4051086088FFF798FF0422A4
:104DF0002A409108A088FFF792FF08222A40D10894
:104E0000E088FFF78CFF10222A4011092089FFF764
:104E100086FF20222A4051096089FFF780FF402247
:104E20002A409109A089FFF77AFFF8BDF8B512482A
:104E30000078052802D300200F4908700E4800783A
:104E400080000E490D580E48C46829462046FBF7DD
:104E50004BF907460A21FBF747F90E46092E03D303
:104E6000E8002818241A00E064190648844200D992
:104E700004460348C460F8BD24000020A85200087E
:104E80004C0600209F860100F8B505460E4600241A
:104E90000FE063B2B34201D0012300E000231A46C1
:104EA000295D0E236343044FD819FFF789FF601C67
:104EB000C4B2052CEDD3F8BD7C510008FEB5054603
:104EC0000E462846FBF78BF9C0B20190002414E08F
:104ED00005210198081A201A47B2002F01DBE85D6E
:104EE00000E0202000900E216143054A88183246D8
:104EF0000099FFF765FF601CC4B2052CE8D3FEBD26
:104F00007C51000870B504460D462A4621460248E9
:104F1000FFF7BFFE70BD00007C07002072B670472F
:104F200062B6704710B50E480078002800D010BD5A
:104F30000C490D48FFF775FE0446002C00D1F6E73A
:104F4000012007490870224606490848FDF74EF837
:104F5000002802D000200249087000BFE7E70000E7
:104F600038000020940C00207C0700206006002000
:104F700010B586B0044600BF5C4840690121490471
:104F800008435A49486108464069012149040840DC
:104F9000009000BF00BF00BF54488069C91008439B
:104FA00052498861084680690121890308400090C0
:104FB00000BF00BF00BF4D484069012108434B4975
:104FC000486108464069C007C00F009000BF00BF9D
:104FD0000120059002200290000201900120039020
:104FE0000320049001A90920C006FBF7AFFD0120B2
:104FF0008002019001A90920C006FBF7A7FD3C48EB
:105000003C490860084644600C214161002101616F
:10501000C16081608161FCF7A7FF374837490860AC
:10502000102048600021354841618021C160002185
:1050300081610161816001210903C161FBF70AFD02
:105040002D4814302E4908600020486000212C486B
:1050500041618021C1600021816101618160012184
:105060000903C161FBF7F6FC00BF2448214908672A
:1050700008462249486200BF00BF21481D494867D1
:1050800008461F49486200BF012200211B20FBF790
:10509000E9FE1B20FBF7D8FE002201210A20FBF7C6
:1050A000E1FE0A20FBF7D0FE012252021549164804
:1050B000FFF710FB0020154908704020144BC20078
:1050C000144900901448FFF7A0FD802213490948B5
:1050D000FCF701FD0748406F006800680421884321
:1050E0000449496F0968086006B010BD001002400D
:1050F00000380140600600201C0002402C07002000
:10510000E8060020940700207007002038000020E7
:10511000140C0020140A00207C07002094090020B1
:1051200002030405060708090A0B0C0D0E0F1010E8
:105130000102030405060708090A0B0C0D0E0F10E7
:105140000000000000000000010203040607080937
:1051500000000000010203043031323334353637A9
:105160003839414243444546000000000000545491
:105170005220524547474553000000007600750015
:10518000720070007100740073007E007D007A0070
:10519000780079007C007B0086008500820080001A
:1051A0008100840083008E008D008A0088008900C1
:1051B0008C008B0096009500920090009100940066
:1051C00093009E009D009A00980099009C009B000F
:1051D000A600A500A200A000A100A400A30000005A
:1051E00008000B000F000700060004000200030087
:1051F0000C00010009000A000E000D00050010005F
:1052000018001B001F0017001600140012001300E6
:105210001C00110019001A001E001D0015002000BE
:1052200028002B002F002700260024002200230046
:105230002C00210029002A002E002D00250030001E
:1052400038003B003F0037003600340032003300A6
:105250003C00310039003A003E003D00350040007E
:1052600048004B004F004700460044004200430006
:105270004C00410049004A004E004D004500A80086
:10528000A900AA00AB00AC00AD00AE00AF00B000BA
:10529000B100B200B300B400B500B600B700B8006A
:1052A000B900BA00BB000000010000000A000000C5
:1052B00064000000E80300001027000000C18140E6
:1052C00001C0804101C0804100C1814001C08041D6
:1052D00000C1814000C1814001C0804101C08041C6
:1052E00000C1814000C1814001C0804100C18140B6
:1052F00001C0804101C0804100C1814001C08041A6
:1053000000C1814000C1814001C0804100C1814095
:1053100001C0804101C0804100C1814000C1814085
:1053200001C0804101C0804100C1814001C0804175
:1053300000C1814000C1814001C0804101C0804165
:1053400000C1814000C1814001C0804100C1814055
:1053500001C0804101C0804100C1814000C1814045
:1053600001C0804101C0804100C1814001C0804135
:1053700000C1814000C1814001C0804100C1814025
:1053800001C0804101C0804100C1814001C0804115
:1053900000C1814000C1814001C0804101C0804105
:1053A00000C1814000C1814001C0804100C18140F5
:1053B00001C0804101C0804100C1814000C0C101E5
:1053C000C30302C2C60607C705C5C404CC0C0DCD75
:1053D0000FCFCE0E0ACACB0BC90908C8D81819D9E5
:1053E0001BDBDA1A1EDEDF1FDD1D1CDC14D4D51515
:1053F000D71716D6D21213D311D1D010F03031F105
:1054000033F3F23236F6F737F53534F43CFCFD3D34
:10541000FF3F3EFEFA3A3BFB39F9F83828E8E92924
:10542000EB2B2AEAEE2E2FEF2DEDEC2CE42425E5D4
:1054300027E7E62622E2E323E12120E0A06061A144
:1054400063A3A26266A6A767A56564A46CACAD6DF4
:10545000AF6F6EAEAA6A6BAB69A9A86878B8B97964
:10546000BB7B7ABABE7E7FBF7DBDBC7CB47475B594
:1054700077B7B67672B2B373B17170B05090915184
:105480009353529296565797559594549C5C5D9DB4
:105490005F9F9E5E5A9A9B5B9959589888484989A4
:1054A0004B8B8A4A4E8E8F4F8D4D4C8C4484854554
:1054B000874746868242438341818040DC5400080E
:1054C000000000205C0000005A3300083855000836
:1054D0005C000020DC1100006A33000800000000BE
:1054E00000000000040000000100000000127A002B
:1054F00000000000000000000000000000000000AC
:10550000000000000000000000000000000000009B
:10551000000000000000000000000000000000008B
:10552000000000000000000000000000E100000397
:085530000002000B0000000066
:04000005080000B53A
:00000001FF
