:020000040800F2
:1000000058120020CD000008012D00087D280008AE
:1000100000000000000000000000000000000000E0
:100020000000000000000000000000008B2E00080F
:100030000000000000000000052D00088D2E0008C3
:10004000DF00000800000000DF000008DF000008FB
:10005000DF000008DF000008DF000008DF00000804
:1000600000000000DF0000084D09000865090008D5
:10007000DF000008DF000008DF00000800000000CB
:10008000DF000008DF00000800000000DF000008BB
:10009000DF000008052F0008152F0008DF0000080A
:1000A000DF000008DF000008DF000008B1370008AB
:1000B000C13700080448854600F006FC00480047A8
:1000C00029520008C046C046581200200448804704
:1000D00004480047FEE7FEE7FEE7FEE7FEE7FEE72F
:1000E000032F0008B500000830B50B46014600207C
:1000F0002022012409E00D46D5409D4205D31D462E
:100100009540491B2546954040191546521E002D25
:10011000F1DC30BDF0B51FB40646002082B00546C4
:100120004024019100901BE0019922460F46304681
:1001300000F020F8049A059B801A994110D31046CC
:100140001946224600F0C0F9361A8F41019722461F
:1001500001200021009F00F0B7F938184D410090B0
:100160002046641E0028DFDC019B009829463246A9
:1001700007B0F0BD10B5202A04DB0846203AD04075
:10018000002110BD0B46D340D0402024A21A91403C
:100190000843194610BD03460B439B0703D009E0F3
:1001A00008C9121F08C0042AFAD203E00B780370B2
:1001B000401C491C521EF9D27047D2B201E00270B5
:1001C000401C491EFBD270470022F6E710B51346CB
:1001D0000A4604461946FFF7F0FF204610BD421CB0
:1001E0000178401C0029FBD1801A704730B50446C5
:1001F0000020034600E05B1C934203D2E05CCD5C30
:10020000401BF8D030BD024670B54A40D30FDB0723
:1002100040002DD04A002AD0010E140E0002120216
:100220000919400A520A8418E50104465443000A99
:10023000120A2E045043A4194219200CC543AA18CF
:10024000120C0125AD03521C521912047F392404EB
:1002500000D0521C104301D44000491EC2B20C060B
:10026000C0092018401C4008802A02D003E000206A
:1002700070BD40084000002900DA0020184370BD1E
:1002800070B502464A40D50F40004A00ED074008CD
:100290005208002814D0002A12D0C40DD30D4102F8
:1002A0000120C0055202490A520AE41A091812181C
:1002B0007D34914201D3641C00E04900002C01DA36
:1002C000002070BD0023914201D3891A03434008E6
:1002D00049000028F7D100290AD0914202D101211A
:1002E000C90705E0914201D2012101E00121C94382
:1002F000E005C018401900F0F7F870BDF0B50C46E5
:100300005C4085B0E40FE40703944C0000266408C9
:1003100059009446490802460296224321D062467B
:100320000A431ED06200570D4A000E032303550DE9
:10033000012402462C492405781B1B0B360B401860
:1003400023432643614600901C46501AB44103D310
:100350000098401C009002E0921800985B41002831
:1003600003DA0020014605B0F0BD00200121090597
:100370000746864611E064461D46141BB54106D368
:100380006546521BB341744607430C43A646CD074E
:1003900040084908284392185B4105460D43EAD1BD
:1003A0001046184313D06046194650407140084328
:1003B00006D06046101AB34106D20122002306E09F
:1003C00000220123DB0702E00122D24353100098F0
:1003D00074460105381C6141029C039D0019694166
:1003E00000F0C3F8BFE70000FD03000010B50022D5
:1003F0009623114600F080F810BDC20F4100400264
:100400000123400ADB05D207090EC0187F2901DA53
:1004100000207047962903DC9623591AC84001E052
:1004200096398840002AF4D040427047410040028B
:100430000122400AD205090E80187F2901DA002026
:100440007047962903DC9622511AC84070479639A6
:1004500088407047C20FD207400040080BD0C10D42
:100460000723DB01C91840020905400A1143C208ED
:10047000400711437047002001467047CB0FDB0750
:10048000490010B5490802460A4307D00A0D07245F
:100490000903E401090B121B002A01DC002010BD36
:1004A000C900440F0C43C100E018D205801800F0C9
:1004B0001BF810BD0122D207002800DB101A00290A
:1004C00000DB511A8842704710B5202A04DB014630
:1004D000203A9140002010BD914020239C1A0346F1
:1004E000E3401943904010BD002904DA401C490044
:1004F00001D140084000704770B40024050C05D1BC
:100500001024000402D1002921D01124050E01D1AC
:1005100000020834050F01D10001241D850F01D10F
:100520008000A41C002801DB4000641C002908D0C6
:1005300020252E1B0D46F540A14000D00121294366
:10054000084301061B1B000ADB1D02D5002070BCFE
:100550007047DB05181880180029F8DA401C49009C
:10056000F5D170BC40084000704710B5002B08DA88
:100570000024401C614192185B411A4301D140089C
:10058000400010BDF0B51FB482B005460C0003D08A
:10059000084603F0E1F902E003F0DEF920300246FC
:1005A000009021462846FFF78FFF049B059A0446DA
:1005B0000F4618431143084314D0184610431BD06C
:1005C000009840210A1A18460599FFF7D3FD054601
:1005D0000E46009A05990498FFF776FF084305D068
:1005E000012004E02046394607B0F0BD0020C117C5
:1005F00005430E432C43374300990E986305401A78
:100600007905E40A00220C43FD0A0A3002D50020D5
:100610000146E9E70105101969410C9C0D9D00197F
:100620006941FFF7A2FFDFE7F0B5074608465840EB
:1006300087B0C00F049048000E4659004008490892
:10064000BC1A884105D2384631461E4617460B462D
:1006500002465800400810434DD0300D039040052D
:100660005900400D490D0590401A0290402873DA58
:1006700018030121000B090508430190049800921A
:10068000002806D01146019A49420020904100916D
:100690000190029840210A1A01990098FFF714FF6F
:1006A00005460C466B4607CB00F020F9C019714196
:1006B000039A0E0D0023D71756401A467A40164368
:1006C00044D0049A002A2DD0029A012A039A15DCFC
:1006D0001205C01A914101263605001C7141D20F46
:1006E000059ED2070093019202962A462346FFF701
:1006F00049FF07B0F0BD38463146FAE71605234AF0
:100700000F46B218C01AB74101210905001C4F411C
:1007100000187F41114618187941E20F10436D19F6
:10072000644113E0E2076D0815436408C2071443EF
:10073000039A01261205C01A91413605001C714129
:10074000CE07400830434908C01851412A46234685
:10075000FFF70BFFCDE7FFE7049801224000C11728
:10076000121A00238B4104983146C417381AA1414C
:10077000EEE730B40124E407634030BC54E730B402
:100780000124E407614030BC4EE700000000E0FFB8
:10079000F0B51FB488B00B99099800244840099916
:1007A000C00F490049080991C0070B990090490002
:1007B00049080B9109990898A64608431CD00B9943
:1007C0000A98084318D0099801244000420D4800B7
:1007D000410D099824050003000B204309900B9854
:1007E0000003000B20430B9050181C4940180022B6
:1007F00001901446104605E0002001460DB0F0BD02
:10080000032801DA034600E003239C46C11A0AAE1E
:100810000AE05F0008ADED5B4F00F75B7D4300270A
:10082000AA187C41491C5B1E6145F2DD410004AB06
:100830005A522104120C0A43240C401C0828DFDB06
:10084000019802900099704601910090059B049ACE
:1008500007990698FFF796FED0E700000DFCFFFF12
:100860004A0009030123090B1B0519430A4B10B564
:10087000520D9A4202DA0020014610BD064B343375
:100880009A4203DC9A1AFFF775FC10BD034BD2188D
:10089000FFF71AFE10BD0000FF030000CDFBFFFFB5
:1008A00010B5002904DB0124E40740428C412146B5
:1008B000002B04DB1C460123DB075242A341994273
:1008C00000D1904210BD0000064C0125064E05E007
:1008D000E36807CC2B430C3C98471034B442F7D361
:1008E000FFF7ECFB746300089463000810B5202A3E
:1008F00006DBCB170846203A1041C1170B4306E030
:100900000B461341D0402024A21A914008431946B7
:1009100010BD000070B502460B46FF25FF2408E01D
:100920001178521C61400748405C68400446064804
:10093000455C18465E1EF3B20028F1D12802204320
:1009400070BD0000746100087462000810B50348AF
:1009500000F009FA024800F006FA10BD78080020FD
:100960003408002010B5034800F0FDF9024800F0FB
:10097000FAF910BDBC0B0020780B002010B504461E
:10098000054A2168881A1421FFF7AEFB8000206415
:1009900001480838E06310BD0800024030B501246A
:1009A000056CAC40C56B6C60046863604468102CD7
:1009B00004D10468A2600468E16003E00468A160F7
:1009C0000468E26030BD72B600BFFEE70020074950
:1009D000C8610748006904210843054908610846C1
:1009E000006940210843024908617047A8010020BE
:1009F000002002400021084AD16108490969022209
:100A00001143064A116111464861096940221143A8
:100A1000024A116170470000A80100200020024036
:100A20000022054BDA61054A126901231A43034B80
:100A30001A61018070470000A801002000200240D8
:100A400000200F49C96810221140102907D10D4913
:100A5000C969022211430B4AD16110210843084998
:100A6000C96804221140042907D10649C969012235
:100A70001143044AD161042108430149C860704709
:100A800000200240A801002070B5044600F04AFC96
:100A900005460BE0601C002808D0002C04D000F0B4
:100AA00041FC401BA04201D9032070BD0F48C06823
:100AB000C007C00F0028EDD10C48C06820210840B5
:100AC000202801D10949C8600848C06810210840A1
:100AD000102805D00548C06804210840042803D127
:100AE000FFF7AEFF0120E0E70020DEE70020024034
:100AF00010B50446002C01D1032010BD204600F0A3
:100B000010F8002801D00020F7E7204600F0BCF8DC
:100B1000204600F01DF8002801D00120EDE702205A
:100B2000EBE710B590B00446002C01D110B010BD19
:100B300001A803F023FF01A803F02AFF002800D139
:100B4000F4E72C2205A92046FFF725FB0120EDE75D
:100B500070B5A0B00546002002900026002D01D1FE
:100B600020B070BD03A8FFF7DCFF002808D02C22BE
:100B7000294603A8FFF73AFB002801D10120EFE73F
:100B8000FF223C210EA8FFF718FB3C480E900120E5
:100B90000F902C2010902C22294612A8FFF7FBFA68
:100BA0002C2112A803F0B6FE119000F08FFA002855
:100BB00001D00020D4E734203149C86000201D90C6
:100BC00030481E9001201F9002A91DA800F0C0F916
:100BD000002800D02BE0042410E00EA801190A78A8
:100BE00068460271497841712649601869468988CA
:100BF00003F0B0FE002800D119E0A41C3C2CECD37B
:100C00000E980190684681881E4803F0A3FE0028D4
:100C100000D10CE06846418F019181881948801C01
:100C200003F098FE002800D101E0012600BF00F08B
:100C3000E5F9002E01D1002092E700BF00BF00BF00
:100C4000BFF34F8F00BF00BF00BF00BF00BF00BF9A
:100C5000BFF36F8F00BF00BF00BF03A8FFF761FFA6
:100C6000002800D17CE72C22294603A8FFF7BEFA12
:100C7000002801D1012073E7002071E74152415063
:100C80000020024000FC000810B50446002C00D1F2
:100C900010BD2C212046FFF797FA002020606060ED
:100CA000A060E060206160611E20A061E120E06141
:100CB000002020626062A06200BFE9E701462120B7
:100CC000405C022808D00420886300BF0022202056
:100CD000425400BF01207047086800680E2290430C
:100CE0000A68106008680068400840000A681060E0
:100CF00001200A6C9040CA6B5060012221204254AE
:100D000000BF00222020425400BF0020E3E770B55E
:100D1000044600252120005D022803D00420A063A2
:100D200001251EE0206800680E21884321680860C4
:100D30002068006840084000216808600120216C9C
:100D40008840E16B486001212120015500BF00214E
:100D50002020015500BF606B002802D02046616B47
:100D60008847284670BD70B50446E06B056820686A
:100D700006680420216C8840284000281BD00420ED
:100D80003040002817D02068006820210840002843
:100D900005D1206800680421884321680860042088
:100DA000216C8840E16B4860E06A002852D0204600
:100DB000E16A88474EE00220216C884028400028E4
:100DC00023D00220304000281FD020680068202156
:100DD0000840002808D1206800680A21884321685B
:100DE00008600121212001550220216C8840E16B1F
:100DF000486000BF00212020015500BFA06A0028E4
:100E000028D02046A16A884724E00820216C884029
:100E1000284000281ED00820304000281AD0206822
:100E200000680E218843216808600120216C8840F9
:100E3000E16B48600120A06301212120015500BF22
:100E400000212020015500BF206B002802D0204641
:100E5000216B884770BD000070B504460025002C4A
:100E600001D1012070BD02212120015520680568B3
:100E70000F480540A16860680843E168084321699C
:100E8000084361690843A1690843E16908430543D0
:100E9000206805602046FFF771FD0020A063012156
:100EA000212001550021202001550020DAE7000013
:100EB0000FC0FFFFF8B504460D4616461F4600203A
:100EC000009000BF2020005D012801D10220F8BD64
:100ED00001212020015500BF2120005D01282DD1D6
:100EE0000221212001550020A063206800684008ED
:100EF0004000216808603B46324629462046FFF7FD
:100F00004DFDE06A002806D0206800680E210843E5
:100F1000216808600BE0206800680A210843216806
:100F20000860206800680421884321680860206800
:100F30000068012108432168086006E000BF002125
:100F40002020015500BF022000900098BFE700005C
:100F5000F8B504460E460127002500BF2448007E50
:100F6000012801D10220F8BD01202149087600BFE7
:100F70002068012811D11F48FFF786FD002830D1D5
:100F8000FFF724FD1B48FFF77FFD07461A4800695D
:100F9000042188431849086123E01648FFF774FDCF
:100FA00000281ED1401E3060656813E02846FFF718
:100FB00021FD1048FFF768FD07460F480069022130
:100FC00088430D490861002F01D0356008E00120F9
:100FD00080022D18A068800261684018A842E5D8F8
:100FE00000BF00BF00200249087600BF3846BAE7BC
:100FF000A801002050C300000020024003480069FF
:101000008021084301490861002070470020024008
:10101000F0B51FB486B0074615461E460120039062
:1010200000240020029000BF2548007E012802D144
:1010300002200BB0F0BD01202149087600BF2148F5
:10104000FFF722FD03900398002831D1012F02D130
:101050000120029006E0022F02D10220029001E05E
:101060000420029000241FE0220128463146049605
:101070000595FFF77FF880B2610001900798081886
:1010800000900199FFF7CCFC0E48FFF7FDFC0390A0
:101090000D480069400840000B490861039800288A
:1010A00000D004E0601CC4B202988442DCDB00BFC4
:1010B00000BF00200249087600BF0398B9E700008E
:1010C000A801002050C30000002002400020094970
:1010D00009698022114000290BD00749054A516057
:1010E000064951601146096980221140002900D04B
:1010F000012070470020024023016745AB89EFCDF6
:1011000078B503460A460021DFE001268E401468C8
:101110003440002C7ED01579AD07AD0F012D04D0E1
:101120001579AD07AD0F022D18D198684E00032533
:10113000B5400646AE4330464E00D568B54028431C
:101140009860586801258D400646AE43304610260B
:10115000556835402D098D40284358601579AD07F5
:10116000AD0F032D0BD0D8684E000325B5400646C1
:10117000AE4330464E009568B5402843D860157997
:10118000AD07AD0F022D15D1CD08AE001D4620359F
:10119000A8594D07EE0E0F25B5400646AE43304622
:1011A0004E07F60E1569B5402843CD08AD001E4622
:1011B0002036705118684E000325B5400646AE43F0
:1011C00030461579AD07AD0F4E00B5402843186085
:1011D0000326360455683540002D75D000BF3E4DBE
:1011E000AD69012635433C4EB5613546AD69ED0725
:1011F000ED0F009500BF00BF384D8E08B600A8590E
:101200008D072E0F0F25B5400646AE433046092503
:10121000ED0600E058E0AB4201D100250FE0304D73
:10122000AB4201D101250AE02E4DAB4201D102258E
:1012300005E02D4DAB4201D1032500E005258E07C9
:10124000360FB5402843254D8E08B600A851274DCE
:10125000A8680546A5432846012636055568354049
:10126000002D02D0054625432846204DA860E86899
:101270000546A54328460126760555683540002DCC
:1012800002D0054625432846184DE86068680546A3
:10129000A54328460126760455683540002D02D026
:1012A000054625432846114D686028680546A54334
:1012B00028460126360455683540002D02D00546E3
:1012C00025432846094D2860491C1568CD40002D4E
:1012D00000D01AE778BD000000100240080001406D
:1012E0000004004800080048000C004800040140C9
:1012F000024613690B40002B01D0012000E00020C2
:10130000704710B5426913460B401B040C469443CA
:101310002343836110BD002A01D0816100E0816216
:10132000704700000148006870470000540000202A
:10133000034800680349097840180149086070476C
:10134000540000205C00002010B506480068102101
:10135000084304490860032000F006F800F02EF866
:10136000002010BD0020024070B5044610480178EE
:101370007D20C000FEF7B8FE064631460D480068E5
:10138000FEF7B2FE054600F0D9FC002801D001208E
:1013900070BD042C07D200222146501E00F03CF8FC
:1013A0000548046001E00120F2E70020F0E70000BA
:1013B0005C000020600000205800002008B500BF3D
:1013C0000D488069012108430B49886108468069FE
:1013D000C007C00F009000BF00BF00BF0846C06933
:1013E000090408430449C8610846C0690904084063
:1013F000009000BF00BF08BD001002400146002958
:1014000005DBCB06DB0E01229A40024B1A6000BFBF
:101410007047000000E100E070B504460D46164636
:101420002946204602F0D6FA70BD0000F8B5044601
:1014300000260025012109042068084088427AD14D
:1014400000274B48C0690903084000280DD100BFA0
:101450004748C06908434649C8610846C06909044D
:101460000840009000BF00BF012742480068FF21EC
:1014700001310840002816D13E48006808433D4924
:101480000860FFF74FFF064606E0FFF74BFF801BA3
:10149000642801D90320F8BD36480068FF210131D6
:1014A00008400028F1D03248006A032109020840B0
:1014B0000546002D2DD060680840A84229D02C4850
:1014C000006A884305462A48006A01210904084346
:1014D000274908620846006A012109048843244913
:1014E000086208460562E807C00F002811D0FFF720
:1014F00019FF064607E0FFF715FF801B1E498842CB
:1015000001D90320C7E71A48006A022108400028D1
:10151000F1D01748006A0321090288436168084333
:1015200013490862012F05D10846C06909048843A0
:101530000F49C86100BF2078C007C00F002807D03E
:101540000B48006B80088000A168084308490863C5
:10155000202120680840202807D10548006B102171
:101560008843E168084302490863002093E70000CC
:1015700000100240007000408813000070B504465F
:101580000D46002C01D1012070BD52480068C007F3
:10159000C00FA8420ED24F480068400840002843C0
:1015A0004C49086008460068C007C00FA84201D037
:1015B0000120E9E7022120680840022814D1042113
:1015C00020680840042807D14348406807210902E1
:1015D00088434018404948603F484068F0218843AC
:1015E000A16808433C4948602078C007C00F002824
:1015F0003BD06068012808D13748006801214904C0
:101600000840002815D10120BEE76068022808D1F3
:1016100031480068012149060840002809D101200D
:10162000B2E72D48006802210840002801D10120BE
:10163000AAE7294840688008800061680843264975
:101640004860FFF76FFE064607E0FFF76BFE801B62
:101650002249884201D9032096E71F4840680C219F
:101660000840616889008842EFD11A480068C007C5
:10167000C00FA8420ED91748006840084000284310
:101680001449086008460068C007C00FA84201D08E
:10169000012079E7042120680840042808D10E4879
:1016A0004068072109028843E16808430A49486005
:1016B00000F032F808494968F02211400909084A47
:1016C000515CC840074908600320FFF74DFE002029
:1016D0005AE700000020024000100240881300007A
:1016E000F85F0008600000200148006870470000B3
:1016F0006000002000B5FFF7F7FF054949680722A1
:1017000012021140090A034A515CC84000BD0000A2
:101710000010024008600008F8B5002400250027EA
:101720000026002000901D4844680C20204000281E
:101730002DD0042802D0082828D102E018480090B3
:1017400028E00F2080042040800C16490E5C1348CE
:10175000C06A0007000F14490D5C012000042040FE
:101760000121090488420AD12A4600230C4819465F
:10177000FEF7D0FC314602F006F9074604E00B48BC
:10178000314602F000F90746009703E000BF044825
:10179000009000BF00BF0098F8BD0000001002409C
:1017A00000127A00D85F0008E85F000800093D00D9
:1017B000FEB50446002C01D10120FEBD2078C007F3
:1017C000C00F002871D0FC4840680C210840042854
:1017D0000BD0F94840680840082812D1F648406804
:1017E00001210904084088420BD1F3480068012117
:1017F0004904084000286BD06068002868D10120A7
:10180000DBE700BF6068012807D1EB4800680121D1
:1018100009040843E849086031E0606800280ED1F7
:10182000E5480068012109048843E3490860084647
:101830000068012189048843DF4908601FE060686F
:1018400005280ED1DC480068012189040843DA49E3
:10185000086008460068012109040843D649086069
:101860000DE0D5480068012109048843D249086089
:1018700008460068012189048843CF49086000BFF9
:101880006068002812D0FFF74DFD054606E0FFF71F
:1018900049FD401B642801D903208EE7C648006833
:1018A0000121490408400028F1D011E0FFF73AFD7A
:1018B000054606E0FFF736FD401B642801D90320EA
:1018C0007BE7BD4800680121490408400028F1D1A8
:1018D000022120680840022861D1B74840680C21E5
:1018E000084000280BD0B4484068084008281BD1A5
:1018F000B1484068012109040840002814D1AE48CD
:10190000006802210840002804D0E068012801D0C6
:10191000012052E7A8480068F82188432169C900DE
:101920000843A54908603AE0E068002820D0A248B2
:10193000006801210843A0490860FFF7F3FC054651
:1019400006E0FFF7EFFC401B022801D9032034E733
:1019500099480068022108400028F2D096480068A3
:10196000F82188432169C90008439349086016E0BB
:1019700091480068400840008F490860FFF7D2FC9A
:10198000054606E0FFF7CEFC401B022801D90320E4
:1019900013E789480068022108400028F2D1082195
:1019A00020680840082831D1E069002817D0824813
:1019B000406A0121084380494862FFF7B3FC0546AD
:1019C00006E0FFF7AFFC401B022801D90320F4E634
:1019D0007948406A022108400028F2D016E0764893
:1019E000406A4008400074494862FFF79BFC054686
:1019F00006E0FFF797FC401B022801D90320DCE634
:101A00006D48406A022108400028F2D10421206874
:101A10000840042873D1002001906748C0698906F6
:101A2000084000280ED100BF6348C06908436249DE
:101A3000C8610846C06909040840009000BF00BFA3
:101A4000012001905D480068FF2101310840002815
:101A500016D15A480068084358490860FFF762FCED
:101A6000054606E0FFF75EFC401B642801D9032011
:101A7000A3E652480068FF21013108400028F1D058
:101A800000BFA068012806D14B48006A0121084325
:101A9000494908622BE0A06800280CD14648006A3A
:101AA00040084000444908620846006A042188430F
:101AB000414908621BE0A06805280CD13E48006A35
:101AC000042108433C4908620846006A0121084392
:101AD000394908620BE03848006A4008400036493E
:101AE00008620846006A042188433349086200BF3F
:101AF000A068002813D0FFF715FC054608E02BE08E
:101B0000FFF710FC401B2E49884201D9032054E600
:101B10002948006A022108400028F1D011E0FFF7AF
:101B200001FC054607E0FFF7FDFB401B2449884206
:101B300001D9032041E62048006A0221084000281C
:101B4000F1D10198012806D11B48C069012109077C
:101B500088431949C86100BF102120680840102837
:101B600060D1606901282DD11348406B04210843DE
:101B7000114948630846406B012108430E494863F8
:101B8000FFF7D0FB054606E0FFF7CCFB401B022821
:101B900001D9032011E60848406B022108400028C3
:101BA000F2D00548406BF8218843A169C900084379
:101BB0000149486336E00000001002400070004018
:101BC000881300006069401D00280FD15A48406BFF
:101BD00004218843584948630846406BF8218843EC
:101BE000A169C9000843544948631BE05248406B4F
:101BF00004210843504948630846406B40084000B0
:101C00004863FFF78FFB054606E0FFF78BFB401BA1
:101C1000022801D90320D0E54748406B0221084043
:101C20000028F2D1206A00284FD0434840680C2198
:101C30000840082864D0206A022847D13E4800683E
:101C40000121090688433C490860FFF76BFB054604
:101C500006E0FFF767FB401B022801D90320ACE533
:101C6000354800680121490608400028F1D100BF2D
:101C70003148C06A00090001E16A08432E49C86280
:101C8000616AA06A08432C4949683D2212049143C5
:101C900008432949486000BF084600680121090639
:101CA000084325490860FFF73DFB054606E0FFF7BE
:101CB00039FB401B022801D903207EE51E4800683D
:101CC0000121490608400028F1D033E01A48006895
:101CD00001210906884318490860FFF723FB0546E0
:101CE00006E0FFF71FFB401B022801D9032064E533
:101CF000114800680121490608400028F1D119E087
:101D0000206A012800D158E50B484668C76A0120BF
:101D100000043040616A88420AD13907090FE06A3D
:101D2000814205D10F2080043040A16A884201D051
:101D3000012042E5002040E50010024070B5044655
:101D40002546681E0949884201D901200CE0681E19
:101D5000074948610321081F01F03CFE00200449A7
:101D6000886107200861002070BD0000FFFFFF00B0
:101D700000E000E07047704710B50446002C01D128
:101D8000012010BD3D20005D002805D100213C2030
:101D90000155204600F022F802213D200155211D69
:101DA000206801F0C7F801214620015500BF3E2000
:101DB00001553F200155402001554120015500BFEC
:101DC00000BF4220015543200155442001554520C4
:101DD000015500BF3D2001550020D2E738B504462B
:101DE0001C492068884218D100BF1B488069012126
:101DF000490408431849886108468069012149045B
:101E00000840009000BF00BF002201211520FFF70D
:101E100003FB1520FFF7F2FA1BE010492068884207
:101E200017D100BF0C4880690121890408430A4981
:101E3000886108468069012189040840009000BF3C
:101E400000BF002201211620FFF7E6FA1620FFF757
:101E5000D5FA38BD0044014000100240004801405E
:101E600001463D20405C012801D00120704702233B
:101E70003D2043540868C068012318430B68D860AC
:101E8000104B0868984207D00F4B0868984203D05F
:101E90000E4B086898420CD1086880684207520FC0
:101EA000062A0CD008680068012318430B681860E4
:101EB00005E008680068012318430B6818600020DB
:101EC000D4E70000002C0140000400400040014025
:101ED000704770B504462068C5682068066902200E
:101EE0003040022819D12840022816D1401F21680D
:101EF000086101202077206880698007800F002812
:101F000003D02046FFF7E4FF05E0204600F098F8F4
:101F1000204600F096F80020207704203040042866
:101F20001AD12840042817D1C04321680861022033
:101F3000207720688069032109020840002803D027
:101F40002046FFF7C5FF05E0204600F079F820465F
:101F500000F077F80020207708203040082819D1B9
:101F60002840082816D1C043216808610420207742
:101F70002068C0698007800F002803D02046FFF743
:101F8000A7FF05E0204600F05BF8204600F059F876
:101F9000002020771020304010281AD12840102827
:101FA00017D1C04321680861082020772068C069E4
:101FB000032109020840002803D02046FFF788FFCC
:101FC00005E0204600F03CF8204600F03AF80020FA
:101FD0002077F007C00F00280AD0E807C00F0028BC
:101FE00006D00120C04321680861204600F02AF88D
:101FF00080203040802808D12840802805D1C04367
:10200000216808612046FFF7B5FE40203040402897
:1020100008D12840402805D1C043216808612046E6
:1020200000F032F820203040202808D12840202815
:1020300005D1C043216808612046FFF79CFE70BDB2
:102040007047704710B504460C492068884214D187
:1020500002F038FA00F0D8FD03F0B4F9084800881F
:10206000401C0749088008460088642805DD0120D7
:102070000449087000200249088010BD0048014052
:1020800052000020500000207047F8B504460D466D
:1020900017468020005920283AD1002D01D0002F6A
:1020A00001D10120F8BD01210903A068884208D1AF
:1020B0002069002805D1E807C00F002801D00120C1
:1020C000F0E701202066002060663A462946204657
:1020D00001F0A6FA0646002E18D1206E012814D170
:1020E00010202168086200BF00BFEFF3108000904D
:1020F000012001F0C0FC206800681021084321681D
:102100000860009801F0B7FC00E001263046C9E7FE
:102110000220C7E770B504460D461E492068884274
:1021200019D12A461C491D4803F068F801201C49B2
:102130000870402218491B48FFF7A7FF002827D145
:102140001848406F00680068042188431549496FAA
:10215000096808601CE014492068884218D12A46A2
:102160001249134803F04AF801201249087040222E
:102170000E491148FFF789FF002809D10E48406F2A
:1021800000680068042188430B49496F09680860AA
:1021900070BD00000038014020090020BC0800206C
:1021A00080000020AC07002000440040640C0020A8
:1021B000000C00209A000020F00A00207047000068
:1021C000F0B585B004462068C569206806682068B7
:1021D0008768E34828400390039800280FD1202007
:1021E000284000280BD020203040002807D0A06EC7
:1021F000002802D02046A16E884705B0F0BD0398A4
:1022000000287DD0F807C00F002803D1D548304002
:102210000028F6D0E807C00F00280DD0FF200130BD
:102220003040002808D0012021680862842000592D
:1022300001210843842108510220284000280CD0A5
:10224000F807C00F002808D0022021680862842007
:102250000059042108438421085104202840002803
:102260000CD0F807C00F002808D0042021680862AD
:102270008420005902210843842108510820284065
:10228000002810D020203040002803D1F807C00FCC
:10229000002808D0082021680862842000590821FD
:1022A0000843842108510120C002284000280ED094
:1022B000012080063040002809D00120C00221689A
:1022C0000862842000592021084384210851842079
:1022D0000059002854D020202840002809D0202070
:1022E0003040002805D0A06E002802D02046A16E04
:1022F000884784200059029020688068402100E0CF
:102300003FE00840402804D02821029808400028D7
:1023100030D0204601F042F8206880684021084013
:10232000402823D100BF01F091FB0190012001F072
:102330009FFB20688068402188432168886001985D
:1023400001F096FB00BF606F00280BD08648616FDC
:102350004863606FFEF7DBFC002811D0606F416BB3
:1023600088470DE02046FFF729FF09E02046FFF7E8
:1023700025FF05E02046FFF721FF002184200151C1
:102380003BE7206E01287DD110202840002879D01D
:10239000102030400028FAD0102021680862206800
:1023A00080684021084040286ED1606F0068406816
:1023B00080B201900198002863D05820015B0198F9
:1023C00081425EDD5A2101980853606F80692028A0
:1023D0004CD000BF01F03AFB0090012001F048FB17
:1023E00020680068FF210131884321680860009857
:1023F00001F03EFB00BF00BF01F028FB0090012070
:1024000001F036FB20688068400840002168886041
:10241000009801F02DFB00BF00BF01F017FB0090FA
:10242000012001F025FB2068806840218843216855
:102430008860009801F01CFB00BF20218020015122
:102440000020206600BF01F001FB0090012001F098
:102450000FFB2068006810218843216808600098FD
:1024600001F006FB00BF606FFEF728FC02206066EB
:102470005820025B5A20005B101A81B22046FFF7F9
:1024800049FEBAE64FE0FFE75820015B5A20005BA7
:10249000081A80B201905A20005B002842D00198AF
:1024A00000283FD000BF01F0D1FA0090012001F0D8
:1024B000DFFA20680068FF21213188432168086025
:1024C000009801F0D5FA00BF00BF01F0BFFA0090FC
:1024D000012001F0CDFA20688068400840002168A2
:1024E0008860009801F0C4FA00BF202180200151CB
:1024F00000202066A06600BF01F0A8FA009001202D
:1025000001F0B6FA2068006810218843216808604D
:10251000009801F0ADFA00BF0220606620460199E4
:10252000FFF7F8FD69E68020284000280AD08020C7
:102530003040002806D0E06E002802D02046E16E30
:1025400088475AE640202840002807D040203040E5
:10255000002803D0204600F061FF4EE600BF4CE6A5
:102560000F08000020010004D531000810B5044612
:10257000002C01D1012010BDA069002800D000E08E
:1025800000BFE06F002805D10021782001552046CA
:1025900000F02BF82420E067206800684008400025
:1025A00021680860606A002802D0204600F01AFD09
:1025B000204600F065FF012800D1DCE72068406874
:1025C0000121C90288432168486020688068082189
:1025D00088432168886020680068012108432168D9
:1025E0000860204600F076FDC5E7704770477047E9
:1025F000F8B504460E461546E06F202853D1002E4C
:1026000001D0002D01D10120F8BD01210903A068EE
:10261000884208D12069002805D1F007C00F0028A2
:1026200001D00120F0E7E664502005535220055305
:102630000021842001512120E067206F00281CD058
:102640001A48216F88621A48216FC8621948216FA1
:1026500008630020216F486323681A4628322B46FE
:10266000E16C206FFEF726FC002806D010218420A4
:1026700001512020E0670120C6E740202168086260
:1026800000BF01F0E3F90746012001F0F1F92068ED
:1026900080688021084321688860384601F0E8F9A5
:1026A00000BF0020B0E70220AEE700003133000891
:1026B0008F330008ED31000810B504460A49206840
:1026C000884203D10020094908700CE008492068BD
:1026D000884208D1002007490870002210210920F3
:1026E000C006FEF718FE10BD003801408100002032
:1026F000004400409B0000207047000010B52021DE
:102700000148FDF761FD10BDD406002070B500251D
:1027100024E0144804780078401C124908700846E8
:102720000078202801D3002008700F48005D0028A1
:1027300005D00E48005D0E49095D88420CD00B485B
:10274000015D204602F009FB0848005D0849085574
:1027500001200549085570BD681CC5B2202DD8D38D
:102760000020F8E77000002014070020D4060020A5
:10277000F406002010B5012000F028F8012000F038
:1027800051F8012000F032F820210C48FDF71CFD23
:1027900020210B48FDF718FD20210A48FDF714FD04
:1027A000002009490870022002F08EFAFF20C7308D
:1027B00002F08AFA062002F087FA10BDD406002043
:1027C000F4060020140700207000002010B5044615
:1027D000002C01D0012000E00020024601218902E6
:1027E0000148FEF798FD10BD0004004810B50446EE
:1027F000002C01D0012000E0002002460121090345
:102800000148FEF788FD10BD0004004808B500200F
:10281000009003E000BF0098401C0090009804283E
:10282000F8D308BD10B50446002C01D0012000E00B
:10283000002002460121C9020148FEF76CFD10BDCF
:102840000004004830B51346202801D2082900D3DF
:1028500030BD01248C40E2B2002B05D0064C245C34
:102860001443054D2C5404E0034C245C9443024D66
:102870002C5400BFECE70000D406002000BFFEE7A8
:1028800010B5044623492068086060684860A06865
:102890008860E068C8602069086160694861A06973
:1028A0008861E069C861206A0862606A4862A06A5B
:1028B0008862084600681849086016484068174949
:1028C000086014488068164908601248C0681549B5
:1028D000086010480069144908600E4840691349AF
:1028E00008600C488069124908600A48C0691149AB
:1028F00008600848006A104908600648406A0F49A5
:1029000008600448806A0E4908600248FEF720F912
:1029100010BD00009C0000200000002004000020EA
:10292000080000200C0000201000002014000020EF
:10293000180000201C00002020000020240000209F
:102940002800002010B538211048FDF73DFC2C214F
:102950000F48FDF739FC01210C48816200200D4928
:1029600008700D4908700D4908700D4908800D491F
:1029700008700D4908800D49087001200C49087045
:102980000C490870FFF7F6FE10BD00004807002054
:1029900080070020720000207300002074000020D7
:1029A00076000020780000207A0000207C000020C3
:1029B0007D0000207E00002010B50446002036492E
:1029C00008803649087036480078002822D1002C4B
:1029D00002D102F067FD1CE0012C02D102F050FD93
:1029E00017E0022C15D12F480078002811D02C2296
:1029F0002D492E48FDF7CFFB012029490870002002
:102A00002B4908702B49088001202B4908702B495D
:102A1000087010BD022C0BD1002021490870012044
:102A200025490870254908701F48FFF729FFF0E77E
:102A30001C48007806280FD1002C01D0012C20D191
:102A400019480C38006A002801D1012100E000215A
:102A500015480C38016214E01248007802F0F6FCC8
:102A600000280ED0002C02D102F096F909E0012CCA
:102A700007D105210E480078401CFDF735FB0C48B6
:102A8000017001200C49087000200A4908800120CB
:102A90000A49087000BFBCE77A0000207C000020D3
:102AA00073000020720000205407002080070020DF
:102AB00074000020760000207D0000207E000020B1
:102AC00010B50446002C00D110BD2C222146074829
:102AD000FDF761FB054802F0A7FE054800780028D5
:102AE00002D001200349087000BFEDE75407002021
:102AF000720000207E00002010B50D4B1B68834241
:102B000009D10B4C0823E35E8B4204D123465B685A
:102B1000934200D110BD064B186019815A60054BD5
:102B20001B78002B02D10123034C237000BFF1E777
:102B300048070020720000207E000020642800D991
:102B400064200649897A814200D17047034988721E
:102B50000121034A117000BFF7E700004807002079
:102B60007E00002010B51E48007800281BD00020F1
:102B70001B4908701B480078002804D02C221A49F1
:102B80001A48FDF708FB002019490870154908701C
:102B90001849087018490880184908700120184918
:102BA0000870184908701548007800280BD00020DC
:102BB00012490870124800780121484010490870F5
:102BC0000120104908700F480078002804D0002028
:102BD0000C49087002F0E0FDFFF798FD10BD000001
:102BE0007C00002073000020800700205407002094
:102BF0007200002074000020760000207800002081
:102C00007D0000207E00002019480078002817D0A1
:102C1000184800887D21C900884204D215480088E0
:102C2000401C14490880134800887D21C90088424F
:102C300009D300200F49088001200F49087002E0E5
:102C400000200C4908800D480078002800D170470A
:102C50000B480088401C0A49088008460088322832
:102C600004D30020088001200649087000BFEEE769
:102C7000720000207A0000207C00002073000020F9
:102C8000760000207800002010B50B480B49086042
:102C90000B4848600021094881606321C160002120
:102CA0000161416180218161FFF766F8002801D050
:102CB000FDF789FE10BD0000004401401401002012
:102CC0001F03000010B50B480B4908600B48486013
:102CD0000021094881606321C160002101614161D7
:102CE00080218161FFF748F8002801D0FDF76BFED5
:102CF00010BD0000004801405C0100201F030000DF
:102D000000BFFEE770470000FEB5044600BF224842
:102D1000009000980078532801D000F059FD00BFC2
:102D20000027FF2069460871102C30D21B48005D37
:102D30004871194D1835EFF310800090012080F391
:102D4000108800BF00BF287D8007800F022807D1B0
:102D500013480470022201A9284600F07FFD0FE00D
:102D6000284600F06DFD0646022E07D30C4804707D
:102D7000022201A9284600F0B0FD01E00027FF4330
:102D80000098C0B280F3108800BF00BF01E00027A8
:102D9000FF433846FEBD0000C80100201060000857
:102DA00064000020F8B504460D46164600BF0E4FDD
:102DB0003878532801D000F00BFD00BFEFF31080EE
:102DC0000746012080F3108800BF00BF3246294625
:102DD000204600F00BF80090F8B280F3108800BF96
:102DE00000BF0098F8BD0000C8010020F7B582B010
:102DF0000746164603980190182078431B4940184F
:102E0000009000984069002804D0012811D00228C1
:102E100026D11EE0009800F013FD0546B54201D210
:102E2000002405E0344632460199009800F055FD33
:102E300018E0009800F004FD0546B54201D228468E
:102E400000E03046044622460199009800F045FD16
:102E500008E032460199009800F000FD044601E0C8
:102E6000002400BF00BF204605B0F0BDE0010020F7
:102E700070B505460C462046FDF7B1F906463246C8
:102E800021462846FFF78EFF70BD704710B5FEF74C
:102E90004FFA10BD00B595B0302109A8FDF794F99F
:102EA00000200590069007900890019002900390F2
:102EB0000490012009900A900020119009A8FEF7C3
:102EC00077FC002801D0FDF77EFD0720059001204A
:102ED0000690002007900890002105A8FEF74EFB01
:102EE000002801D0FDF76FFD012001900020039024
:102EF00001A8FEF79BFA002801D0FDF764FD15B08C
:102F000000BD704710B50248FEF7E3FF10BD00009A
:102F10001401002010B50248FEF7DBFF10BD0000D1
:102F20005C01002010B50248FEF79AFF10BD0000BA
:102F30005C01002010B50268244B984202D0244B5B
:102F4000984205D170241346A3431A464B681A438E
:102F50001E4B98420ED01E4B98420BD01D4B9842F0
:102F600008D01D4B984205D01C4B984202D01C4BF8
:102F7000984206D1032424021346A3431A46CB6881
:102F80001A4380241346A3434C6923431A46026024
:102F90008B68C3620B6883620C4B984208D00E4B5F
:102FA000984205D00D4B984202D00D4B984201D16A
:102FB0000B690363012343610369DB07DB0F002B0C
:102FC00003D003695B085B00036110BD002C014066
:102FD0000004004000200040004001400044014047
:102FE000004801400822416A1140082907D10168C0
:102FF000496812039143426B114302685160818C0E
:10300000C907C90F002908D0016849680122520484
:103010009143826A1143026851600222416A114061
:10302000022907D101684968D2039143C26A11435A
:10303000026851600422416A1140042907D10168E5
:10304000496812049143026B1143026851601022D7
:10305000416A1140102907D1016889681202914321
:10306000826B1143026891602022416A114020293D
:1030700007D10168896812029143C26B114302684B
:1030800091604022416A1140402915D10168496888
:1030900092039143026C11430268516001221205B0
:1030A000016C914208D1016849680322520591439D
:1030B000426C1143026851608022416A11408029AC
:1030C00007D10168496812039143826C1143026879
:1030D00051607047F8B50446002184200151FEF785
:1030E00021F905462068006808210840082823D1F6
:1030F00037482B46002289040090204600F0FEFA53
:10310000002819D000BF00F0A1FC0646012000F005
:10311000AFFC206800688021884321680860304641
:1031200000F0A6FC00BF2020E06700BF002178204F
:10313000015500BF0320F8BD206800680421084045
:10314000042836D122482B4600220905009020464B
:1031500000F0D4FA00282CD000BF00F077FC06461F
:10316000012000F085FC20680068FF2121318843A0
:1031700021680860304600F07BFC00BF00BF00F013
:1031800065FC0646012000F073FC2068806840085A
:10319000400021688860304600F06AFC00BF2021B2
:1031A0008020015100BF00217820015500BF03207D
:1031B000C1E72020E0672021802001510020206607
:1031C000606600BF00217820015500BF0020B2E7F3
:1031D000FFFFFF0170B505466C6A00215A200153BC
:1031E000522001532046FEF7E9FF70BDF8B50546B1
:1031F0006C6AE66F8020075920688068802108404B
:10320000802807D1212E05D10021522001532046CC
:1032100000F01FF92068806840210840402807D14D
:10322000222F05D100215A200153204600F0B6F884
:103230008420005910210843842108512046FEF7BC
:10324000BDFFF8BD70B505466C6AA86920284DD051
:1032500000215A20015300BF00F0F8FB0646012070
:1032600000F006FC20680068FF21013188432168D6
:103270000860304600F0FCFB00BF00BF00F0E6FB3A
:103280000646012000F0F4FB2068806840084000FA
:1032900021688860304600F0EBFB00BF00BF00F003
:1032A000D5FB0646012000F0E3FB20688068402142
:1032B000884321688860304600F0DAFB00BF202197
:1032C00080200151206E012810D100BF00F0BEFB0C
:1032D0000646012000F0CCFB2068006810218843DE
:1032E00021680860304600F0C3FB00BF0020606624
:1032F000206E012805D15820015B2046FEF70AFF09
:1033000002E02046FFF772F970BD70B505466C6AA1
:1033100001206066206E012806D15820005B41081C
:103320002046FEF7F7FE02E02046FFF760F970BD89
:1033300070B505466C6AA869202824D00021522067
:10334000015300BF00F082FB0646012000F090FB15
:10335000206880688021884321688860304600F0BA
:1033600087FB00BF00BF00F071FB0646012000F0A4
:103370007FFB2068006840210843216808603046D0
:1033800000F076FB02E02046FFF796F970BD70B5BD
:103390000446656A2846FFF7AFF970BD70B504466C
:1033A00000BF00F053FB0546012000F061FB2068E0
:1033B0000068FF212131884321680860284600F019
:1033C00057FB00BF00BF00F041FB0546012000F0A5
:1033D0004FFB2068806840084000216888602846CC
:1033E00000F046FB00BF206E012810D100BF00F0A6
:1033F0002DFB0546012000F03BFB206800681021F2
:10340000884321680860284600F032FB00BF202175
:103410008020015100202066A06670BD70B5044672
:1034200000BF00F013FB0546012000F021FB2068DF
:1034300000684021884321680860284600F018FB96
:1034400000BF2020E0670020E0662046FFF734F947
:1034500070BD70B5044600BF00F0F8FA05460120C3
:1034600000F006FB20680068C021884321680860DE
:10347000284600F0FDFA00BF2020E06770BD000084
:10348000FEB50446002000902169A06808436169E8
:103490000843E16908430290206800685A490840DF
:1034A00002990843216808602068406803210903E5
:1034B0008843E168084321684860A0690290206A57
:1034C000029908430290206880680B210902884312
:1034D000029908432168886000BF4C4920688842EF
:1034E00017D14B48006B8007800F002806D00128B9
:1034F00008D0022808D0032808D101E0002707E0FF
:10350000022705E0042703E0082701E0102700BF99
:1035100006E040492068884201D1002700E01027DA
:1035200000BF0121C903E069884239D1002F06D0CC
:10353000022F08D0042F08D0082F0DD109E0FEF784
:10354000D9F805460CE0344D0AE0FEF7E5F80546EB
:1035500006E00125ED0303E000250120009000BFF7
:1035600000BF002D4AD06A0063685B08D01861680C
:10357000FCF7BAFD0646102E0FD3284886420CD819
:1035800026480F38304001903007400F019908431A
:10359000019001982168C86030E0012000902DE082
:1035A000002F06D0022F08D0042F08D0082F0DD1ED
:1035B00009E0FEF79FF805460CE0174D0AE0FEF71C
:1035C000ABF8054606E00125ED0303E000250120E8
:1035D000009000BF00BF002D10D061684A0850194C
:1035E000FCF782FD0646102E06D30C48864203D80F
:1035F000B0B22168C86001E0012000900020A06600
:10360000E0660098FEBD0000F369FFFF003801404E
:10361000001002400044004000127A00FFFF00004A
:10362000F8B504460E461546666558200553002138
:1036300084200151222180200151606F00281DD07B
:103640002B48616F88622B48616FC8622A48616F9E
:1036500008630020616F48632368194624312B46B4
:10366000626D606FFDF726FC002807D010218420D2
:1036700001512021802001510120F8BD206900283E
:1036800011D000BF00F0E2F90746012000F0F0F988
:1036900020680068FF21013108432168086038462E
:1036A00000F0E6F900BF00BF00F0D0F907460120A6
:1036B00000F0DEF9206880680121084321688860F5
:1036C000384600F0D5F900BF00BF00F0BFF907464B
:1036D000012000F0CDF9206880684021084321686E
:1036E0008860384600F0C4F900BF0020C5E700003C
:1036F000453200080B330008ED310008FFB581B0FA
:1037000004460D4617460A9E46E0701C002843D02A
:10371000FDF708FE0499401AB04201D8002E02D1EC
:10372000032005B0F0BD206800680421084000288F
:1037300032D0802D30D0402D2ED02068C069082195
:103740000840C00800280FD00820216808622046E1
:10375000FFF724FE08218420015100BF00217820BA
:10376000015500BF0120DCE72068C0690121C902C2
:103770000840C00A00280FD0084621680862204689
:10378000FFF70CFE20218420015100BF002178208A
:10379000015500BF0320C4E72068C0692840A84243
:1037A00001D1012000E00020B842AED00020B8E7EF
:1037B00010B50248FEF704FD10BD0000AC07002064
:1037C00010B50248FEF7FCFC10BD0000F00A002016
:1037D00070B5144CA8212046FCF7F6FC03202061AC
:1037E000606111A0A0611349E16101218902216298
:1037F0000021A1626162E1620BA020660E49616650
:103800001021A16600212167E1666167002505E0BE
:103810000F20401B0949085C60556D1C102DF7D323
:1038200070BD0000C80100205465726D696E616C46
:1038300000000000700200207006002020600008D8
:1038400010B501460A69CB689A4204D88C68641E98
:10385000E41AA01801E0D41A601E10BDF7B584B0B8
:103860000446174600200390E56800BF20690290D7
:103870000298A84203D90298401B461E04E0A168A2
:103880000298281A401C0E1AA068401BB04201D9A9
:10389000304601E0A068401B0646BE4201D23046D9
:1038A00000E03846064660684019019032460599A6
:1038B0000198FCF770FC0398801903900598801913
:1038C0000590BF1BAD19A068A84200D10025E56096
:1038D000002FCBD1039807B0F0BDF7B582B00446F6
:1038E0001546E668A068871BAF420AD96068801950
:1038F00000902A4603990098FCF74DFC7019E0608F
:1039000014E00197606880190090019A039900986B
:10391000FCF741FCE81B0190606800900398C11916
:10392000019A0098FCF737FC0198E06005B0F0BD03
:103930000FB410B504A9074B02AA039800F058F978
:10394000044602A9002000F0F1FC204610BC08BC8F
:1039500004B018472D4300082021020C01D010218B
:103960001046020A01D010460839020901D010465B
:10397000091F820801D01046891E420801D0881E06
:103980007047081A7047F8B582B28BB2040C0D0C60
:1039900010465843002126465E43370C36048019F2
:1039A000794116466E43370C360480197941264614
:1039B0006E438919F8BD30B47446641E2578641CC2
:1039C000AB4204D3635D5B00E31830BC18471D466F
:1039D000F8E7000010B5002819DB1A4A03231B0280
:1039E000D21883089B00D2588307DC0EFF23A34024
:1039F0009A438B071B0E8407E40EA3401A43114B16
:103A0000032424021B198408A4001A5118E00E4A4A
:103A100003071B0F083B9B089B00D2588307DC0E53
:103A2000FF23A3409A438B071B0E8407E40EA34099
:103A30001A43054B0407240F083CA408A4001A519C
:103A400010BD000000E100E01CED00E0EFF310808D
:103A5000704702E008C8121F08C1002AFAD1704757
:103A60007047002001E001C1121F002AFBD17047FE
:103A700080F31088704780F310887047F0B51FB44A
:103A800086B00998089A030D0021024314D05148CA
:103A9000514A1818504305141198012810981AD04B
:103AA000281A401C00264D4F4D4900960191049064
:103AB000002812DA444211E01198012449A3012898
:103AC00001D11098C1430698119A84600360C260C6
:103AD00041600BB0F0BD4042E4E704462105002000
:103AE0003F4A001C51410391029012E0E00707D0C9
:103AF00032463B4601990098FCF74AFE019100903E
:103B000032463B4610461946FCF742FE06460F4633
:103B10006410002CEAD10498039B0028029A0999AA
:103B2000089806DAFCF734FE019B009AFCF730FE99
:103B300005E0FCF7E3FB019B009AFCF7DFFB044682
:103B40000E460022284BFCF7ABFE03D80020C043F2
:103B5000014607E00022254B20463146FCF764FD74
:103B6000FCF77EFE102409E0002C0ADB0A22002369
:103B7000FCF7D0FA079B30321A55641E02460A43FE
:103B8000F2D11122641C079B121B1C19119B012BE3
:103B900003D0012308430ED10AE0084304D01120CA
:103BA00010900020119077E71098151A6D1E0BE009
:103BB0001098824202DD00236D1C03E0824201DA8C
:103BC00000236D1E002BEED0069811998260C16013
:103BD00030C07EE701FCFFFF104D000000001440E4
:103BE0000000F03F300000000000F0430000E03F24
:103BF000FFB597B0064600251BE2252876D10024A4
:103C00002746F749049400E00443761C32780120EB
:103C1000203A90400842F7D130782A280ED002226C
:103C2000307801463039092916D804990A235943B6
:103C3000303940181443761C0490F1E7189802C8F4
:103C400004911890002904DA0120400304434842FB
:103C5000049002200443761C30782E2814D10420CE
:103C600004437078761C2A2809D11898761C80C8DD
:103C7000189009E00A214F43303FC719761C30786D
:103C8000014630390929F5D930786C2810D006DC86
:103C90004C281AD068280ED06A2817D104E074285E
:103CA00013D07A2812D110E00120400504430CE023
:103CB0000121090501E0032109050C4371788142C6
:103CC00003D1012000052418761C761C3078662864
:103CD0000BD013DC58287DD009DC00287BD0452888
:103CE000F6D04628F4D047281AD1A9E118E0632875
:103CF00035D0642870D0652812D1A1E170286CD02D
:103D000008DC6728F1D069287DD06E280DD06F2897
:103D100006D1BCE073282ED0752873D0782859D0EE
:103D20001A9A199990476D1C82E16002400F02288F
:103D300009D003280DD00428189801680DD00D6013
:103D4000001D189074E11898EA1701680D604A6028
:103D5000F6E7189801680D80F2E70D70F0E7189803
:103D60006A4601781172001D18900020507202A856
:103D70000090012005E0189802C8189000200091DA
:103D8000C04361070ED5002101E00199491C019152
:103D9000B94213DA8142F8DB019A0099895C002963
:103DA000F3D10BE0002101E00199491C019181420E
:103DB000FADB019A0099895C0029F5D101990498F0
:103DC0001A9B471A21463846199A00F099FA401969
:103DD000019903E051E030E115E050E0451807E0BB
:103DE000009800990078491C00911A9A19999047F7
:103DF0000198401E0190401CF2D1214638461A9B82
:103E0000199A12E137E00A20002100900191600226
:103E1000410F022907D0189A01CA1892C217944676
:103E2000032908D00AE01898C01DC108C90005C9B7
:103E30001891944607E000B2C2179446042902D1B3
:103E400040B2C1178C4600226146944506DA0A4604
:103E50000021404291418C462D2102E0210504D5EC
:103E60002B216A461173012103E0E10701D02021D3
:103E7000F7E7029156E00A200AE0102008E010203F
:103E800000900021042004430191082703E008204A
:103E90000021019100906002410F022907D0189A79
:103EA00001CA189200229446032908D008E0189805
:103EB000C01DC108C90005C91891944603E080B22D
:103EC000042900D1C0B20021029121072AD53178FE
:103ED0000D91702906D0009A1021019B4A401A4387
:103EE00005D00EE040216A461173012108E06146C9
:103EF000014306D030216A4611730D995173022196
:103F00000291009A0821019B4A401A430AD1614656
:103F1000014301D1610705D530216A4611730121A2
:103F20007F1E02913178582904D02EA10E910DA93F
:103F30000D910DE030A1F9E76146019B009AFCF775
:103F4000E9F80E9B8C469B5C0D9A521E0D921370E5
:103F500061460143F0D10D9805A9081A203001905F
:103F6000600703D501200004844300E00127019885
:103F7000874201DD381A00E00020019900904118C5
:103F8000029809180498401A0490E00306D42146C8
:103F90001A9B199A049800F0B3F94519002706E016
:103FA00003A81A9AC05D199990476D1C7F1C02984E
:103FB0008742F5DBE0030CD521461A9B199A049839
:103FC00000F09EF9451904E01A9A3020199990479B
:103FD0006D1C0099481E00900029F5DC1FE00000D0
:103FE00009280100303132333435363738396162CF
:103FF0006364656600000000303132333435363793
:104000003839414243444546000000000D980D995F
:104010000078491C0D911A9A199990476D1C0199C5
:10402000481E01900029F1DC4DE100F059F94519D5
:10403000761C3078002800D0DFE528461BB0F0BDA4
:10404000600700D406271898C01DC108C900486839
:104050000A680831C30FDB071891190001D09CA131
:1040600008E0210501D59BA104E0E10701D09AA158
:1040700000E09AA14300109130785B0865280CD0CD
:1040800006DC452809D046281DD0472841D141E00B
:10409000662818D067283CD13CE00021112F01DBB5
:1040A000112000E0781C0191009008A911A8FFF7E9
:1040B000E5FC139905910021119A15927F1C129825
:1040C0000197009150E00120C0070390012001906A
:1040D00008A9009711A8FFF7D1FC139A149905922B
:1040E0000022119B009212981593059A01920029C3
:1040F00001D0104602E0791C40180190381A01D511
:10410000019804E04042401E0090781C0190C01BC2
:10411000029043E0012F00DA01270021112F01DD79
:10412000112000E038460191009008A911A8FFF77E
:10413000A5FC13990591119A0021129815920091EE
:10414000019721070CD40599B94201DB019900E0E0
:104150000191012904DD159A491E515C302906D0D0
:10416000B84201DA011D05DA0121029115E0019939
:10417000491EEDE7002805DC0099411800910199DE
:10418000091A03E0019A411C914200DD0191009956
:10419000401A401C02900120C0070390200706D45B
:1041A00002990198814202DB0020C0430290002066
:1041B0006946C87707AF012103980337C9078842CA
:1041C00024D0022011902B201290039800280CDAA2
:1041D000404203902D20129007E00A210398FBF73C
:1041E00083FF30317F1E039039701199481E119062
:1041F0000029F2DC03980028EFD1791E129808708C
:104200003078202108404530BF1E387006A8C01BFA
:10421000C01D039010980078002800D0012001995B
:1042200041180298C0170918039809180498401AF1
:10423000401E0490E00306D421461A9B199A049864
:1042400000F05EF8451910980078002803D01A9AFB
:10425000199990476D1CE00324D521461A9B199AA1
:10426000049800F04DF845191CE00098002807DB81
:1042700000990598884203DD1598405C199901E082
:10428000199930201A9A904700986D1C401C009094
:104290000298401E0290002804D11A9A2E201999E3
:1042A00090476D1C0199481E01900029DDDC05E056
:1042B00038781A9A7F1C199990476D1C0399481EEB
:1042C00003900029F4DC21461A9B199A0498ACE665
:1042D0002D0000002B000000200000000000000066
:1042E000F8B5044600251E461746880404D405E0A8
:1042F00039462020B0476D1C641EF9D52846F8BD0C
:10430000FFB50446002581B01E46C80301D53027FD
:1043100000E02027880404D505E038460399B0471B
:104320006D1C641EF9D5284605B0F0BD0A68531C03
:104330000B60107070470000FCB5014603221402A8
:104340003025802604274020019008200090084650
:104350002D380300FFF72FFB2B4A4D4D171A1C1E5B
:104360002124282B2D304D4D4D4D4D4D4D334D4D70
:10437000364D394D3C3F4D4D414D4318454D4D2532
:104380004D4D4D484D0000BFFF20FCBD0C20FCE70B
:104390001948FAE718483838F7E7E3208000F4E7CF
:1043A00000BF15484430F0E713488430EDE70F2094
:1043B000EBE711488830E8E70F484830E5E70E485A
:1043C0005830E2E7DF208000DFE70B484C30DCE7C5
:1043D000F3208000D9E70948D7E7F020D5E708485F
:1043E000D3E705485030D0E70648CEE70320000267
:1043F000CBE70020C9E70000770300003348000046
:10440000CC240000CCA00000F8B505462846FBF7F8
:10441000E6FEC7B200240FE00520C01B201A46B2FA
:10442000002E01DBA85D00E020200146012220468D
:1044300000F01EF8601CC4B2052CEDD3F8BD70B5B9
:104440000546002406E0295D0122204600F010F810
:10445000601CC4B2052CF6D370BD1CB50446694679
:10446000204600F03EFB6846FFF7E9FF1CBD000058
:10447000F8B505460E461746052D00D3F8BD002FAA
:1044800003D03046FFF758FF00E0002000900024E2
:1044900012E06A010A4BD2186300D05A0122A240EE
:1044A000009B1A40002A01D0012200E000221146A0
:1044B00001F0A5FA601CC4B2102CEAD300BFDDE7FE
:1044C0009660000870B50025002400BF4EE000256E
:1044D000204600F01DFB054608202840002811D08A
:1044E00024480068002803D02046224909688847EC
:1044F000200121494018C0790821884321011E4A22
:104500008918C87110202840002811D01B48006865
:10451000002803D020461949096888472001164918
:104520004018C079102188432101134A8918C871A5
:1045300002202840002809D020010F494018C079E6
:104540000221884321010C4A8918C871042028409F
:10455000002809D0200108494018C0790421884367
:104560002101054A8918C871601CC4B2042CAEDB55
:1045700070BD000068000020940600206C00002040
:1045800010B50021572001F03AFA0021562001F021
:1045900036FA0021552001F032FA0021542001F0B2
:1045A0002EFA10BDF0B587B000260027C948008854
:1045B000002814D1C8480078C84908700621C748A7
:1045C000FCF7A8F90446C5498C712012C87108216E
:1045D000C24801F011FB0120BE49088076E1C048C5
:1045E00000780128FAD1BF480078002835D1BA48B0
:1045F0000088401CB849088008460088EC2801DD86
:10460000E1200880002E10D100270020B649086064
:10461000B6490860B6490860B6490860B6490860FE
:10462000B6490860B649086049E1012EFCD1781C02
:10463000C7B2032F01DB002700260020AA4908602B
:10464000AA490860AA490860AA490860AA490860FE
:10465000AA490860AA49086031E13022A949AA485C
:1046600000F0A4FD0546A81EC1B2A648FCF752F909
:1046700004462112681EA34A105C81427ED1E1B239
:10468000A81E105C8142F9D11B2DF7D100209F4953
:1046900008601046C07808600846006800021146AD
:1046A00009794018994908600846006800021146D7
:1046B000497940189549086008460068000211468B
:1046C000897940189149086008460068FBF78EFE1A
:1046D0000190FBF7BFFE00228D4B03910290FBF788
:1046E0000DFE05910490FBF7C9FE7F49086000208C
:1046F000864908608348C07908600846006800025F
:104700008049097A4018814908600846006800021B
:104710007C49497A40187D490860084600680002D3
:104720007849897A40187949086008460068FBF79B
:104730005DFE0190FBF78EFE0022754B0391029007
:10474000FBF7DCFD05910490FBF798FE67490860D4
:1047500000206E4908606B48C07A0860084600680F
:1047600000026849097B40186849086008460068EB
:10477000FBF73CFE8321C905059000E06AE0FBF7EA
:104780007FFD5B4908600020604908605D48407B10
:1047900008600846006800025A49897B40185B4956
:1047A000086008460068FBF721FE8321C9050590D3
:1047B000FBF766FD4F4908600020544908605148E6
:1047C000C07B08600846006800024E49097C40181A
:1047D0004E49086008460068FBF708FE8321C905BA
:1047E0000590FBF74DFD44490860002047490860EB
:1047F0004448407C08600846006800024149897CC2
:1048000040184249086008460068FBF7EFFD832125
:10481000C9050590FBF734FD3849086000203B4985
:1048200008603848C07C08600846006800023549C6
:10483000097D40183549086008460068FBF7D6FD39
:104840008321C9050590FBF71BFD2D490860002752
:10485000012634E020480088401C1F490880084693
:104860000088EC2801DDE1200880002E10D100270F
:1048700000201D4908601D4908601D4908601D4948
:1048800008601D4908601D4908601D49086016E060
:10489000012E14D1781CC7B2032F01DB002700269C
:1048A0000020114908601149086011490860114948
:1048B000086011490860114908601149086000202A
:1048C00007490870034908800649087001F0A4F9F7
:1048D00007B0F0BD820000208C0000209000002076
:1048E00084000020800000203000002034000020E0
:1048F000380000203C000020400000204400002040
:1049000048000020C00A0020BC08002088000020C9
:104910000000F04070B503460C460021C943002258
:1049200012E0985C414000250BE0C807C00F00284A
:1049300004D04808064E7040014600E04908681C53
:10494000C5B2082DF1D3521CA242EAD3C84370BDB0
:104950002083B8ED70B505460C4622460023294653
:104960000120FCF755FB002801D0002070BD2888ED
:10497000A04201D10120F9E70020F7E710B5044675
:104980003C2202492046FBF706FC10BD00FC000853
:1049900070B504460E492068884201D0002070BDE1
:1049A0006068012801D00020F9E7A0682C2801D018
:1049B0000020F4E72C2120461030FFF7ABFF05461E
:1049C000E068A84201D00020E9E70120E7E7000005
:1049D0004152415010B52948FCF78AF82748006831
:1049E00027490860254840682649086023488068B0
:1049F000254908602148C068244908601F480069AB
:104A0000234908601D484069224908601B488069A5
:104A1000214908601948C069204908601748006AA0
:104A20001F4908601548406A1E4908601348806A9B
:104A30001D490860124800681C4908601148006858
:104A4000486011480068886010480068C8601048D5
:104A5000006808610F48006848610F480068886175
:104A60000E480068C8610E48006808620D4800687A
:104A700048620D480068886210BD00009C0000205C
:104A80000000002004000020080000200C0000208E
:104A90001000002014000020180000201C0000203E
:104AA000200000202400002028000020C800002052
:104AB00070B506460D46304600F04AFB0646042413
:104AC0000CE00A213046FBF70FFB303129550A2153
:104AD0003046FBF709FB0646601E44B2002CF0DAB4
:104AE00070BD70B506460D4629463046FFF7E0FF1B
:104AF000002408E0285D302802D12020285500E05D
:104B000003E0601CC4B2032CF4D300BF70BD0000EE
:104B100070B504460025204600F040FD0546012DF5
:104B20002DD1200134494018007A012821D12001DB
:104B30004018407A401C21012F4A891848722001F0
:104B400011464018407A21018918897A88424DDB44
:104B5000002021018918487221018918087220015A
:104B600011464018C0790221084321018918C871F3
:104B70003CE000202101204A8918487236E02001DB
:104B80001D494018007A00282BD120014018407A96
:104B9000401C2101184A891848722001114640180A
:104BA000407A21018918897A88421FDB002021017F
:104BB00089184872012021018918087220011146C4
:104BC0004018C0790421084321018918C8712001C7
:104BD00011464018C0790821084321018918C8717D
:104BE00004E000202101044A89184872200102498A
:104BF0004018C07970BD00009406002010B5012255
:104C00002021094800F04CFF0122202106480E30E7
:104C100000F046FF00219F2000F0F1FE00216020FF
:104C200000F0EDFE10BD00007A60000808B500BF7E
:104C30002248406901218904084320494861084607
:104C40004069012189040840009000BF00BF00BFF7
:104C50001A484069084319494861084640690121DA
:104C600089040840009000BF00BF00BF134840699E
:104C700008431249486108464069012189040840F7
:104C8000009000BF00BF01200D49486002208860ED
:104C90000120C860800208600A48FCF731FA012050
:104CA000C002074908600748FCF72AFA0120000300
:104CB000034908600348FCF723FA08BD00100240CE
:104CC000340700200004004810B504460020FDF71A
:104CD0007DFD0321042000F020F8E005C00D09212E
:104CE00000F01BF80120FDF771FDFDF78FFD10BDF1
:104CF00010B504460020FDF795FD002C01D00121E0
:104D000000E000210846FDF771FDFDF77FFD012061
:104D1000FDF788FDFDF77AFD10BD70B506460C461F
:104D2000601E45B207E031462941C807C00FFFF7B2
:104D3000DFFF681E45B2002DF5DA70BD70B505467F
:104D4000002407E029462141C807C00FFFF7D0FF24
:104D5000601CC4B2042CF5D370BD70B505460C467A
:104D60006806060E0020FDF731FD03210520FFF740
:104D7000D4FF06213046FFF7D0FF2007000FFFF7D2
:104D8000DDFF2106080FFFF7D9FF0120FDF71EFD0B
:104D9000FDF73CFD70BD0000F8B51748007800F045
:104DA000CFFB0446002C00D1F8BD1448007805283C
:104DB00002D3002011490870104800788000104983
:104DC0000D5829462068FBF78FF907460A21FBF7A3
:104DD0008BF90E46092E05D3E90069182068401AA0
:104DE000206002E0206840192060206800F0B0F9DF
:104DF000206000BFD8E7000072000020740000208F
:104E00006061000810B50446002C08D1FDF77CFF56
:104E100014A10020FEF72CF80020FDF7CDFD012C99
:104E200009D10020FDF770FF12A10020FEF720F845
:104E30000120FDF7C1FD022C09D10020FDF764FF20
:104E400010A10020FEF714F80220FDF7B5FD032C99
:104E500006D10020FDF758FF0EA10020FEF708F84C
:104E600010BD00004B6579315F434C49434B0D0A3F
:104E7000000000004B6579325F434C49434B0D0AFB
:104E8000000000004B6579335F434C49434B0D0AEA
:104E9000000000004B6579345F434C49434B0D0AD9
:104EA0000000000001490860704700006800002011
:104EB00010B50446002C05D1FDF726FF0FA10020F8
:104EC000FDF7D6FF012C06D10020FDF71DFF0FA135
:104ED0000020FDF7CDFF022C06D10020FDF714FFC6
:104EE0000EA10020FDF7C4FF032C06D10020FDF722
:104EF0000BFF0EA10020FDF7BBFF10BD4B65793104
:104F00005F445F434C49434B0D0A00004B657932C7
:104F10005F445F434C49434B0D0A00004B657933B6
:104F20005F445F434C49434B0D0A00004B657934A5
:104F30005F445F434C49434B0D0A00000149086040
:104F4000704700006C00002008B500BF2B48406986
:104F50000121890408432949486108464069012123
:104F600089040840009000BF00BF00BF234840698B
:104F700008432249486108464069012189040840E4
:104F8000009000BF00BF00BF1C48406908431B4998
:104F9000486108464069012189040840009000BF2B
:104FA00000BF00BF154840690843144948610846DE
:104FB0004069012189040840009000BF00BF002023
:104FC0000F494860012088600320C86010200860F5
:104FD0000C48FCF795F82020094908600948FCF7BF
:104FE0008FF84020064908600648FCF789F88020C1
:104FF000034908600348FCF783F808BD001002402D
:10500000800600200004004810B5FFF79DFF00F067
:1050100039F810BD70B5002801DD042800DD70BD31
:10502000441E2401164D2951441E24016419A280F6
:10503000441E24016419A3710125441E2401104E4D
:10504000A419E571441E2401A41925720025441EEB
:105050002401A41965720225441E2401A419A57215
:105060000025441E2401A419E572441E2401A4193C
:1050700025731E25441E2401A419657300BFCEE7C5
:105080009406002010B5002310220B490120FFF7E1
:10509000C1FF0023202208490220FFF7BBFF0023A5
:1050A000402205490320FFF7B5FF00238022024973
:1050B0000420FFF7AFFF10BD0004004800B587B023
:1050C00000BF00BF204840690121890408431E49F0
:1050D000486108464069012189040840019000BFE9
:1050E00000BF00BF00BF00BF174840690843164912
:1050F000486108464069012189040840019000BFC9
:1051000000BF00BF8812029001200390049003208A
:10511000059002A90D48FBF7F3FF01204002029021
:1051200002A90A48FBF7ECFF00BF01221102074861
:10513000FCF7F1F800BF00BF012251020348FCF761
:10514000EAF800BF07B000BD0010024000040048AC
:1051500001460348814200D970470846FCE7000039
:105160009F860100016082800023C3800381704715
:105170000246501C82B28A4201DB00207047104672
:10518000FCE770B504460D46A1882089FFF7F0FFC3
:1051900006462089E188884201D1002070BD21891E
:1051A0002068405C287026810120F7E7F8B50746A3
:1051B0000D461646002400BF08E029193846FFF7BF
:1051C000E0FF002800D103E0601C84B2B442F4DBAD
:1051D00000BF2046F8BD70B504460D46A188E088A2
:1051E000FFF7C6FF06462089B04201D1002070BDFE
:1051F000E18820684554E6800120F8E7F8B50746C5
:105200000D461646002400BF08E0295D3846FFF72A
:10521000E2FF002800D103E0601C84B2B442F4DB5A
:1052200000BF2046F8BD000088B000240020069092
:10523000FCF78AF8FDF72EFEFFF7CCFBFDF742FDE9
:10524000FDF722FDFDF76EFEFFF7F0FCFFF7DCFE39
:10525000FFF734FFFDF776FB4B20C00100F0E4FDC3
:105260004B20C00100F0FEFC4148FDF729FC002066
:10527000FDF74AFD3FA10020FDF7FAFD4148FFF789
:1052800011FE4148FFF75AFE71E0FFF78BF900F07D
:1052900087FC00F0B5F83D493D480068FAF7B3FFD8
:1052A0000590FBF7AAF8054638493A480068FAF72E
:1052B000AAFF0590FBF7A1F806B23449364800680A
:1052C000FAF7A1FF0590FBF798F807462A46314602
:1052D000FDF712FC314801682F480068FBF7EAF837
:1052E00001D264240DE02D4801682B480068FAF7CC
:1052F000C7FF06462A49FAF786FF0546FBF796F8E8
:105300000446E0B2FDF71AFCFDF72CFC25480078B6
:1053100001282CD100BF01022348FBF7F2FF00BF98
:1053200000BF012149022048FBF7EBFF00BF1B48EB
:105330000068FBF78FF805460E4617480068FBF734
:1053400089F80490059122466B4663C317A11C4857
:10535000FEF7EEFAC0B206900020FDF7D5FC184922
:105360000020069AFDF71EFD00200E4908708CE70C
:10537000C800002050726F6A6563742053746172B4
:10538000740D0A00054E0008B14E000800002041CF
:10539000340000204C000020300000202C000020B1
:1053A0000000C8425000002000040048646174619D
:1053B0003A25642C252E32662C252E32660D0A00E5
:1053C000F40000200B480088012812D10A48007818
:1053D00000280ED109480088401C0849088008466A
:1053E0000088462805DD0120034908700020034994
:1053F0000880704782000020840000209800002070
:1054000070B500250B480078012811D130220A49D7
:105410000A48FFF7CBFE054609A10B48FEF788FABC
:10542000C4B22146084800F0AFFB002001490870D3
:1054300070BD00009A000020040E0020000C002027
:1054400068656C6C6F0D0A00340E002000B50146D3
:105450000B00FEF7B0FA0C120708090A0B120C0D2C
:105460000E0F101200BF00BF00BF00BF00BF00BF83
:1054700000BF00BF00BF012000BD0020FCE700000E
:1054800010B50C2105480078401CFAF72DFE0348A2
:10549000017001200249087010BD00007200002058
:1054A0007E00002008480078002803D10B20064920
:1054B000087004E004480078401E03490870012089
:1054C0000249087070470000720000207E00002032
:1054D00000B501460B00FEF76EFA0C1B07090B0D19
:1054E0000F1B11131517191B0AA000BD0AA0FCE71A
:1054F0000AA0FAE70AA0F8E70AA0F6E70AA0F4E78C
:105500000AA0F2E70AA0F0E70AA0EEE70AA0ECE79B
:105510000AA0EAE7313100003130000030390000E4
:1055200030380000303700003035000030340000E3
:105530003033000030320000303100000000000045
:1055400000B501460B00FEF736FA0C2407090C0FD4
:10555000122415181B1E21240F4800BD0E48001DE3
:10556000FBE70D480830F8E70B480C30F5E70A4830
:105570001030F2E708481830EFE707481C30ECE736
:1055800005482030E9E704482430E6E7024828309F
:10559000E3E70020E1E700005407002070B504466F
:1055A00022010D4BD218918822019858FBF7A0FEDA
:1055B00005462001084940188079002805D1002DB2
:1055C00001D1012070BD0020FCE7002D01D1002099
:1055D000F8E70120F6E700009406002010B5114816
:1055E0000078002803D010480078002801D001205E
:1055F00000E0002004460D49096A002901D00CA1F1
:1056000000E00CA10846214600F09AFA0021502043
:1056100000F0F5F9FFF7F2FAFEF7B2FF06A0FEF789
:10562000F3FE10BD730000207D000020480700201D
:105630004F4E00004F46460030360000FEB537485A
:105640000068002801DA002001E0344800680646BE
:1056500032484068002801DA002001E02F48406805
:1056600000902E480825455F3046FFF771FD06463D
:105670000098FFF76DFD009001A93046FFF718FA7A
:105680000021C94301A800F041FA0121502000F097
:10569000B6F90098FEF7E1FE0121542000F0AFF9C1
:1056A0000021572000F0ABF90021562000F0A7F9A7
:1056B0000021552000F0A3F9002D06DA684284B2DB
:1056C00001219F2000F09BF904E0ACB200219F2053
:1056D00000F095F90A21601DFAF706FD84B2632CEB
:1056E00000D963240A212046FAF7FEFC3030C7B205
:1056F000012239460A4800F0D3F90A212046FAF778
:10570000F3FC0F4630370122394605480E3000F0D1
:10571000C7F90121602000F072F9FEBD48070020A2
:105720007A6000087CB50025ED4317480078FFF744
:1057300007FF0446002C00D17CBD69462068FFF7B6
:10574000B7F912480078002808D0114800780028DE
:1057500004D1104800780421081A45B22946684649
:1057600000F0D4F90021502000F049F9FFF746FA83
:10577000FEF706FF04480078FFF7AAFE0646FEF78C
:1057800043FE00BFD8E70000720000207300002035
:105790007D0000207400002010B5FCF7AFFF0C481E
:1057A0000078002802D1FFF749FF0EE00848007892
:1057B000062802D1FFF712FF07E005480078FFF73F
:1057C00045FE002801D0FFF7ADFF00F003F810BD43
:1057D0007200002070B51248867A642E00D96426C3
:1057E000002E01D1002508E031461422514308461D
:1057F00063306421FAF778FCC5B200240CE0AC42B7
:1058000001DA012200E0002211466200054B985A9D
:1058100000F0F5F8601CC4B2142CF0D370BD000089
:10582000480700203661000810B504462068FFF7DD
:105830008FFC20606068FFF78BFC6060A068FFF75A
:1058400087FCA060E068FFF783FCE0602069FFF759
:105850007FFC20616069002801D0012000E0002069
:105860006061A069FFF774FCA061E069FFF770FC5C
:10587000E061206AFFF76CFC2062606AFFF768FC59
:105880006062A06AFFF764FCA06210BD0146488A0E
:105890008A8A904201D1012070470020FCE701462E
:1058A000488A8A8A904207DB488A8A8A801A0A8A4A
:1058B000101A401E80B27047888A4A8A801A401E99
:1058C00080B2F8E70146C8880A89904207DBC88899
:1058D0000A89801A8A88101A401E80B27047088987
:1058E000CA88801A401E80B2F8E730B5039C016078
:1058F00082800025C5800581C3600482458285823F
:1059000030BDF8B504460E46002C01D0002E01D162
:105910000020F8BD00F07CF92046FFF7B7FF002813
:1059200003D000F077F90020F3E7A18A4900E0688E
:10593000475AA08A401CA082A08A218A884201DBA3
:105940000020A08200250EE021892068405C70556F
:105950002089401C20812089A188884201DB002009
:105960002081681C85B2BD42EEDB00F053F9384659
:10597000CFE7F8B504460F461546002C03D0002F9C
:1059800001D0002D01D10020F8BDFF20013085425B
:1059900001DD0020F8E700F03BF92046FFF792FF19
:1059A000A84204DB2046FFF77AFF002803D100F06D
:1059B00031F90020E8E700260EE0B85DE2882168B2
:1059C0008854E088401CE080E088A188884201DBA0
:1059D0000020E080701C86B2AE42EEDB618A490096
:1059E000E0684552608A401C6082608A218A884251
:1059F00001DB0020608200F00DF90120C4E770B5E2
:105A000004460D466107490F6205100E2A46FCF751
:105A100019FF70BD00B50146084637292CD009DCB6
:105A20002D380300FDF7C7FF0A383A3A191C1E202B
:105A30002224263A482829D008DC38281ED03928C4
:105A40001ED041281ED0462828D11DE04E281FD048
:105A50004F2803D06E2821D11CE000BF3F2000BD9D
:105A60000620FCE75B20FAE74F20F8E76620F6E720
:105A70006D20F4E77D20F2E70720F0E77F20EEE7D6
:105A80006F20ECE77720EAE77120E8E77620E6E789
:105A90003720E4E75420E2E74020E0E70020DEE79B
:105AA000F8B504460E461746002F03D03046FFF7E0
:105AB000B1FF00E000200546E907C90F2088FFF785
:105AC0009EFF02222A4051086088FFF798FF0422B7
:105AD0002A409108A088FFF792FF08222A40D108A7
