:020000040800F2
:10000000280400205D030008190200081B020008F4
:100010001F02000823020008270200080000000059
:100020000000000000000000000000002B0200089B
:100030002D020008000000002F0200083102000815
:1000400077030008770300087703000877030008A8
:100050007703000877030008770300087703000898
:100060007703000877030008770300087703000888
:100070007703000877030008770300087703000878
:100080007703000877030008770300087703000868
:100090007703000877030008770300087703000858
:1000A0007703000877030008770300087703000848
:1000B0007703000877030008770300087703000838
:1000C0007703000877030008770300087703000828
:1000D0007703000877030008770300087703000818
:1000E0007703000877030008770300087703000808
:1000F00077030008770300087703000877030008F8
:1001000077030008770300087703000877030008E7
:1001100077030008770300087703000877030008D7
:1001200077030008770300087703000877030008C7
:1001300077030008770300087703000877030008B7
:1001400077030008770300087703000877030008A7
:100150007703000877030008770300087703000897
:100160007703000877030008770300087703000887
:1001700077030008770300087703000800000000F9
:100180007703000877030008DFF810D001F09AFC2D
:1001900000480047A1010008AFF3008028040020B8
:1001A000002400F07EF90723022208214FF4A870F2
:1001B00001F099FB01F0F6FB00F0E2F800F02AF9FB
:1001C00025E04FF40071124800F0B3FD04468CB9ED
:1001D0001E2000F0BEF94FF400710D4800F0A9FD9B
:1001E00004461CB900200B49086010E001200949B1
:1001F00008600CE01E2000F0ACF94FF400710448D8
:1002000000F097FD0446012C01D102490860D8E7AF
:10021000001402408C024242704700BFFEE700BF5C
:10022000FEE700BFFEE700BFFEE77047704770477C
:1002300010B500F06DF910BD3F48006840F4700043
:100240003D4908603D48006840F001003B490860B6
:1002500000203A49083108603848006838490840A9
:10026000364908603748091D0860081F006820F4F7
:100270008020091F0860002030490C3108604FF0D1
:1002800000602D4980390860704770B50020002259
:10029000022300240221294D08352D6805F00C00A9
:1002A00020B1042806D0082834D107E0264D274E77
:1002B000356033E0264D254E35602FE01F4D2D1D56
:1002C0002D68C5F380541D4D2D1D2D6805F03F018F
:1002D00054B11F4DB5FBF1F5184E361D3668C6F307
:1002E000881605FB06F209E0174DB5FBF1F5134E34
:1002F000361D3668C6F3881605FB06F20F4D2D1D18
:100300002D68C5F301456D1C6B00B2FBF3F50F4E74
:10031000356003E00C4D0D4E356000BF00BF074D4A
:1003200008352D68C5F303150A4E705D074D2D681D
:10033000C540064E356070BD88ED00E000380240D3
:10034000FFFFF6FE103000240024F400000000201F
:1003500000127A00061B0008704770470648804765
:1003600006480047FEE7FEE7FEE7FEE7FEE7FEE79A
:10037000FEE7FEE7FEE7FEE7390200088901000814
:1003800000B587B000BF002001901F48006840F012
:1003900010001D4908600846006800F01000019038
:1003A00000BF00BF00BF002001900846006840F079
:1003B000400008600846006800F04000019000BF5F
:1003C00000BF1820029001200390049003200590A4
:1003D00002A90E4800F026FB4FF40070029002A91B
:1003E0000B4800F01FFB01220821084800F0A9FC7F
:1003F00001221021054800F0A4FC0122510204480A
:1004000000F09FFC07B000BD3038024000100240F1
:100410000018024008B500BF002000900D48006899
:1004200040F020000B4908600846006800F02000FA
:10043000009000BF00BF0020074948604FF4707073
:100440000860012088600220C860044800F0EAFAD1
:1004500008BD7047303802401000002000140240F0
:10046000704770B50446714800784FF47A71B1FB5B
:10047000F0F06F490968B1FBF0F5284600F099F9F2
:1004800008B1012070BD102C07D200222146501E59
:1004900000F002F96748046001E00120F2E7002063
:1004A000F0E710B56448006840F4007062490860E5
:1004B0000846006840F480600860052000F0DAF823
:1004C0000F20FFF7CEFFFFF747FF002010BD70475A
:1004D00010B54FF0FF305949086000200860401EF9
:1004E000091D086000200860401E5449103908604A
:1004F00000200860401E091D086000200860401EA2
:10050000091D086000200860FFF727FF002010BDCC
:100510004B480068454909780844494908607047D4
:1005200047480068704743480068704770B5044604
:1005300000253E480078A04206D03C4804703D4863
:100540000068FFF78EFF0546284670BD37480078E3
:10055000704770B50446FFF7E3FF06462546681C62
:1005600010B132480078054400BFFFF7D9FF801B67
:10057000A842FAD370BD4FF0E020006920F00200DD
:100580004FF0E021086170474FF0E020006940F033
:1005900002004FF0E021086170472A4870472A485E
:1005A0000068000C704728480068C0F30B007047D3
:1005B0002548406840F001002349486070472248C0
:1005C000406820F001002049486070471E4840689C
:1005D00040F002001C49486070471B48406820F00A
:1005E00002001949486070471748406840F004000D
:1005F0001549486070471448406820F004001249CB
:1006000048607047012011490860704700200F4979
:10061000086070470E48006870470D48001D00686C
:1006200070470B4808300068704700000C0000203D
:100630000000002008000020003C0240203802405A
:100640000400002000060701002004E00004274207
:10065000107AFF1F10B5002804DB0A07130EEC4ABE
:10066000135406E00A07140EEA4A00F00F031B1F9A
:10067000D45410BD00BF00F00702E64B0C3B1968D4
:100680004FF6FF031940E44B0B4343EA0221E14BD1
:100690000C3B196000BF70472DE9F05F80460D46A6
:1006A0001646002700F0AEF9074639462A4633467B
:1006B00001F00700C0F1070ABAF1040F02D94FF0A8
:1006C000040A01E0C0F1070AD14600F1040ABAF1B8
:1006D000070F02D24FF0000A01E0A0F1030AD4464E
:1006E0004FF0010A0AFA09FAAAF1010A0AEA020A13
:1006F0000AFA0CFA4FF0010B0BFA0CFBABF1010BF1
:100700000BEA030B4AEA0B0421464046FFF7A2FF1F
:10071000BDE8F09F01460846002809DB00F01F03F2
:1007200001229A4043099B0003F1E023C3F8002112
:1007300000BF704710B501460846002817DB00F0DF
:100740001F0301229A40B54B440943F8242000BFFF
:1007500000BF00BFBFF34F8F00BF00BF00BF00BF8F
:1007600000BF00BFBFF36F8F00BF00BF00BF00BF5F
:1007700010BD00BF00BF00BF00BF00BFBFF34F8F61
:1007800000BF00BF00BFA3480C38006800F4E06061
:10079000A1490843001D9F490C39086000BF00BFF4
:1007A00000BFBFF34F8F00BF00BF00BF00BF00BF3F
:1007B000FDE770B504462546681EB0F1807F01D381
:1007C00001200FE0681E4FF0E02148610F214FF03B
:1007D000FF30FFF73FFF00204FF0E0218861072046
:1007E0000861002070BD00BF00BF00BFBFF35F8F76
:1007F00000BF00BF00BF87480C30006820F4803085
:1008000084490C310860002082497C3108607047BF
:1008100040F001017F4A7C3211607E490C31096849
:1008200041F480317B4A0C32116000BF00BF00BF31
:10083000BFF34F8F00BF00BF00BF00BF00BF00BFAE
:10084000BFF36F8F00BF00BF00BF70474178714A90
:10085000803211600178F9B1121D41681160017B8D
:100860000907C27A41EA0261827A41EAC241427BC7
:1008700041EA8241827B41EA4241C27B41EA024134
:10088000427A41EA0221027A41EA420102781143A6
:10089000604A8832116005E000215E4A84321160AE
:1008A000121D1160704710B500F0ACF810BD2DE9B5
:1008B000F04304462046002803DB554F3F5C3F09C8
:1008C00007E0544F00F00F0CACF1040C17F80C705B
:1008D0003F093D460E4606F00700C0F10708B8F193
:1008E000040F02D94FF0040801E0C0F10708C44624
:1008F00000F10408B8F1070F02D24FF0000801E040
:10090000A0F10308474625FA07F84FF0010909FA54
:100910000CF9A9F1010908EA0908C2F800804FF0B2
:10092000010808FA07F8A8F1010808EA0508C3F861
:10093000008000BFBDE8F08310B5014608460028DE
:1009400008DB00F01F0301229A40344B8033440936
:1009500043F8242000BF10BD10B50146084600280A
:100960000EDB2E4A8032430952F8232000F01F0488
:100970000123A3401A400AB1012202E0002200E054
:100980000022104610BD10B501460846002807DBBE
:1009900000F01F0301229A40214B440943F8242010
:1009A00000BF10BD10B50146084600280EDB1C4AEA
:1009B0008032430952F8232000F01F040123A34092
:1009C0001A400AB1012202E0002200E00022104693
:1009D00010BD042808D14FF0E021096941F004015D
:1009E0004FF0E022116107E04FF0E021096921F0AA
:1009F00004014FF0E02211617047704710B5FFF716
:100A0000FCFF10BD03480C380068C0F3022070479B
:100A100000E400E018ED00E00000FA0580E100E0ED
:100A200080E200E0F8B502460B46002500240020D5
:100A30000021DCE0012606FA01F51E6806EA05043D
:100A4000AC4273D15E68022E02D05E68122E13D1C2
:100A5000CF0802F1200656F827004E07F70E0F26A2
:100A6000BE40B0434F07FF0E1E69BE403043CF0863
:100A700002F1200646F8270010684F000326BE400A
:100A8000B0431E7906F003064F00BE4030431060AD
:100A90005E68012E08D05E68022E05D05E68112EB9
:100AA00002D05E68122E13D190684F000326BE401C
:100AB000B0434F00DE68BE4030439060506801266E
:100AC0008E40B0431E79C6F300168E40304350600E
:100AD000D0684F000326BE40B0434F009E68BE4022
:100AE0003043D0605E6806F08056B6F1805F7DD1FD
:100AF00000BF00260096AD4E366846F48046AB4FE8
:100B00003E603E46366806F48046009600BF00BF51
:100B1000A74E8F0856F827008E07370F0F26BE40C6
:100B2000B043A44EB24202D1002624E05EE0A24EC1
:100B3000B24201D101261EE0A04EB24201D10226EE
:100B400019E09F4EB24201D1032614E09D4EB242FD
:100B500001D104260FE09C4EB24201D105260AE0E5
:100B60009A4EB24201D1062605E0994EB24201D119
:100B7000072600E008268F073F0FBE4030438C4E0B
:100B80008F0846F82700934E3068A0435E6806F44D
:100B90008036B6F5803F00D120438E4E3060361D42
:100BA0003068A0435E6806F40036B6F5003F00D119
:100BB0002043884E361D3060361D3068A0435E6885
:100BC00006F48016B6F5801F00D12043814E08360A
:100BD0003060361D3068A0435E6806F40016B6F536
:100BE000001F00D120437B4E0C363060491C102979
:100BF000FFF420AFF8BDF0B50C460025002200231D
:100C0000002192E0012606FA01F504EA0502AA4253
:100C10007ED1674E8F0856F827308E07370F0F2684
:100C2000BE403340634EB04201D1002623E0624E05
:100C3000B04201D101261EE0604EB04201D1022631
:100C400019E05F4EB04201D1032614E05D4EB04280
:100C500001D104260FE05C4EB04201D105260AE026
:100C60005A4EB04201D1062605E0594EB04201D19C
:100C7000072600E008268F073F0FBE409E4222D184
:100C80008E07370F0F2606FA07F3494E8F0856F8DE
:100C900027609E43464F4FEA910C47F82C604D4E1B
:100CA000366896434B4F3E603E1D366896433F1D67
:100CB0003E603E1D366896433F1D3E603E1D3668D1
:100CC00096433F1D3E6006684FEA410C032707FA32
:100CD0000CF7BE430660CF0800F1200656F82760E7
:100CE0004F074FEAD76C0F2707FA0CF7BE434FEABE
:100CF000D10C00F1200747F82C6086684FEA410CC0
:100D0000032707FA0CF7BE4386604768012600E018
:100D10000AE08E40B7434760C6684FEA410C03279C
:100D200007FA0CF7BE43C660491C1029FFF46AAFEE
:100D3000F0BD024613690B400BB1012000E000201A
:100D400070470AB1816101E00B0483617047426919
:100D50000A408A4202D10A04826100E08161704740
:100D600008B502464FF48030009000980843009088
:100D70000098D061D1610098D061D0690090D069AD
:100D800000F4803008B1002008BD0120FCE7704766
:100D900010B504460F4814300068204028B10D48B3
:100DA000143004602046FFF7F2FF10BD44380240C3
:100DB00008380140000002400004024000080240E0
:100DC000000C0240001002400014024000180240D3
:100DD000001C0240003C014000207047F8B504466A
:100DE0000CB90120F8BD207800F00100002874D073
:100DF000F948006800F00C0004280DD0F64800689F
:100E000000F00C00082813D1F348001F006800F41C
:100E10008000B0F5800F0BD1EF4808380068C0F3B0
:100E20004040002859D06068002856D10120D9E7F9
:100E300000BF6068B0F5803F08D1E7480838006817
:100E400040F48030E449083908601EE06068B0F57D
:100E5000A02F0DD1E0480838006840F48020DE491A
:100E6000083908600846006840F4803008600CE0EB
:100E7000D9480838006820F48030D749083908601C
:100E80000846006820F48020086000BF606890B1C8
:100E9000FFF746FB054606E0FFF742FB401B6428D0
:100EA00001D903209EE7CC4808380068C0F34040D1
:100EB0000028F1D011E0FFF733FB054606E0FFF70D
:100EC0002FFB401B642801D903208BE7C248083858
:100ED0000068C0F340400028F1D1207800F0020003
:100EE00002285FD1BC48006800F00C0058B1BA4835
:100EF000006800F00C0008281CD1B748001F0068EB
:100F000000F48000B0B9B44808380068C0F340006D
:100F100020B1E068012801D0012063E7AE4808381D
:100F2000006820F0F800216940EAC100AA490839A8
:100F3000086037E0E06800B30120A8490860FFF7C7
:100F4000EFFA054606E0FFF7EBFA401B022801D94D
:100F5000032047E7A04808380068C0F34000002895
:100F6000F1D09D480838006820F0F800216940EA77
:100F7000C10099490839086014E0002097490860C9
:100F8000FFF7CEFA054606E0FFF7CAFA401B022833
:100F900001D9032026E7904808380068C0F34000D4
:100FA0000028F1D1207800F0080008282CD16069D1
:100FB000A8B101208A490860FFF7B2FA054606E0A9
:100FC000FFF7AEFA401B022801D903200AE7824846
:100FD0006C300068C0F340000028F1D014E000201D
:100FE0007F490860FFF79CFA054606E0FFF798FA8C
:100FF000401B022801D90320F4E677486C300068D2
:10100000C0F340000028F1D1207800F0040004284B
:1010100070D1002670483830006800F0805090B9D8
:1010200000BF002000906C483830006840F08050CD
:101030006949383108600846006800F08050009027
:1010400000BF00BF01266748006800F48070B0B997
:101050006448006840F4807062490860FFF760FAF5
:10106000054606E0FFF75CFA401B022801D9032081
:10107000B8E65C48006800F480700028F2D000BF39
:10108000A068012808D154486830006840F0010089
:101090005149683108601DE0A06805280DD14E480F
:1010A0006830006840F004004B4968310860084629
:1010B000006840F0010008600CE0474868300068B4
:1010C00020F001004449683108600846006820F0BB
:1010D0000400086000BFA068A8B1FFF721FA054628
:1010E00009E0FFF71DFA401B41F28831884202D91E
:1010F000032077E626E0384868300068C0F34000F7
:101100000028EED013E0FFF70BFA054608E0FFF7E2
:1011100007FA401B41F28831884201D9032061E679
:101120002D4868300068C0F340000028EFD1012E40
:1011300007D129483830006820F0805026493831DE
:10114000086000BFA069B8B32348006800F00C0035
:1011500008285ED0A069022846D100201F490866F1
:10116000FFF7DEF9054606E0FFF7DAF9401B022833
:1011700001D9032036E6184808380068C0F34060FB
:101180000028F1D1D4E907010843616A40EA8111DE
:101190000122A06AC2EB500041EA00412C20005D10
:1011A00041EA00600C49091F086001200B490866EC
:1011B000FFF7B6F9054607E02DE0FFF7B1F9401B50
:1011C000022801D903200DE6034808380068C0F35F
:1011D00040600028F1D01EE008380240000047427D
:1011E000800E4742007000400020F9490866FFF772
:1011F00097F9054606E0FFF793F9401B022801D94D
:101200000320EFE5F3480068C0F340600028F2D106
:1012100001E00120E6E50020E4E52DE9F0470024A7
:1012200000250026A146EB480830006800F00C00BD
:1012300020B1042805D008283AD105E0DFF89893BA
:1012400039E0DFF8989336E0E248001D006800F0CE
:101250003F04E048001D006800F4800078B1DF48DA
:10126000DC49091D0968C1F38811A0FB0170014622
:1012700022460023384600F0D5FB05460EE0D6484E
:10128000D449091D0968C1F38811A0FB017001460A
:1012900022460023384600F0C5FB0546CD48001D18
:1012A0000068C0F30140401C4600B5FBF6F902E0BF
:1012B000DFF8249300BF00BF4846BDE8F08770B553
:1012C00004460D460CB9012070BDC548006800F009
:1012D0000F00A84209D2C2490D700846006800F00C
:1012E0000F00A84201D00120EEE7207800F00200B4
:1012F000022823D1207800F00400042807D1B54843
:101300000830006840F4E050B249083108602078A5
:1013100000F00800082807D1AE480830006840F403
:101320006040AC4908310860AA480830006820F0E5
:10133000F000A1680843A74908310860207800F050
:101340000100A0B36068012806D1A2480068C0F37C
:101350004040A8B90120B7E76068022802D0606861
:10136000032806D19B480068C0F3406040B90120C3
:10137000AAE798480068C0F3400008B90120A3E735
:1013800094480830006820F00300616808439149E0
:1013900008310860FFF7C4F8064609E0FFF7C0F817
:1013A000801B41F28831884202D903208CE708E093
:1013B00088480830006800F00C006168B0EB810FCD
:1013C000ECD18748006800F00F00A84209D9844991
:1013D0000D700846006800F00F00A84201D00120FF
:1013E00072E7207800F00400042809D17948083019
:1013F000006820F4E050E16808437649083108604D
:10140000207800F0080008280AD1724808300068E7
:1014100020F46040216940EAC1006E49083108604B
:10142000FFF7FBFE6B4908310968C1F303116D4AF0
:10143000515CC8406C4908600F20FFF712F800208B
:1014400042E770B586B006460C46154656BB00BF4F
:10145000002000905F483030006840F001005D4996
:10146000303108600846006800F00100009000BFBD
:1014700000BF8815019002200290032004900020F4
:101480000390059001A95948FFF7CCFA514808305C
:10149000006820F0EC6044EA050108434D4908313A
:1014A000086029E000BF002000904A483030006802
:1014B00040F004004749303108600846006800F0F9
:1014C0000400009000BF00BF481501900220029068
:1014D0000320049000200390059001A94448FFF7E1
:1014E000A1FA3C480830006820F0784044EAC50181
:1014F000084338490831086006B070BD01203449FE
:10150000C864704700203249C86470473648006894
:10151000704700B5FFF7FAFF2E4908310968C1F39B
:101520008221344A515CC84000BD00B5FFF7EEFF90
:10153000284908310968C1F342312E4A515CC8403C
:1015400000BD0F2101602349096801F48021B1F534
:10155000802F03D14FF4A02141600CE01D490968A0
:1015600001F48031B1F5803F03D14FF48031416007
:1015700001E0002141601749096801F0010111B142
:101580000121C16001E00021C16012490968C1F375
:10159000C40101610F497031096801F00401042997
:1015A00002D1052181600AE00A497031096801F021
:1015B000010111B10121816001E000218160054933
:1015C0007431096801F00101B1B10121416115E0F7
:1015D00000004742003802400024F40000127A0064
:1015E000003C0240061B00080000002000000240F2
:1015F00000080240161B0008002141612F490968BC
:1016000001F08071B1F1807F02D10221816101E09E
:10161000012181612949091D096801F48002C26123
:101620002649091D096801F03F0202622349091D8C
:101630000968C1F3881242622049091D096801F452
:10164000403101F58031CA0B82621C49091D0968CD
:10165000C1F30362C26270470F220260174A083268
:10166000126802F003024260144A0832126802F063
:10167000F0028260114A0832126802F4E052C2603D
:101680000E4A0832126802F46042D20802610C4A23
:10169000126802F00F020A607047704710B50748E1
:1016A0000C30006800F08000802805D1FFF7F5FFBE
:1016B000802002490E31087010BD00000038024041
:1016C000003C02400A460021DBE0D30B002B75D022
:1016D000102971D2DFE801F0080F161D242B3239D2
:1016E00040464C52585E646A038823F4004303F575
:1016F0000043038060E0038823F4804303F58043C4
:10170000038059E0038823F4005303F5005303805A
:1017100052E0038823F4805303F5805303804BE0A9
:10172000038823F4006303F50063038044E0038827
:1017300023F4806303F5806303803DE0038823F492
:10174000007303F50073038036E0038823F480738D
:1017500003F5807303802FE0038823F08003803338
:10176000038029E0038823F040034033038023E013
:10177000038823F02003203303801DE0038823F037
:1017800010031033038017E0038823F008030833A5
:10179000038011E0038823F004031B1D03800BE08A
:1017A000038823F002039B1C038005E0038823F0D9
:1017B00001035B1C038000BF5DE0FFE7102959D2E5
:1017C000DFE801F0080D12171C21262B30353A3FB7
:1017D00044494E53038823F4004303804AE00388BE
:1017E00023F48043038045E0038823F400530380FF
:1017F00040E0038823F4805303803BE0038823F414
:101800000063038036E0038823F48063038031E0C3
:10181000038823F4007303802CE0038823F480738F
:10182000038027E0038823F08003038022E00388FD
:1018300023F0400303801DE0038823F0200303808E
:1018400018E0038823F01003038013E0038823F0DB
:10185000080303800EE0038823F00403038009E0FB
:10186000038823F00203038004E0038823F00103CC
:10187000038000BF00BF4FF6FF7303EA42024B1C18
:10188000D9B21029FFF621AF7047F0B51C460026EB
:1018900000250123C1F11007974202DAC1F11007B8
:1018A000FAB20E46002E0CDD05E0EF18BDB24FF681
:1018B000FF7707EA4303371EA6F1010C0CF0FF0681
:1018C000F3D1D0F814C04FF6FF7797408F402F43E5
:1018D0000CEA070CC0F814C0476904FA01FC47EA97
:1018E0000C074761F0BD2DE9F04192B004468846EF
:1018F00015461E46002700BF00200090454800689E
:1019000040F08050434908600846006800F080506D
:10191000009000BF00BF00BF002000903E4800685C
:1019200040F480403C4908600846006800F480406C
:10193000009000BF00BF0120069000040790022025
:101940000C9041050D91CDF838800F9410951196AB
:1019500006A8FFF743FA07460FB100BFFEE70F20C6
:10196000019002200290002003904FF4A0500490B8
:101970004FF480500590052101A8FFF7A0FC074611
:101980000FB100BFFEE7FEF70AFE41F201018842F7
:1019900005D12248006840F480702049086012B0E8
:1019A000BDE8F08110B50020FFF713F815201C49A1
:1019B000087010BD01461A4A12784A434FF0E023DE
:1019C0005A6100229A611A46126942F001021A61B4
:1019D00000BF4FF0E022106900F001021AB100F4DC
:1019E0008032002AF5D04FF0E022126922F0010285
:1019F0004FF0E0231A6100229A61704730B5044627
:101A0000002504E04FF47A70FFF7D4FF6D1CA54267
:101A1000F8D330BD4038024000700040003C024026
:101A20000D0000202DE9F05F0546002092469B4600
:101A300088460646814640241BE0284641464746E4
:101A4000224600F02FF853465A46C01A914110D34F
:101A500011461846224600F016F82D1A67EB0108C9
:101A60004F4622460120002100F00DF817EB000937
:101A70004E41201EA4F10104DFDC484631462A46CF
:101A80004346BDE8F09F202A04DB203A00FA02F129
:101A9000002070479140C2F1200320FA03F319435C
:101AA00090407047202A04DB203A21FA02F00021FE
:101AB000704721FA02F3D040C2F12002914008435E
:101AC00019467047064C074D06E0E06840F00103F8
:101AD00094E8070098471034AC42F6D3FEF758FB61
:101AE000201B0008401B000802E008C8121F08C1A4
:101AF000002AFAD170477047002001E001C1121F8F
:101B0000002AFBD170470000000000000000010225
:101B10000304060708090000000001020304000096
:101B2000401B00080000002010000000E81A000818
:101B3000501B00081000002018040000F81A0008CC
:101B40000024F4000000000010000000010000006C
:040000050800018965
:00000001FF
