:020000040800F2
:10000000680400200D030008C9010008CB010008A6
:10001000CF010008D3010008D7010008000000004C
:10002000000000000000000000000000DB010008EC
:10003000DD01000800000000DF010008E101000808
:1000400027030008270300082703000827030008E8
:1000500027030008270300082703000827030008D8
:1000600027030008270300082703000827030008C8
:1000700027030008270300082703000827030008B8
:1000800027030008270300082703000827030008A8
:100090002703000827030008270300082703000898
:1000A0002703000827030008270300082703000888
:1000B0002703000827030008270300082703000878
:1000C0002703000827030008270300082703000868
:1000D0002703000827030008270300082703000858
:1000E0002703000827030008270300082703000848
:1000F0002703000827030008270300082703000838
:100100002703000827030008270300082703000827
:1001100027030008270300088904000827030008B4
:100120002703000827030008270300082703000807
:1001300027030008270300082703000827030008F7
:1001400027030008270300082703000827030008E7
:1001500027030008270300082703000827030008D7
:1001600027030008270300082703000827030008C7
:1001700027030008270300082703000800000000E9
:100180002703000827030008DFF810D005F000FE61
:1001900000480047A1010008AFF300806804002078
:1001A00000BF00F0B8F90723022208214FF4A8701D
:1001B00005F0FFFC05F05CFD00F0BAF800F002F974
:1001C00000F026F900BFFEE7704700BFFEE700BF62
:1001D000FEE700BFFEE700BFFEE7704770477047CD
:1001E00010B500F0CFF910BD3F48006840F4700032
:1001F0003D4908603D48006840F001003B49086007
:1002000000203A49083108603848006838490840F9
:10021000364908603748091D0860081F006820F447
:100220008020091F0860002030490C3108604FF021
:1002300000602D4980390860704770B500200022A9
:10024000022300240221294D08352D6805F00C00F9
:1002500020B1042806D0082834D107E0264D274EC7
:10026000356033E0264D254E35602FE01F4D2D1DA6
:100270002D68C5F380541D4D2D1D2D6805F03F01DF
:1002800054B11F4DB5FBF1F5184E361D3668C6F357
:10029000881605FB06F209E0174DB5FBF1F5134E84
:1002A000361D3668C6F3881605FB06F20F4D2D1D68
:1002B0002D68C5F301456D1C6B00B2FBF3F50F4EC5
:1002C000356003E00C4D0D4E356000BF00BF074D9B
:1002D00008352D68C5F303150A4E705D074D2D686E
:1002E000C540064E356070BD88ED00E00038024024
:1002F000FFFFF6FE103000240024F4000000002070
:1003000000127A00D25D00087047704706488047A7
:1003100006480047FEE7FEE7FEE7FEE7FEE7FEE7EA
:10032000FEE7FEE7FEE7FEE7E901000889010008B5
:1003300000B587B000BF002001901F48006840F062
:1003400010001D4908600846006800F01000019088
:1003500000BF00BF00BF002001900846006840F0C9
:10036000400008600846006800F04000019000BFAF
:1003700000BF1820029001200390049003200590F4
:1003800002A90E4800F088FB4FF40070029002A909
:100390000B4800F081FB01220821084800F00BFD0A
:1003A00001221021054800F006FD012251020448F7
:1003B00000F001FD07B000BD3038024000100240DF
:1003C0000018024008B500BF002000900D480068EA
:1003D00040F020000B4908600846006800F020004B
:1003E000009000BF00BF0020074948604FF47070C4
:1003F0000860012088600220C860044800F04CFBBF
:1004000008BD70473038024014000020001402403C
:1004100008B500BF002000902948006840F0100097
:10042000274908600846006800F01000009000BFEF
:1004300000BF2448244908608021234881610021AD
:10044000016181606321C16042F2CF001E494860B2
:10045000084601F0C7F901221146362000F056F98E
:10046000362000F091F918480068C06840F001009B
:1004700015490968C8606FF00100134909680861EF
:10048000114801F01EFA08BD10B50F4802F036FE03
:1004900010BD10B504460B49206888420FD10B48A7
:1004A0000068401C0949086008460068322806D9DF
:1004B0000821074800F085FC00200449086010BDB1
:1004C00040380240001000402800002004000020B6
:1004D00000100240704770B50446714800784FF430
:1004E0007A71B1FBF0F06F490968B1FBF0F528466D
:1004F00000F099F908B1012070BD102C07D200223C
:100500002146501E00F002F96748046001E0012016
:10051000F2E70020F0E710B56448006840F400708E
:10052000624908600846006840F480600860052061
:1005300000F0DAF80F20FFF7CEFFFFF7E5FE00200E
:1005400010BD704710B54FF0FF30594908600020CA
:100550000860401E091D086000200860401E5449C4
:100560001039086000200860401E091D0860002046
:100570000860401E091D086000200860FFF7C5FEE6
:10058000002010BD4B480068454909780844494996
:1005900008607047474800687047434800687047E4
:1005A00070B5044600253E480078A04206D03C487D
:1005B00004703D480068FFF78EFF0546284670BD71
:1005C00037480078704770B50446FFF7E3FF0646EA
:1005D0002546681C10B132480078054400BFFFF77B
:1005E000D9FF801BA842FAD370BD4FF0E02000690C
:1005F00020F002004FF0E021086170474FF0E0204A
:10060000006940F002004FF0E021086170472A487D
:1006100070472A480068000C704728480068C0F3FB
:100620000B0070472548406840F0010023494860AE
:1006300070472248406820F0010020494860704718
:100640001E48406840F002001C49486070471B4843
:10065000406820F002001949486070471748406818
:1006600040F004001549486070471448406820F085
:100670000400124948607047012011490860704722
:1006800000200F49086070470E48006870470D4809
:10069000001D006870470B48083000687047000074
:1006A00010000020000000200C000020003C024050
:1006B000203802400800002000060701002004E066
:1006C00000042742107AFF1F10B5002804DB0A0738
:1006D000130EEC4A135406E00A07140EEA4A00F01F
:1006E0000F031B1FD45410BD00BF00F00702E64BE0
:1006F0000C3B19684FF6FF031940E44B0B4343EAE8
:100700000221E14B0C3B196000BF70472DE9F05FFF
:1007100080460D461646002700F0AEF907463946DA
:100720002A46334601F00700C0F1070ABAF1040F68
:1007300002D94FF0040A01E0C0F1070AD14600F1E6
:10074000040ABAF1070F02D24FF0000A01E0A0F14B
:10075000030AD4464FF0010A0AFA09FAAAF1010A7B
:100760000AEA020A0AFA0CFA4FF0010B0BFA0CFB28
:10077000ABF1010B0BEA030B4AEA0B04214640469E
:10078000FFF7A2FFBDE8F09F01460846002809DBFD
:1007900000F01F0301229A4043099B0003F1E0236C
:1007A000C3F8002100BF704710B501460846002875
:1007B00017DB00F01F0301229A40B54B440943F8B0
:1007C000242000BF00BF00BFBFF34F8F00BF00BF9A
:1007D00000BF00BF00BF00BFBFF36F8F00BF00BFEF
:1007E00000BF00BF10BD00BF00BF00BF00BF00BF03
:1007F000BFF34F8F00BF00BF00BFA3480C38006895
:1008000000F4E060A1490843001D9F490C390860CD
:1008100000BF00BF00BFBFF34F8F00BF00BF00BFCE
:1008200000BF00BFFDE770B504462546681EB0F165
:10083000807F01D301200FE0681E4FF0E021486166
:100840000F214FF0FF30FFF73FFF00204FF0E02176
:10085000886107200861002070BD00BF00BF00BF95
:10086000BFF35F8F00BF00BF00BF87480C30006838
:1008700020F4803084490C310860002082497C31AA
:100880000860704740F001017F4A7C3211607E4968
:100890000C31096841F480317B4A0C32116000BF91
:1008A00000BF00BFBFF34F8F00BF00BF00BF00BF3E
:1008B00000BF00BFBFF36F8F00BF00BF00BF704716
:1008C0004178714A803211600178F9B1121D416896
:1008D0001160017B0907C27A41EA0261827A41EA2A
:1008E000C241427B41EA8241827B41EA4241C27B72
:1008F00041EA0241427A41EA0221027A41EA420196
:1009000002781143604A8832116005E000215E4A96
:1009100084321160121D1160704710B500F0ACF800
:1009200010BD2DE9F04304462046002803DB554F57
:100930003F5C3F0907E0544F00F00F0CACF1040C92
:1009400017F80C703F093D460E4606F00700C0F14F
:100950000708B8F1040F02D94FF0040801E0C0F114
:100960000708C44600F10408B8F1070F02D24FF09F
:10097000000801E0A0F10308474625FA07F84FF008
:10098000010909FA0CF9A9F1010908EA0908C2F8F4
:1009900000804FF0010808FA07F8A8F1010808EAFA
:1009A0000508C3F8008000BFBDE8F08310B501461C
:1009B0000846002808DB00F01F0301229A40344B50
:1009C0008033440943F8242000BF10BD10B5014610
:1009D000084600280EDB2E4A8032430952F82320B5
:1009E00000F01F040123A3401A400AB1012202E0D3
:1009F000002200E00022104610BD10B50146084656
:100A0000002807DB00F01F0301229A40214B440914
:100A100043F8242000BF10BD10B501460846002849
:100A20000EDB1C4A8032430952F8232000F01F04D9
:100A30000123A3401A400AB1012202E0002200E093
:100A40000022104610BD042808D14FF0E0210969AA
:100A500041F004014FF0E022116107E04FF0E02186
:100A6000096921F004014FF0E022116170477047DD
:100A700010B5FFF7FCFF10BD03480C380068C0F349
:100A80000220704700E400E018ED00E00000FA05E5
:100A900080E100E080E200E0F8B502460B46002568
:100AA000002400200021DCE0012606FA01F51E6882
:100AB00006EA0504AC4273D15E68022E02D05E687D
:100AC000122E13D1CF0802F1200656F827004E0748
:100AD000F70E0F26BE40B0434F07FF0E1E69BE4003
:100AE0003043CF0802F1200646F8270010684F0077
:100AF0000326BE40B0431E7906F003064F00BE40F9
:100B0000304310605E68012E08D05E68022E05D06A
:100B10005E68112E02D05E68122E13D190684F00CD
:100B20000326BE40B0434F00DE68BE4030439060B5
:100B3000506801268E40B0431E79C6F300168E40E1
:100B400030435060D0684F000326BE40B0434F0092
:100B50009E68BE403043D0605E6806F08056B6F1B5
:100B6000805F7DD100BF00260096AD4E366846F40A
:100B70008046AB4F3E603E46366806F4804600969F
:100B800000BF00BFA74E8F0856F827008E07370F0B
:100B90000F26BE40B043A44EB24202D1002624E04C
:100BA0005EE0A24EB24201D101261EE0A04EB2424A
:100BB00001D1022619E09F4EB24201D1032614E072
:100BC0009D4EB24201D104260FE09C4EB24201D1AB
:100BD00005260AE09A4EB24201D1062605E0994E5A
:100BE000B24201D1072600E008268F073F0FBE4022
:100BF00030438C4E8F0846F82700934E3068A04350
:100C00005E6806F48036B6F5803F00D120438E4EF4
:100C10003060361D3068A0435E6806F40036B6F5D5
:100C2000003F00D12043884E361D3060361D3068AD
:100C3000A0435E6806F48016B6F5801F00D12043FD
:100C4000814E08363060361D3068A0435E6806F479
:100C50000016B6F5001F00D120437B4E0C363060E5
:100C6000491C1029FFF420AFF8BDF0B50C46002553
:100C700000220023002192E0012606FA01F504EA91
:100C80000502AA427ED1674E8F0856F827308E079C
:100C9000370F0F26BE403340634EB04201D10026CD
:100CA00023E0624EB04201D101261EE0604EB04208
:100CB00001D1022619E05F4EB04201D1032614E0B3
:100CC0005D4EB04201D104260FE05C4EB04201D12E
:100CD00005260AE05A4EB04201D1062605E0594EDB
:100CE000B04201D1072600E008268F073F0FBE4023
:100CF0009E4222D18E07370F0F2606FA07F3494E80
:100D00008F0856F827609E43464F4FEA910C47F8EC
:100D10002C604D4E366896434B4F3E603E1D366804
:100D200096433F1D3E603E1D366896433F1D3E6024
:100D30003E1D366896433F1D3E6006684FEA410CF3
:100D4000032707FA0CF7BE430660CF0800F1200620
:100D500056F827604F074FEAD76C0F2707FA0CF7B2
:100D6000BE434FEAD10C00F1200747F82C6086689B
:100D70004FEA410C032707FA0CF7BE438660476829
:100D8000012600E00AE08E40B7434760C6684FEA9C
:100D9000410C032707FA0CF7BE43C660491C102913
:100DA000FFF46AAFF0BD024613690B400BB101209E
:100DB00000E0002070470AB1816101E00B0483610B
:100DC000704742690A408A4202D10A04826100E007
:100DD0008161704708B502464FF48030009000985A
:100DE000084300900098D061D1610098D061D0692B
:100DF0000090D06900F4803008B1002008BD0120C7
:100E0000FCE7704710B504460F48143000682040D6
:100E100028B10D48143004602046FFF7F2FF10BDE2
:100E200044380240083801400000024000040240FB
:100E300000080240000C0240001002400014024072
:100E400000180240001C0240003C01400020704796
:100E5000F8B504460CB90120F8BD207800F0010077
:100E6000002874D0F948006800F00C0004280DD068
:100E7000F648006800F00C00082813D1F348001F62
:100E8000006800F48000B0F5800F0BD1EF480838FF
:100E90000068C0F34040002859D06068002856D14F
:100EA0000120D9E700BF6068B0F5803F08D1E7486E
:100EB0000838006840F48030E449083908601EE0D2
:100EC0006068B0F5A02F0DD1E0480838006840F404
:100ED0008020DE49083908600846006840F4803008
:100EE00008600CE0D9480838006820F48030D74901
:100EF000083908600846006820F48020086000BFB8
:100F0000606890B1FFF746FB054606E0FFF742FB3D
:100F1000401B642801D903209EE7CC4808380068AC
:100F2000C0F340400028F1D011E0FFF733FB054645
:100F300006E0FFF72FFB401B642801D903208BE755
:100F4000C24808380068C0F340400028F1D120783A
:100F500000F0020002285FD1BC48006800F00C00DD
:100F600058B1BA48006800F00C0008281CD1B748F6
:100F7000001F006800F48000B0B9B4480838006869
:100F8000C0F3400020B1E068012801D0012063E7F0
:100F9000AE480838006820F0F800216940EAC10036
:100FA000AA490839086037E0E06800B30120A84981
:100FB0000860FFF7EFFA054606E0FFF7EBFA401B83
:100FC000022801D9032047E7A04808380068C0F389
:100FD00040000028F1D09D480838006820F0F80053
:100FE000216940EAC10099490839086014E00020ED
:100FF00097490860FFF7CEFA054606E0FFF7CAFA00
:10100000401B022801D9032026E7904808380068D1
:10101000C0F340000028F1D1207800F00800082833
:101020002CD16069A8B101208A490860FFF7B2FAA3
:10103000054606E0FFF7AEFA401B022801D903205F
:101040000AE782486C300068C0F340000028F1D005
:1010500014E000207F490860FFF79CFA054606E08F
:10106000FFF798FA401B022801D90320F4E67748DD
:101070006C300068C0F340000028F1D1207800F007
:101080000400042870D1002670483830006800F051
:10109000805090B900BF002000906C483830006844
:1010A00040F080506949383108600846006800F017
:1010B0008050009000BF00BF01266748006800F420
:1010C0008070B0B96448006840F48070624908607C
:1010D000FFF760FA054606E0FFF75CFA401B0228BE
:1010E00001D90320B8E65C48006800F4807000284D
:1010F000F2D000BFA068012808D1544868300068C9
:1011000040F001005149683108601DE0A0680528E1
:101110000DD14E486830006840F004004B496831FA
:1011200008600846006840F0010008600CE047488D
:101130006830006820F001004449683108600846C2
:10114000006820F00400086000BFA068A8B1FFF7A5
:1011500021FA054609E0FFF71DFA401B41F28831EC
:10116000884202D9032077E626E0384868300068D4
:10117000C0F340000028EED013E0FFF70BFA05465D
:1011800008E0FFF707FA401B41F28831884201D995
:10119000032061E62D4868300068C0F34000002855
:1011A000EFD1012E07D129483830006820F0805057
:1011B00026493831086000BFA069B8B323480068E9
:1011C00000F00C0008285ED0A069022846D100205B
:1011D0001F490866FFF7DEF9054606E0FFF7DAF972
:1011E000401B022801D9032036E618480838006859
:1011F000C0F340600028F1D1D4E907010843616AD7
:1012000040EA81110122A06AC2EB500041EA00418C
:101210002C20005D41EA00600C49091F0860012094
:101220000B490866FFF7B6F9054607E02DE0FFF722
:10123000B1F9401B022801D903200DE60348083804
:101240000068C0F340600028F1D01EE0083802407A
:1012500000004742800E4742007000400020F949DC
:101260000866FFF797F9054606E0FFF793F9401B7C
:10127000022801D90320EFE5F3480068C0F340607D
:101280000028F2D101E00120E6E50020E4E52DE9A7
:10129000F047002400250026A146EB4808300068EE
:1012A00000F00C0020B1042805D008283AD105E050
:1012B000DFF8989339E0DFF8989336E0E248001DB4
:1012C000006800F03F04E048001D006800F4800062
:1012D00078B1DF48DC49091D0968C1F38811A0FB1A
:1012E0000170014622460023384604F001FD054600
:1012F0000EE0D648D449091D0968C1F38811A0FB46
:101300000170014622460023384604F0F1FC0546F0
:10131000CD48001D0068C0F30140401C4600B5FBED
:10132000F6F902E0DFF8249300BF00BF4846BDE8AD
:10133000F08770B504460D460CB9012070BDC54854
:10134000006800F00F00A84209D2C2490D7008469B
:10135000006800F00F00A84201D00120EEE72078DD
:1013600000F00200022823D1207800F004000428B5
:1013700007D1B5480830006840F4E050B249083160
:101380000860207800F00800082807D1AE4808302F
:10139000006840F46040AC4908310860AA48083051
:1013A000006820F0F000A1680843A74908310860F0
:1013B000207800F00100A0B36068012806D1A2489F
:1013C0000068C0F34040A8B90120B7E76068022870
:1013D00002D06068032806D19B480068C0F34060D3
:1013E00040B90120AAE798480068C0F3400008B956
:1013F0000120A3E794480830006820F003006168EA
:101400000843914908310860FFF7C4F8064609E02F
:10141000FFF7C0F8801B41F28831884202D90320CF
:101420008CE708E088480830006800F00C0061682C
:10143000B0EB810FECD18748006800F00F00A842A4
:1014400009D984490D700846006800F00F00A842D1
:1014500001D0012072E7207800F00400042809D1AF
:1014600079480830006820F4E050E1680843764984
:1014700008310860207800F0080008280AD1724876
:101480000830006820F46040216940EAC1006E49DC
:1014900008310860FFF7FBFE6B4908310968C1F3AA
:1014A00003116D4A515CC8406C4908600F20FFF77A
:1014B00012F8002042E770B586B006460C46154685
:1014C00056BB00BF002000905F483030006840F0FD
:1014D00001005D49303108600846006800F00100F5
:1014E000009000BF00BF88150190022002900320E9
:1014F000049000200390059001A95948FFF7CCFA09
:1015000051480830006820F0EC6044EA05010843C7
:101510004D490831086029E000BF002000904A488A
:101520003030006840F00400474930310860084618
:10153000006800F00400009000BF00BF4815019053
:10154000022002900320049000200390059001A93E
:101550004448FFF7A1FA3C480830006820F0784082
:1015600044EAC501084338490831086006B070BD37
:1015700001203449C864704700203249C86470476C
:1015800036480068704700B5FFF7FAFF2E4908316A
:101590000968C1F38221344A515CC84000BD00B5DE
:1015A000FFF7EEFF284908310968C1F342312E4A9E
:1015B000515CC84000BD0F2101602349096801F456
:1015C0008021B1F5802F03D14FF4A02141600CE0C0
:1015D0001D49096801F48031B1F5803F03D14FF412
:1015E0008031416001E0002141601749096801F044
:1015F000010111B10121C16001E00021C160124966
:101600000968C1F3C40101610F497031096801F033
:101610000401042902D1052181600AE00A497031E0
:10162000096801F0010111B10121816001E000218F
:10163000816005497431096801F00101B1B10121EE
:10164000416115E000004742003802400024F400E8
:1016500000127A00003C0240D25D00080000002029
:101660000000024000080240E25D000800214161E4
:101670002F49096801F08071B1F1807F02D1022108
:10168000816101E0012181612949091D096801F495
:101690008002C2612649091D096801F03F02026209
:1016A0002349091D0968C1F3881242622049091DB6
:1016B000096801F4403101F58031CA0B82621C498E
:1016C000091D0968C1F30362C26270470F220260FC
:1016D000174A0832126802F003024260144A0832C4
:1016E000126802F0F0028260114A0832126802F4B5
:1016F000E052C2600E4A0832126802F46042D20818
:1017000002610C4A126802F00F020A6070477047CB
:1017100010B507480C30006800F08000802805D123
:10172000FFF7F5FF802002490E31087010BD000060
:1017300000380240003C024010B50268F64B984267
:101740000ED0B0F1804F0BD0F44B984208D0F44B40
:10175000984205D0F34B984202D0F34B984203D104
:1017600022F070024B681A43EB4B984220D0B0F144
:10177000804F1DD0E94B98421AD0E94B984217D0C0
:10178000E84B984214D0E84B984211D0E74B98426E
:101790000ED0E74B98420BD0E64B984208D0E64B70
:1017A000984205D0E54B984202D0E54B984203D1D0
:1017B00022F44072CB681A4322F080034C6943EA5A
:1017C000040202608B68C3620B688362D24B98424A
:1017D00002D0D54B984201D10B69036301234361C9
:1017E00010BD704710B504460CB9012010BD94F827
:1017F0003D0028B9002084F83C002046FFF7F1FFA7
:10180000022084F83D00211D2068FFF795FF01208C
:1018100084F83D000020E9E7704710B50446022037
:1018200084F83D0000BF2068006A41F211110840B1
:1018300050B92068006A8910084028B920680068FB
:1018400020F001002168086000BF2046FFF7E4FF98
:10185000002084F83D0000BF84F83C0000BF10BDAC
:101860000146022081F83D000868806800F0070208
:10187000062A05D00868006840F001000B6818606F
:10188000012081F83D00002070470146022081F8C8
:101890003D0000BF0868006A41F21112104050B9C3
:1018A0000868006A9210104028B90868006820F0A3
:1018B00001000A68106000BF012081F83D0000208F
:1018C000704701460868C06840F001000B68D860A6
:1018D0000868806800F00702062A05D008680068DA
:1018E00040F001000B68186000207047014608684E
:1018F000C06820F001000A68D06000BF0868006A74
:1019000041F21112104050B90868006A921010405C
:1019100028B90868006820F001000A68106000BF5C
:1019200000207047704770B50446A56B012085F80C
:101930003D002846FFF7F6FF70BD704770B50446BE
:10194000A56B012085F83D002846FFF7F6FF70BD26
:10195000704770B50446A56B012085F83D00284608
:10196000FEF797FD70BD2DE9F04104460E46154681
:1019700094F83D00022801D1BDE8F08194F83D00C3
:10198000012805D10EB905B1F6E7022084F83D0023
:101990006C48216AC8636C48216A0864AFF2790018
:1019A000216AC864216801F12C022B463146206A65
:1019B00003F0F1FC08B10120DEE72068C06840F4C4
:1019C00080702168C8602068806800F00707062FD3
:1019D00005D02068006840F0010021680860002000
:1019E000CAE710B504462068C06820F480702168FA
:1019F000C860206A03F078FD00BF2068006A41F2E9
:101A00001111084050B92068006A8910084028B9AF
:101A10002068006820F001002168086000BF0120F4
:101A200084F83D00002010BD704710B504460CB985
:101A3000012010BD94F83D0028B9002084F83C0036
:101A40002046FFF7F1FF022084F83D00211D2068A9
:101A5000FFF772FE012084F83D000020E9E770479F
:101A600010B50446022084F83D0000BF2068006ADB
:101A700041F21111084050B92068006A89100840ED
:101A800028B92068006820F001002168086000BFC4
:101A90002046FFF7E4FF002084F83D0000BF84F8F3
:101AA0003C0000BF10BD30B501F01F05012404FA51
:101AB00005F3046A9C430462046A01F01F0502FAFC
:101AC00005F52C43046230BD70B504460E46012274
:101AD00031462068FFF7E7FF0F492068884203D0AE
:101AE00011492068884201D1012000E0002028B17E
:101AF0002068406C40F40040216848642068806899
:101B000000F00705062D05D02068006840F00100B0
:101B100021680860002070BD000001400004004002
:101B200000080040000C004000040140004001405B
:101B3000004401400048014000180040001C0040E3
:101B400000200040531900083D19000830B5044634
:101B50000D46002229462068FFF7A5FFFA492068B4
:101B6000884203D0F9492068884201D1012000E071
:101B7000002090B100BF2068006A41F211110840B6
:101B800050B92068006A8910084028B92068406C64
:101B900020F400402168486400BF00BF2068006A4C
:101BA00041F21111084050B92068006A89100840BC
:101BB00028B92068006820F001002168086000BF93
:101BC000002030BD70B504460D4635B1042D0BD054
:101BD000082D10D00C2D1CD114E02068C06840F0F6
:101BE00002002168C86015E02068C06840F0040069
:101BF0002168C8600EE02068C06840F008002168D5
:101C0000C86007E02068C06840F010002168C86024
:101C100000E000BF00BF012229462068FFF743FF14
:101C2000C9492068884203D0C8492068884201D148
:101C3000012000E0002028B12068406C40F4004002
:101C4000216848642068806800F00706062E05D0E9
:101C50002068006840F0010021680860002070BD25
:101C600030B504460D4635B1042D0BD0082D10D0EB
:101C70000C2D1CD114E02068C06820F002002168FF
:101C8000C86015E02068C06820F004002168C860C2
:101C90000EE02068C06820F008002168C86007E0F6
:101CA0002068C06820F010002168C86000E000BF14
:101CB00000BF002229462068FFF7F5FEA2492068F0
:101CC000884203D0A1492068884201D1012000E068
:101CD000002090B100BF2068006A41F21111084055
:101CE00050B92068006A8910084028B92068406C03
:101CF00020F400402168486400BF00BF2068006AEB
:101D000041F21111084050B92068006A891008405A
:101D100028B92068006820F001002168086000BF31
:101D2000002030BD704770B50546AC6B012084F8CB
:101D30003D00606AA84202D10120207710E0A06A2D
:101D4000A84202D1022020770AE0E06AA84202D12C
:101D50000420207704E0206BA84201D108202077DE
:101D60002046FFF7DFFF0020207770BD704770B579
:101D70000546AC6B012084F83D00606AA84202D1A0
:101D80000120207710E0A06AA84202D1022020772B
:101D90000AE0E06AA84202D10420207704E0206B28
:101DA000A84201D1082020772046FFF7DFFF00205E
:101DB000207770BD2DE9F04104460E4615461F46BA
:101DC00094F83D00022801D1BDE8F08194F83D006F
:101DD000012805D10DB907B1F6E7022084F83D00CE
:101DE00036B1042E22D0082E3ED00C2E79D159E0E7
:101DF000AFF28501606AC163AFF2D501606A016428
:101E0000AFF2DD41606AC164216801F134023B46F2
:101E10002946606A03F0BFFA08B10120D4E72068C0
:101E2000C06840F400702168C8605BE0AFF2C10197
:101E3000A06AC163AFF21111A06A0164AFF2195137
:101E4000A06AC164216801F138023B462946A06AB4
:101E500003F0A1FA08B10120B6E72068C06840F499
:101E600080602168C8603DE0AFF2FD01E06AC163B7
:101E7000AFF24D11E06A0164AFF25551E06AC164FE
:101E8000216801F13C023B462946E06A03F083FAEF
:101E900008B1012098E72068C06840F4006021681C
:101EA000C8601FE0AFF23911206BC163AFF2891136
:101EB000206B0164AFF29151206BC164216801F184
:101EC00040023B462946206B03F065FA10B1012021
:101ED0007AE706E02068C06840F480502168C86056
:101EE00000E000BF00BF012231462068FFF7DBFDA4
:101EF00015492068884203D014492068884201D1DE
:101F0000012000E0002028B12068406C40F400402F
:101F1000216848642068806800F00708B8F1060F5F
:101F200005D02068006840F00100216808600020AA
:101F30004AE770B504460D4655B1042D12D0082D60
:101F40001AD00C2D2CD121E00000014000040140EA
:101F50002068C06820F400702168C860606A03F0DF
:101F6000C3FA1EE02068C06820F480602168C86061
:101F7000A06A03F0B9FA14E02068C06820F4006099
:101F80002168C860E06A03F0AFFA0AE02068C06820
:101F900020F480502168C860206B03F0A5FA00E0AF
:101FA00000BF00BF002229462068FFF77CFDFE49E4
:101FB0002068884203D0FD492068884201D1012071
:101FC00000E0002090B100BF2068006A41F21111CA
:101FD000084050B92068006A8910084028B9206874
:101FE000406C20F400402168486400BF00BF2068B6
:101FF000006A41F21111084050B92068006A891046
:10200000084028B92068006820F0010021680860B5
:1020100000BF012084F83D00002070BD704710B55E
:1020200004460CB9012010BD94F83D0028B90020E9
:1020300084F83C002046FFF7F1FF022084F83D00C1
:10204000211D2068FFF778FB012084F83D00002067
:10205000E9E7704710B50446022084F83D0000BF50
:102060002068006A41F21111084050B92068006AE6
:102070008910084028B92068006820F00100216814
:10208000086000BF2046FFF7E4FF002084F83D0011
:1020900000BF84F83C0000BF10BD70B504460E467A
:1020A000012231462068FFF7FEFCBF4920688842C4
:1020B00003D0BE492068884201D1012000E0002001
:1020C00028B12068406C40F40040216848642068D2
:1020D000806800F00705062D05D02068006840F0F4
:1020E000010021680860002070BD30B504460D462F
:1020F000002229462068FFF7D6FCAB4920688842B9
:1021000003D0AA492068884201D1012000E00020C4
:1021100090B100BF2068006A41F21111084050B927
:102120002068006A8910084028B92068406C20F4B3
:1021300000402168486400BF00BF2068006A41F287
:102140001111084050B92068006A8910084028B968
:102150002068006820F001002168086000BF0120AD
:1021600084F83D00002030BD70B504460D4635B101
:10217000042D0BD0082D10D00C2D1CD114E020689C
:10218000C06840F002002168C86015E02068C0689F
:1021900040F004002168C8600EE02068C06840F08C
:1021A00008002168C86007E02068C06840F010009F
:1021B0002168C86000E000BF00BF012229462068F6
:1021C000FFF771FC78492068884203D0774920687E
:1021D000884201D1012000E0002028B12068406C35
:1021E00040F40040216848642068806800F00706D9
:1021F000062E05D02068006840F0010021680860C4
:10220000002070BD30B504460D4635B1042D0BD00D
:10221000082D10D00C2D1CD114E02068C06820F0CF
:1022200002002168C86015E02068C06820F0040042
:102230002168C8600EE02068C06820F008002168AE
:10224000C86007E02068C06820F010002168C860FE
:1022500000E000BF00BF002229462068FFF723FCF2
:1022600051492068884203D050492068884201D1F2
:10227000012000E0002090B100BF2068006A41F218
:102280001111084050B92068006A8910084028B927
:102290002068406C20F400402168486400BF00BF03
:1022A0002068006A41F21111084050B92068006AA4
:1022B0008910084028B92068006820F001002168D2
:1022C000086000BF002030BD2DE9F04104460E46F5
:1022D00015461F4694F83D00022801D1BDE8F08163
:1022E00094F83D00012805D10DB907B1F6E70220A9
:1022F00084F83D0036B1042E22D0082E3ED00C2E9C
:102300007ED15EE0AFF29951606AC163AFF2E951EC
:10231000606A0164AFF6F111606AC164216801F17D
:1023200034023B462946606A03F035F808B10120C3
:10233000D4E72068C06840F400702168C86060E09D
:10234000AFF2D551A06AC163AFF22561A06A016402
:10235000AFF62D21A06AC164216801F138023B4625
:102360002946A06A03F017F808B10120B6E72068F3
:10237000C06840F480602168C86042E0AFF211613B
:10238000E06AC163AFF26161E06A0164AFF669219E
:10239000E06AC164216801F13C023B462946E06ADB
:1023A00002F0F9FF30B103E00000014000040140F9
:1023B000012093E72068C06840F400602168C8608D
:1023C0001FE0AFF25561206BC163AFF2A561206BD6
:1023D0000164AFF6AD21206BC164216801F14002B8
:1023E0003B462946206B02F0D6FF10B1012075E76D
:1023F00006E02068C06840F480502168C86000E0B2
:1024000000BF00BF012231462068FFF74CFBFE49A8
:102410002068884203D0FD492068884201D101200C
:1024200000E0002028B12068406C40F400402168A2
:1024300048642068806800F00708B8F1060F05D0EE
:102440002068006840F0010021680860002045E72E
:1024500070B504460D4635B1042D0ED0082D16D0AA
:102460000C2D28D11DE02068C06820F40070216880
:10247000C860606A03F038F81EE02068C06820F485
:1024800080602168C860A06A03F02EF814E020681C
:10249000C06820F400602168C860E06A03F024F896
:1024A0000AE02068C06820F480502168C860206B72
:1024B00003F01AF800E000BF00BF002229462068A0
:1024C000FFF7F1FAD0492068884203D0CF4920684D
:1024D000884201D1012000E0002090B100BF2068B7
:1024E000006A41F21111084050B92068006A891051
:1024F000084028B92068406C20F4004021684864F6
:1025000000BF00BF2068006A41F21111084050B9B5
:102510002068006A8910084028B92068006820F007
:1025200001002168086000BF012084F83D00002000
:1025300070BD704710B504460CB9012010BD94F869
:102540003D0028B9002084F83C002046FFF7F1FF49
:10255000022084F83D00211D2068FFF7EDF80120DE
:1025600084F83D000020E9E7704710B504460220DA
:1025700084F83D0000BF2068006A41F21111084054
:1025800050B92068006A8910084028B9206800689E
:1025900020F001002168086000BF2046FFF7E4FF3B
:1025A000002084F83D0000BF84F83C0000BF10BD4F
:1025B00070B504460D46012229462068FFF773FADC
:1025C0002068806800F00706062E05D020680068A5
:1025D00040F0010021680860002070BD30B504465D
:1025E0000D46002229462068FFF75DFA00BF2068EB
:1025F000006A41F21111084050B92068006A891040
:10260000084028B92068006820F0010021680860AF
:1026100000BF002030BD70B504460D4635B1042D15
:102620000BD0082D10D00C2D1CD114E02068C068F0
:1026300040F002002168C86015E02068C06840F0E2
:1026400004002168C8600EE02068C06840F00800FF
:102650002168C86007E02068C06840F01000216869
:10266000C86000E000BF00BF012229462068FFF7D4
:102670001AFA2068806800F00706062E05D0206848
:10268000006840F0010021680860002070BD30B58E
:1026900004460D4635B1042D0BD0082D10D00C2D5D
:1026A0001CD114E02068C06820F002002168C860D6
:1026B00015E02068C06820F004002168C8600EE0C2
:1026C0002068C06820F008002168C86007E0206822
:1026D000C06820F010002168C86000E000BF00BFA3
:1026E000002229462068FFF7DEF900BF2068006A53
:1026F00041F21111084050B92068006A8910084061
:1027000028B92068006820F001002168086000BF37
:10271000002030BD704770B50546AC6B012084F8D1
:102720003D00606AA84202D10120207710E0A06A33
:10273000A84202D1022020770AE0E06AA84202D132
:102740000420207704E0206BA84201D108202077E4
:102750002046FFF7DFFF0020207770BD704770B57F
:102760000546AC6B012084F83D00606AA84202D1A6
:102770000120207710E0A06AA84202D10220207731
:102780000AE0E06AA84202D10420207704E0206B2E
:10279000A84201D1082020772046FFF7DFFF002064
:1027A000207770BD2DE9F04104460D4616461F46C0
:1027B00094F83D00022801D1BDE8F08194F83D0075
:1027C000012805D10EB907B1F6E7022084F83D00D3
:1027D00035B1042D28D0082D44D00C2D7FD15FE0D9
:1027E000AFF28501606AC163AFF2D501606A01642E
:1027F000AFF6CD61606AC164226802F134013B46E4
:102800003246606A04E0000000000140000401401C
:1028100002F0C1FD08B10120CEE72068C06840F495
:1028200000702168C8605BE0AFF2CD01A06AC163AF
:10283000AFF21D11A06A0164AFF61571A06AC16400
:10284000226802F138013B463246A06A02F0A3FD3D
:1028500008B10120B0E72068C06840F480602168BA
:10286000C8603DE0AFF20911E06AC163AFF25911EF
:10287000E06A0164AFF65171E06AC164226802F156
:102880003C013B463246E06A02F085FD08B101207A
:1028900092E72068C06840F400602168C8601FE0CB
:1028A000AFF24511206BC163AFF29511206B01644B
:1028B000AFF68D71206BC164226802F140013B4686
:1028C0003246206B02F067FD10B1012074E706E08C
:1028D0002068C06840F480502168C86000E000BFF4
:1028E00000BF012229462068FFF7DDF820688068D4
:1028F00000F00708B8F1060F05D02068006840F026
:10290000010021680860002056E770B504460D46B6
:1029100035B1042D0ED0082D16D00C2D28D11DE078
:102920002068C06820F400702168C860606A02F006
:10293000DBFD1EE02068C06820F480602168C8606C
:10294000A06A02F0D1FD14E02068C06820F40060A5
:102950002168C860E06A02F0C7FD0AE02068C0682C
:1029600020F480502168C860206B02F0BDFD00E0BB
:1029700000BF00BF002229462068FFF794F800BF7F
:102980002068006A41F21111084050B92068006ABD
:102990008910084028B92068006820F001002168EB
:1029A000086000BF012084F83D00002070BD704722
:1029B00070B504460D460CB9012070BD94F83D0079
:1029C00028B9002084F83C002046FFF7F0FF0220E1
:1029D00084F83D00211D2068FEF7AEFE20680068E7
:1029E00020F00800216808602068006828432168FA
:1029F0000860012084F83D000020DEE7704710B534
:102A00000446022084F83D0000BF2068006A41F2BD
:102A10001111084050B92068006A8910084028B98F
:102A20002068006820F001002168086000BF20468F
:102A3000FFF7E4FF002084F83D0000BF84F83C006D
:102A400000BF10BD30B504460D46012200212068AC
:102A5000FFF729F8012204212068FFF724F8FA493A
:102A60002068884203D0F9492068884201D10120BA
:102A700000E0002028B12068406C40F4004021684C
:102A80004864002030BD30B504460D460022114692
:102A90002068FFF708F8002204212068FFF703F8F8
:102AA000E9492068884203D0E8492068884201D17A
:102AB000012000E0002090B100BF2068006A41F2D0
:102AC0001111084050B92068006A8910084028B9DF
:102AD0002068406C20F400402168486400BF00BFBB
:102AE0002068006A41F21111084050B92068006A5C
:102AF0008910084028B92068006820F0010021688A
:102B0000086000BF002030BD30B504460D46206887
:102B1000C06840F002002168C8602068C06840F0CA
:102B200004002168C860012200212068FEF7BBFF75
:102B3000012204212068FEF7B6FFC34920688842BD
:102B400003D0C2492068884201D1012000E0002062
:102B500028B12068406C40F400402168486400209F
:102B600030BD30B504460D462068C06820F0020034
:102B70002168C8602068C06820F004002168C8602F
:102B8000002211462068FEF78EFF002204212068F3
:102B9000FEF789FFAC492068884203D0AB49206822
:102BA000884201D1012000E0002090B100BF2068E0
:102BB000006A41F21111084050B92068006A89107A
:102BC000084028B92068406C20F40040216848641F
:102BD00000BF00BF2068006A41F21111084050B9DF
:102BE0002068006A8910084028B92068006820F031
:102BF00001002168086000BF002030BD70472DE94A
:102C0000F04104460D4614B90120BDE8F08194F866
:102C10003D0028B9002084F83C002046FFF7EEFF75
:102C2000022084F83D002068806844F20701884350
:102C300021688860211D2068FEF77EFD2068D0F89D
:102C40000880206886692068076A286840EA0808C2
:102C500040F203308643A969A86840EA0120064390
:102C600040F60C4086434FF2F0008643E969E8687D
:102C700040EA0120064328690001296A40EA013040
:102C8000064327F0220727F088076969686840EA49
:102C9000011007432068C0F808802068866120681A
:102CA0000762012084F83D000020AEE7704710B5B0
:102CB0000446022084F83D0000BF2068006A41F20B
:102CC0001111084050B92068006A8910084028B9DD
:102CD0002068006820F001002168086000BF2046DD
:102CE000FFF7E4FF002084F83D0000BF84F83C00BB
:102CF00000BF10BD30B504460D4615B1042D0CD1F2
:102D000005E0012200212068FEF7CDFE10E001223F
:102D100004212068FEF7C7FE0AE001220021206896
:102D2000FEF7C1FE012204212068FEF7BCFE00BFB1
:102D300000BF2068006840F00100216808600020A2
:102D400030BD30B504460D4615B1042D0CD105E05B
:102D5000002211462068FEF7A6FE10E000220421A2
:102D60002068FEF7A0FE0AE0002211462068FEF768
:102D70009AFE002204212068FEF795FE00BF00BFE6
:102D800000BF2068006A41F21111084050B9206864
:102D9000006A8910084028B92068006820F0010006
:102DA0002168086000BF002030BD30B504460D46E4
:102DB00015B1042D18D10BE0012200212068FEF787
:102DC00072FE2068C06840F002002168C86022E0FE
:102DD000012204212068FEF766FE2068C06840F0EA
:102DE00004002168C86016E0012200212068FEF777
:102DF0005AFE012204212068FEF755FE2068C068B3
:102E000040F002002168C8602068C06840F00400FB
:102E10002168C86000BF00BF2068006840F0010062
:102E200021680860002030BD30B504460D467DB9EC
:102E3000002211462068FEF736FE2068C06820F0A8
:102E400002002168C86027E0000001400004014042
:102E5000042D0BD1002204212068FEF724FE2068F7
:102E6000C06820F004002168C86015E00022114607
:102E70002068FEF718FE002204212068FEF713FEEA
:102E80002068C06820F002002168C8602068C0681F
:102E900020F004002168C86000BF2068006A41F289
:102EA0001111084050B92068006A8910084028B9FB
:102EB0002068006820F001002168086000BF012040
:102EC00084F83D00002030BD2DE9F04104460E4657
:102ED00017461D46DDF8188094F83D00022801D100
:102EE000BDE8F08194F83D00012809D107B125B96A
:102EF000B8F1000F01D00120F2E7022084F83D0074
:102F000026B1042E2AD03C2E7CD14FE0AFF2B17115
:102F1000606AC163AFF60101606A0164FB49606ADF
:102F2000C164226802F1340143463A46606A02F005
:102F300032FA08B10120D3E72068C06840F400707D
:102F40002168C8602068006840F0010021680860BE
:102F5000012200212068FEF7A6FD72E0AFF6010114
:102F6000A06AC163AFF65101A06A0164E749A06A93
:102F7000C164226802F1380143462A46A06A02F081
:102F80000AFA08B10120ABE72068C06840F480600D
:102F90002168C8602068006840F00100216808606E
:102FA000012204212068FEF77EFD4AE0AFF65101C0
:102FB000606AC163AFF6A101606A0164D349606AC7
:102FC000C164226802F1340143463A46606A02F065
:102FD000E2F908B1012083E7AFF67D01A06AC16381
:102FE000AFF6CD01A06A0164C849A06AC164226835
:102FF00002F1380143462A46A06A02F0CCF910B12A
:1030000001206DE71CE02068006840F001002168A5
:103010000860012200212068FEF745FD01220421FD
:103020002068FEF740FD2068C06840F40070216809
:10303000C8602068C06840F480602168C86000E013
:1030400000BF00BF00204BE770B504460D4675B9C0
:10305000002211462068FEF726FD2068C06820F493
:1030600000702168C860606A02F03EFA2CE0042D0E
:103070000ED1002204212068FEF715FD2068C068EB
:1030800020F480602168C860A06A02F02DFA1BE07D
:10309000002211462068FEF706FD00220421206868
:1030A000FEF701FD2068C06820F400702168C86048
:1030B0002068C06820F480602168C860606A02F0FF
:1030C00013FAA06A02F010FA00BF2068006A41F209
:1030D0001111084050B92068006A8910084028B9C9
:1030E0002068006820F001002168086000BF01200E
:1030F00084F83D00002070BD7047704710B504464D
:1031000020680069C0F34000D8B12068C068C0F3EF
:103110004000B0B16FF00200216808610120207703
:103120002068806900F0030018B12046FFF716FB05
:1031300005E02046FFF7E1FF2046FEF717FE0020DE
:10314000207720680069C0F38000D8B12068C0688B
:10315000C0F38000B0B16FF0040021680861022064
:1031600020772068806900F4407018B12046FFF78E
:10317000F5FA05E02046FFF7C0FF2046FEF7F6FD12
:103180000020207720680069C0F3C000D8B1206813
:10319000C068C0F3C000B0B16FF0080021680861DA
:1031A000042020772068C06900F0030018B1204691
:1031B000FFF7D4FA05E02046FFF79FFF2046FEF711
:1031C000D5FD0020207720680069C0F30010D8B139
:1031D0002068C068C0F30010B0B16FF01000216823
:1031E0000861082020772068C06900F4407018B199
:1031F0002046FFF7B3FA05E02046FFF77EFF2046A2
:10320000FEF7B4FD002020772068006900F001007F
:1032100058B12068C06800F0010030B16FF00100C3
:10322000216808612046FDF734F920680069C0F381
:10323000C01058B12068C068C0F3C01030B16FF042
:10324000800021680861204601F03CFF2068006989
:10325000C0F3801058B12068C068C0F3801030B14E
:103260006FF04000216808612046FFF745FF2068A5
:103270000069C0F3401058B12068C068C0F3401026
:1032800030B16FF0200021680861204601F048FE4F
:1032900010BD30B5056A25F480550562036A44689F
:1032A000C26922F4E04222F440720D6842EA05222B
:1032B00023F400538D6843EA0533154DA84202D02C
:1032C000144DA84204D124F480444D6944EA851485
:1032D0004460C2614D680564036230BD30B5056A63
:1032E00025F480750562026A4368C46924F070049D
:1032F00024F003040D682C4322F400728D6842EA26
:103300000522034DA84207D10AE000002719000852
:103310000000014000040140FC4DA84207D100BF5D
:1033200022F40062CD6842EA052222F48062F84D60
:10333000A84202D0F54DA84209D123F4805323F4CA
:1033400000534D6943EA05138D6943EA0513436051
:10335000C4614D68C563026230BD30B5056A25F0B1
:1033600010050562026A4368846924F4E04424F489
:1033700040740D6844EA052422F020028D6842EA78
:103380000512E34DA84200D103E0E04DA84207D169
:1033900000BF22F08002CD6842EA051222F040020E
:1033A000DB4DA84202D0D94DA84209D123F4806355
:1033B00023F400634D6943EA85038D6943EA85037D
:1033C000436084614D688563026230BD30B5056A33
:1033D00025F001050562026A4368846924F07004DF
:1033E00024F003040D682C4322F002028D682A4366
:1033F000C74DA84200D103E0C44DA84206D100BF8A
:1034000022F00802CD682A4322F00402C04DA842EF
:1034100002D0BE4DA84207D123F4807323F4007379
:103420004D692B438D692B43436084614D6845632F
:10343000026230BD70B504460E46154600BF94F8D2
:103440003C00012801D1022070BD012084F83C001D
:1034500000BF022084F83D0035B1042D09D0082DAD
:103460000CD00C2D14D10EE031462068FFF7AEFFD2
:103470000FE031462068FFF770FF0AE03146206810
:10348000FFF72CFF05E031462068FFF702FF00E060
:1034900000BF00BF012084F83D0000BF002084F879
:1034A0003C0000BF00BFCFE770B50C461546066A6A
:1034B00026F480560662C169026A21F4407141EA2D
:1034C000052121F470414FF4704606EA033631437A
:1034D00022F420424FF4204606EA04363243C1610A
:1034E000026270BD70B50C461546066A26F48076F9
:1034F0000662C169026A21F00301294321F0F0014B
:10350000F02606EA0316314322F420624FF42066C7
:1035100006EA04263243C161026270BD70B50C46F2
:103520001546066A26F0100606628169026A21F4D1
:10353000407141EA052121F470414FF4704606EADA
:103540000336314322F0A002A02606EA04163243D5
:103550008161026270BD70B50C461546066A26F0A0
:10356000010606628169026A694EB04214D0B0F168
:10357000804F11D0674EB0420ED0674EB0420BD094
:10358000664EB04208D0614EB04205D0644EB042A3
:1035900002D0644EB04201D1012600E000261EB1E7
:1035A00021F00301294301E041F0010121F0F00184
:1035B000F02606EA0316314322F00A0204F00A0656
:1035C00032438161026270BD2DE9F04104460D462F
:1035D000164600BF94F83C00012802D10220BDE845
:1035E000F081012084F83C0000BF022084F83D00F7
:1035F00096B9EB68D5E900122068FFF7ACFF2068A8
:10360000806920F00C002168886120688069A968C1
:103610000843216888613DE0042E13D1EB68D5E9A9
:1036200000122068FFF77AFF2068806920F440606C
:103630002168886120688069A96840EA01202168C2
:10364000886127E0082E12D1EB68D5E900122068C6
:10365000FFF748FF2068C06920F00C002168C861AE
:103660002068C069A96808432168C86112E0EB6856
:10367000D5E900122068FFF717FF2068C06920F421
:1036800040602168C8612068C069A96840EA0120DB
:103690002168C861012084F83D0000BF002084F843
:1036A0003C0000BF00BF9AE770B504460D461646C1
:1036B00000BF94F83C00012801D1022070BD012018
:1036C00084F83C0000BF022084F83D0036B1042E8F
:1036D0002AD0082E40D00C2E6DD154E02946206807
:1036E000FFF774FE2068806940F008002168886157
:1036F0002068806920F00400216888612068806962
:10370000296908432168886156E0000000040140EF
:10371000000001400004004000080040000C004090
:10372000004001400018004029462068FFF715FEC0
:103730002068806940F400602168886120688069A1
:1037400020F480602168886120688069296940EAE6
:103750000120216888612FE029462068FFF7BEFD1F
:103760002068C06940F008002168C8612068C0690D
:1037700020F004002168C8612068C06929690843F5
:103780002168C86118E029462068FFF782FD20689B
:10379000C06940F400602168C8612068C06920F4F5
:1037A00080602168C8612068C069296940EA0120F9
:1037B0002168C86100E000BF00BF012084F83D001F
:1037C00000BF002084F83C0000BF00BF76E7F0B5E2
:1037D00087B004460D4616461F46BE4278D000BF4D
:1037E00094F83C00012802D1022007B0F0BD01206E
:1037F00084F83C0000BF022084F83D002868009057
:1038000068680190A8680290E868039028690590AC
:103810006869069016B1042E0AD104E06946206852
:10382000FFF7D4FD05E069462068FFF796FD00E04C
:1038300000BF00BF17B1042F4BD124E0D5E9072307
:10384000A9692068FFF787FE2068806920F00C00D6
:10385000216888612068806820F070002168886095
:103860002068806840F05000216888602068806887
:1038700020F00700216888602068806840F006001A
:103880002168886026E0D5E90723A9692068FFF749
:1038900045FE2068806920F44060216888612068C6
:1038A000806820F07000216888602068806840F09F
:1038B0006000216888602068806820F00700216827
:1038C00088602068806840F006002168886001E018
:1038D0000AE000BF00BF012084F83D0000BF0020C7
:1038E00084F83C0000BF80E701207EE7704770B598
:1038F0000446A56B012085F83D002846FFF7F6FF3A
:1039000070BD70B50446A56B012085F83D002846C2
:10391000FFF7F2FB70BD2DE9F041044688461646DC
:103920001F46069D94F83D00022801D1BDE8F081B4
:1039300094F83D00012805D10FB905B1F6E7022042
:1039400084F83D00B6F5006F59D009DCB6F5807FEC
:1039500010D0B6F5007F24D0B6F5806F7CD137E06B
:10396000B6F5805F62D0B6F5005F78D0B6F5804FCF
:10397000F4D18BE0F748216AC863F748216A0864EC
:10398000F648216AC864012101EB1523216801F181
:103990004C023946206A01F0FEFC08B10120C5E75F
:1039A0008CE0EF49606AC163EE49606A0164EB49EB
:1039B000606AC164012101EB1523216801F14C0209
:1039C0003946606A01F0E7FC08B10120AEE775E016
:1039D000E349A06AC163E349A06A0164DF49A06AC0
:1039E000C164012101EB1523216801F14C02394624
:1039F000A06A01F0D0FC08B1012097E75EE0D84949
:103A0000E06AC163D749E06A0164D449E06AC164ED
:103A1000012101EB1523216801F14C023946E06ACE
:103A200001F0B9FC08B1012080E747E0CC49206BE8
:103A3000C163CC49206B0164C849206BC16401217A
:103A400001EB1523216801F14C023946206B01F08E
:103A5000A2FC18B1012069E72FE000E02EE0C24986
:103A6000606BC163C149606B0164BC49606BC16438
:103A7000012101EB1523216801F14C023946606BED
:103A800001F089FC08B1012050E717E0B849A06BAC
:103A9000C163B849A06B0164B049A06BC164012146
:103AA00001EB1523216801F14C023946A06B01F0AE
:103AB00072FC08B1012039E700E000BF00BF48EA0E
:103AC0000500216888642068C06830432168C860A8
:103AD000012084F83D00002028E770B504460D461B
:103AE0000026B5F5006F23D009DCB5F5807F10D036
:103AF000B5F5007F12D0B5F5806F2DD113E0B5F587
:103B0000805F1AD0B5F5005F1CD0B5F5804F23D18A
:103B10001DE0206A01F0E8FC06461EE0606A01F044
:103B2000E3FC064619E0A06A01F0DEFC064614E05C
:103B3000E06A01F0D9FC06460FE0206B01F0D4FCEE
:103B400006460AE0606B01F0CFFC064605E0A06B7C
:103B500001F0CAFC064600E000BF00BF26B920689D
:103B6000C068A8432168C860304670BD2DE9F041A7
:103B70000446884616461F46069D94F83D000228D6
:103B800001D1BDE8F08194F83D00012805D10FB9BD
:103B900005B1F6E7022084F83D00B6F5006F59D074
:103BA00009DCB6F5807F10D0B6F5007F24D0B6F5DD
:103BB000806F7CD137E0B6F5805F62D0B6F5005FEC
:103BC00078D0B6F5804FF4D18BE06248216AC863A3
:103BD0006148216A08646148216AC864012202EBD5
:103BE0001523226802F14C013A46206A01F0D3FB0A
:103BF00008B10120C5E78CE05F49606AC1635F4995
:103C0000606A01645549606AC164012202EB1523B0
:103C1000226802F14C013A46606A01F0BCFB08B12F
:103C20000120AEE775E05449A06AC1635349A06A18
:103C300001644A49A06AC164012202EB152322688B
:103C400002F14C013A46A06A01F0A5FB08B101203F
:103C500097E75EE04849E06AC1634849E06A016469
:103C60003E49E06AC164012202EB1523226802F199
:103C70004C013A46E06A01F08EFB08B1012080E772
:103C800047E03D49206BC1633C49206B01643349E7
:103C9000206BC164012202EB1523226802F14C0162
:103CA0003A46206B01F077FB18B1012069E72FE05D
:103CB00000E02EE02C49606BC1632C49606B01640D
:103CC0002649606BC164012202EB1523226802F1D0
:103CD0004C013A46606B01F05EFB08B1012050E7F1
:103CE00017E02349A06BC1632249A06B01641B4903
:103CF000A06BC164012202EB1523226802F14C0182
:103D00003A46A06B01F047FB08B1012039E700E01B
:103D100000BF00BF48EA0500216888642068C068C9
:103D200030432168C860012084F83D00002028E766
:103D300070B504460D460026B5F5006F39D01FDC7E
:103D4000B5F5807F26D0B5F5007F28D0B5F5806F1A
:103D500043D129E0531900083D190008271900082C
:103D60006F1D0008271D0008234F0008FF4E0008A4
:103D700003390008EF3800085F27000817270008FC
:103D8000B5F5805F1AD0B5F5005F1CD0B5F5804F52
:103D900023D11DE0206A01F0A7FB06461EE0606A01
:103DA00001F0A2FB064619E0A06A01F09DFB064661
:103DB00014E0E06A01F098FB06460FE0206B01F08A
:103DC00093FB06460AE0606B01F08EFB064605E0B9
:103DD000A06B01F089FB064600E000BF00BF26B9DA
:103DE0002068C068A8432168C860304670BD02469C
:103DF00000BF92F83C00012801D102207047012049
:103E000082F83C0000BF022082F83D00106841614A
:103E1000012082F83D0000BF002082F83C0000BF76
:103E200000BFEBE730B50C46816821F47F4142EAE0
:103E3000032525432943816030BDF0B504460D4676
:103E4000164600BF94F83C00012801D10220F0BDC5
:103E5000012084F83C0000BF022084F83D0068681F
:103E600010B101281AD106E02068806820F47F4054
:103E70002168886013E0E86848B1012084F83D00BB
:103E800000BF002084F83C0000BF0120DFE7D5E937
:103E90000313AA682068FFF7C5FF00E000BF00BF5A
:103EA00036B1042E14D0082E22D00C2E40D12FE093
:103EB000286830B12068806940F0800021688861FE
:103EC00005E02068806920F080002168886130E08A
:103ED000286830B12068806940F40040216888611A
:103EE00005E02068806920F400402168886120E0B6
:103EF000286830B12068C06940F080002168C8613E
:103F000005E02068C06920F080002168C86110E0E9
:103F1000286830B12068C06940F400402168C86159
:103F200005E02068C06920F400402168C86100E015
:103F300000BF00BF012084F83D0000BF002084F8CE
:103F40003C0000BF00BF82E70A46816821F0700193
:103F500042F0070319438160704730B50B461446A1
:103F6000026A056A25F001050562816921F0F00108
:103F700041EA041122F00A021A438161026230BD53
:103F800030B50B461446056A25F0100505628169B7
:103F9000026A21F4704141EA043122F0A00242EAAF
:103FA00003128161026230BD2DE9F04104460D46E5
:103FB00000BF94F83C00012802D10220BDE8F08146
:103FC000012084F83C0000BF022084F83D002068F6
:103FD000866826F0770626F47F4620688660286883
:103FE000502833D00CDC202850D004DC00284BD0E3
:103FF000102851D149E0302849D040284CD139E02F
:1040000060282DD0702807D0B0F5805F03D0B0F5C0
:10401000005F41D10DE040E0D5E902136A682068F5
:10402000FFF700FF2068866846F077062068866004
:1040300033E0D5E902136A682068FFF7F3FE2068D1
:10404000806840F480402168886026E0EA686968FA
:104050002068FFF782FF50212068FFF775FF1CE002
:10406000EA6869682068FFF78BFF60212068FFF726
:104070006BFF12E0EA6869682068FFF76EFF402175
:104080002068FFF761FF08E000BF00BF00BF29689C
:104090002068FFF759FF00E000BF00BF012084F84F
:1040A0003D0000BF002084F83C0000BF00BF85E752
:1040B00002460B461068416821F0800119431068E0
:1040C0004160002070472DE9F04105460C46286804
:1040D000866826F070066068064326F007062068AA
:1040E000064328688660606800F00F0100293BD114
:1040F0000011082838D2DFE800F0333435360B27BA
:104100002D04D4E90313A2682868FFF78BFE2CE086
:104110002068052802D10120BDE8F0812868D0F888
:1041200020802868006A20F0010029680862286859
:10413000876927F0F007206947EA00172868876138
:104140002868C0F8208010E02269A1682868FFF77D
:1041500004FF0AE02269A1682868FFF711FF04E064
:1041600000BF00BF00BF00E000BF00BF0020D3E7DA
:1041700070B504460D4600BF94F83C00012801D1FB
:10418000022070BD012084F83C0000BF022084F8AA
:104190003D0029462046FFF796FF48B1012084F8EC
:1041A0003D0000BF002084F83C0000BF0120E8E78C
:1041B0002068C06820F040002168C8602068C0689E
:1041C00020F480402168C860012084F83D0000BFD1
:1041D000002084F83C0000BF00BFD2E770B5044661
:1041E0000D4600BF94F83C00012801D1022070BDAB
:1041F000012084F83C0000BF022084F83D002946DD
:104200002046FFF760FF48B1012084F83D0000BF61
:10421000002084F83C0000BF0120E8E72068C06867
:1042200040F040002168C8602068C06820F48040E9
:104230002168C860012084F83D0000BF002084F898
:104240003C0000BF00BFD2E70246002031B1042984
:1042500007D0082908D00C290CD108E01368586B46
:1042600009E01368986B06E01368D86B03E01368E5
:10427000186C00E000BF00BF7047014691F83D0098
:104280007047014691F83D007047014691F83D00A6
:104290007047014691F83D007047014691F83D0096
:1042A0007047014691F83D0070470000704730B5F7
:1042B00087B004460D4614B9012007B030BD94F80C
:1042C0003D0028B9002084F83C002046FFF7EEFFAF
:1042D000022084F83D00211D2068FDF72DFAAB680F
:1042E000296803222068FFF736F92068806920F0EA
:1042F0000C0021688861206880696968084321682A
:1043000088612068406840F080002168486020682B
:10431000806820F07000216888602068806840F024
:104320004000216888602068806820F007002168CC
:1043300088602068806840F0040021688860002060
:104340000490059070200090002006900390029049
:10435000E868019069462068FEF7FFFF2068406822
:1043600020F07000216848602068406840F05000EC
:1043700021684860012084F83D0000209DE77047D7
:1043800010B50446022084F83D0000BF2068006A92
:1043900041F21111084050B92068006A89100840A4
:1043A00028B92068006820F001002168086000BF7B
:1043B0002046FFF7E4FF002084F83D0000BF84F8AA
:1043C0003C0000BF10BD70B50446012200212068EA
:1043D000FDF769FB2068806800F00705062D05D011
:1043E0002068006840F0010021680860002070BD6E
:1043F00010B50446002211462068FDF754FB00BFAB
:104400002068006A41F21111084050B92068006A22
:104410008910084028B92068006820F00100216850
:10442000086000BF002010BD70B504462068C06859
:1044300040F002002168C860012200212068FDF7D9
:1044400032FB2068806800F00705062D05D0206843
:10445000006840F0010021680860002070BD10B5C0
:104460000446002211462068FDF71DFB2068C06845
:1044700020F002002168C86000BF2068006A41F295
:104480001111084050B92068006A8910084028B905
:104490002068006820F001002168086000BF00204B
:1044A00010BD2DE9F04104460D46164694F83D0036
:1044B000022801D1BDE8F08194F83D00012805D122
:1044C0000DB906B1F6E7022084F83D000122002173
:1044D0002068FDF7E8FAF949606AC163F849606A43
:1044E0000164F849606AC164226802F1340133460C
:1044F0002A46606A00F04FFF08B10120DAE7206821
:10450000C06840F400702168C8602068806800F0CE
:104510000707062F05D02068006840F001002168D9
:1045200008600020C6E710B5044600221146206846
:10453000FDF7B9FA2068C06820F400702168C860EF
:10454000606A00F0D1FF00BF2068006A41F21111DB
:10455000084050B92068006A8910084028B92068CE
:10456000006820F001002168086000BF002010BD35
:1045700030B501F01F05042404FA05F3046A9C43D6
:104580000462046A01F01F0502FA05F52C43046277
:1045900030BD70B504460D46042229462068FFF759
:1045A000E7FF2068406C40F40040216848642068C0
:1045B000806800F00706062E05D02068006840F0ED
:1045C000010021680860002070BD70B504460D46EA
:1045D000002229462068FFF7CBFF00BF2068006A51
:1045E00041F21111084050B92068006A8910084052
:1045F00028B92068406C20F400402168486400BF5E
:1046000000BF2068006A41F21111084050B92068CB
:10461000006A8910084028B92068006820F001006D
:104620002168086000BF002070BD70B504460D46CB
:1046300025B1042D09D0082D15D10DE02068C068E2
:1046400040F002002168C8600EE02068C06840F0B9
:1046500004002168C86007E02068C06840F00800D6
:104660002168C86000E000BF00BF2068C06840F05B
:1046700080002168C860042229462068FFF778FF7F
:104680002068406C40F400402168486420688068DD
:1046900000F00706062E05D02068006840F00100F3
:1046A00021680860002070BD70B504460D4625B134
:1046B000042D09D0082D15D10DE02068C06820F028
:1046C00002002168C8600EE02068C06820F0040085
:1046D0002168C86007E02068C06820F008002168F1
:1046E000C86000E000BF00BF002229462068FFF735
:1046F0003FFF2068066A40F24440304028B92068F5
:10470000C06820F080002168C86000BF2068006A8F
:1047100041F21111084050B92068006A8910084020
:1047200028B92068406C20F400402168486400BF2C
:1047300000BF2068006A41F21111084050B920689A
:10474000006A8910084028B92068006820F001003C
:104750002168086000BF002070BD2DE9F0410446CB
:104760000E4615461F4694F83D00022801D1BDE8CB
:10477000F08194F83D00012805D10DB907B1F6E7A5
:10478000022084F83D0026B1042E1DD0082E51D100
:1047900035E04D49606AC1634C49606A016449492A
:1047A000606AC164216801F134023B462946606AAF
:1047B00000F0F1FD08B10120D9E72068C06840F49D
:1047C00000702168C86036E03F49A06AC1633F4974
:1047D000A06A01643B49A06AC164216801F1380202
:1047E0003B462946A06A00F0D6FD08B10120BEE78D
:1047F0002068C06840F480602168C8601BE03249CE
:10480000E06AC1633149E06A01642E49E06AC1642B
:10481000216801F13C023B462946E06A00F0BBFDFD
:1048200008B10120A3E72068C06840F40060216857
:10483000C86000E000BF00BF042231462068FFF7D7
:1048400097FE2068406C40F400402168486420686E
:10485000806800F00708B8F1060F05D020680068EE
:1048600040F0010021680860002080E770B5044630
:104870000D4625B1042D0CD0082D29D113E0206858
:10488000C06820F400702168C860606A00F02CFEE7
:104890001FE02068C06820F480602168C860A06ABA
:1048A00000F022FE15E02068C06820F40060216856
:1048B000C860E06A00F018FE0BE000005F27000807
:1048C00017270008271900086F1D0008271D00087A
:1048D00000BF00BF002229462068FFF749FE00BF45
:1048E0002068006A41F21111084050B92068006A3E
:1048F0008910084028B92068406C20F400402168E5
:10490000486400BF00BF2068006A41F211110840EE
:1049100050B92068006A8910084028B920680068EA
:1049200020F001002168086000BF012084F83D00EC
:10493000002070BD70B504460D460422294620684B
:10494000FFF716FE2068406C40F400402168486480
:104950002068806800F00706062E05D020680068F1
:1049600040F0010021680860002070BD70B5044669
:104970000D46002229462068FFF7FAFD00BF206897
:10498000006A41F21111084050B92068006A89108C
:10499000084028B92068406C20F400402168486431
:1049A00000BF00BF2068006A41F21111084050B9F1
:1049B0002068006A8910084028B92068006820F043
:1049C00001002168086000BF002070BD70B504467A
:1049D0000D4625B1042D09D0082D15D10DE0206814
:1049E000C06840F002002168C8600EE02068C0681E
:1049F00040F004002168C86007E02068C06840F00B
:104A000008002168C86000E000BF00BF2068C068DF
:104A100040F080002168C860042229462068FFF722
:104A2000A7FD2068406C40F400402168486420687D
:104A3000806800F00706062E05D02068006840F068
:104A4000010021680860002070BD70B504460D4665
:104A500025B1042D09D0082D15D10DE02068C068BE
:104A600020F002002168C8600EE02068C06820F0D5
:104A700004002168C86007E02068C06820F00800D2
:104A80002168C86000E000BF00BF002229462068FE
:104A9000FFF76EFD2068066A40F24440304028B9B6
:104AA0002068C06820F080002168C86000BF2068CE
:104AB000006A41F21111084050B92068006A89105B
:104AC000084028B92068406C20F400402168486400
:104AD00000BF00BF2068006A41F21111084050B9C0
:104AE0002068006A8910084028B92068006820F012
:104AF00001002168086000BF002070BD2DE9F04171
:104B000004460E4615461F4694F83D00022801D182
:104B1000BDE8F08194F83D00012805D10DB907B139
:104B2000F6E7022084F83D0026B1042E1DD0082EA1
:104B300051D135E0F749606AC163F749606A0164A1
:104B4000F649606AC164216801F134023B46294696
:104B5000606A00F020FC08B10120D9E72068C06835
:104B600040F400702168C86036E0EA49A06AC16379
:104B7000E949A06A0164E949A06AC164216801F1B8
:104B800038023B462946A06A00F005FC08B1012026
:104B9000BEE72068C06840F480602168C8601BE000
:104BA000DC49E06AC163DC49E06A0164DB49E06A30
:104BB000C164216801F13C023B462946E06A00F0ED
:104BC000EAFB08B10120A3E72068C06840F4006058
:104BD0002168C86000E000BF00BF042231462068A1
:104BE000FFF7C6FC2068406C40F400402168486430
:104BF0002068806800F00708B8F1060F05D020682B
:104C0000006840F0010021680860002080E770B56E
:104C100004460D4625B1042D0CD0082D1ED113E0FD
:104C20002068C06820F400702168C860606A00F0E5
:104C30005BFC14E02068C06820F480602168C860D4
:104C4000A06A00F051FC0AE02068C06820F400600F
:104C50002168C860E06A00F047FC00E000BF00BFC8
:104C6000002229462068FFF783FC00BF2068006A05
:104C700041F21111084050B92068006A89100840BB
:104C800028B92068406C20F400402168486400BFC7
:104C900000BF2068006A41F21111084050B9206835
:104CA000006A8910084028B92068006820F00100D7
:104CB0002168086000BF012084F83D00002070BD1D
:104CC00070B504460D46042229462068FFF750FCC3
:104CD0002068406C40F4004021684864002070BDAA
:104CE00070B504460D46002229462068FFF740FCB7
:104CF00000BF2068006A41F21111084050B92068D5
:104D0000006A8910084028B92068406C20F40040EF
:104D10002168486400BF00BF2068006A41F2111199
:104D2000084050B92068006A8910084028B92068F6
:104D3000006820F001002168086000BF002070BDFD
:104D400070B504460D462068C06840F00200216836
:104D5000C8602068C06840F004002168C860042270
:104D600029462068FFF704FC2068406C40F40040AE
:104D700021684864002070BD70B504460D46206867
:104D8000C06820F002002168C8602068C06820F078
:104D900004002168C860002229462068FFF7E8FB6C
:104DA00000BF2068006A41F21111084050B9206824
:104DB000006A8910084028B92068406C20F400403F
:104DC0002168486400BF00BF2068006A41F21111E9
:104DD000084050B92068006A8910084028B9206846
:104DE000006820F001002168086000BF002070BD4D
:104DF00010B5034600BF93F83C00012801D1022002
:104E000010BD012083F83C0000BF29B1102903D058
:104E1000202901D030290AD11868806820F070005C
:104E20001C68A0601868806808431C68A060186847
:104E3000406840F001001C6860601868406820F01D
:104E400004001C6860601868406810431C6860605B
:104E50001868C06820F020001C68E0601868C0680E
:104E600020F400501C68E06000BF002083F83C0084
:104E700000BF00BFC4E710B5034600BF93F83C0075
:104E8000012801D1022010BD012083F83C0000BFA1
:104E900029B1102903D0202901D030290AD118685E
:104EA000806820F070001C68A06018688068084363
:104EB0001C68A0601868406840F001001C686060D1
:104EC0001868406820F004001C686060186840683A
:104ED00010431C6860601868C06820F400501C68AB
:104EE000E0601868C06840F020001C68E06000BF07
:104EF000002083F83C0000BF00BFC4E7704770B5D6
:104F00000446A56B012085F83D002846FFF7F6FF13
:104F100070BD00006F1D0008271D0008271900083C
:104F2000704770B50446A56B012085F83D00284602
:104F3000FFF7F6FF70BD10B5034600BF93F83C00C5
:104F4000012801D1022010BD012083F83C0000BFE0
:104F500029B1102903D0202901D030290AD118689D
:104F6000806820F070001C68A060186880680843A2
:104F70001C68A0601868406840F001001C68606010
:104F80001868406820F004001C6860601868406879
:104F900010431C686060AFF27504586BC463AFF2D5
:104FA000A104586B04644A4C586BC4641868C06808
:104FB00020F020001C68E0601868C06840F40050D1
:104FC0001C68E06000BF002083F83C0000BF00BF09
:104FD000B9E710B5024600BF92F83C00012801D1A4
:104FE000022010BD012082F83C0000BF022082F8A0
:104FF0003D00106843681068846823F070030868F7
:10500000034324F080044868044310684360106838
:105010008460012082F83D0000BF002082F83C003F
:1050200000BF00BFDDE710B50346002200BF93F8C4
:105030003C00012801D1022010BD012083F83C0072
:1050400000BF22F0FF00CC6840EA040222F4407066
:105050008C6840EA040222F480604C6840EA040252
:1050600022F400600C6840EA040222F480500C69CB
:1050700040EA040222F400504C6940EA040222F49F
:105080008040CC6940EA04021868426400BF0020F6
:1050900083F83C0000BF00BFCEE7024600BF92F895
:1050A0003C00012801D102207047012082F83C0019
:1050B00000BF1068016500BF002082F83C0000BFFF
:1050C00000BFF1E77047014691F83D0070470000CE
:1050D000271900080146087810381823B0FBF3F2AE
:1050E000FE48805CC865032A05D908686FF309008B
:1050F000001D886503E008686FF309008865886D06
:105100007047014600208A6A8B69CBB932B1012A07
:105110000DD0022A03D0032A10D10EE000BFCB6AC3
:1051200003F08073B3F1807F00D1012007E0CB6AE8
:10513000B3F1C07F00D1012001E000E000BF34E006
:105140008B69B3F5005F1AD132B1012A07D0022A68
:1051500003D0032A11D10AE000BF01200EE0CB6A80
:1051600003F08073B3F1807F00D1012006E0CB6AA9
:10517000B3F1C07F00D1012000E000BF15E032B1E3
:10518000012A05D0022A04D0032A0CD103E000BF73
:1051900000BF012008E0CB6A03F08073B3F1807F89
:1051A00000D1012000E000BF00BF70472DE9F041B1
:1051B00004460025FBF7EEF9074614B90120BDE8C7
:1051C000F081606A00B100BF00BF002084F83400A5
:1051D00000BF022084F835002068006820F001003C
:1051E000216808600AE0FBF7D5F9C01B052805D93E
:1051F00020206065032084F83500E0E7206800681F
:1052000000F001000028EED120680568B448054090
:10521000D4E901010843E168084321690843616951
:105220000843A1690843E1690843216A084305432B
:10523000606A042803D1D4E90B01084305432068C0
:1052400005602068456925F00705606A0543606AC6
:1052500004280DD1A06A0543E06A48B12046FFF753
:1052600050FF28B140206065012084F83500A6E792
:10527000206845612046FFF72DFF064694F85C1034
:105280003F208840B06000206065012084F8350030
:10529000002094E770B504460CB9012070BD94F865
:1052A0003500022800D1F9E72068006820F00100ED
:1052B0002168086000202168086021684860216832
:1052C00088602168C86021680861212021684861E0
:1052D0002046FFF7FFFE05460020E063206460647F
:1052E000A064E064206594F85C103F208840A860CA
:1052F0000020606584F8350000BF84F8340000BFEA
:1053000000BFCBE730B50468246824F48024056826
:105310002C60046863608468402C04D10468A26037
:105320000468E16003E00468A1600468E26030BDE5
:105330002DE9F04104460D4616461F464FF0000881
:1053400000BF94F83400012802D10220BDE8F081AA
:10535000012084F8340000BF94F83500012811D1F1
:10536000022084F83500002060653B46324629461D
:105370002046FFF7C7FF2068006840F00100216861
:10538000086006E000BF002084F8340000BF4FF042
:1053900002084046DAE72DE9F04704460D46164676
:1053A0001F464FF00008D4F8589000BF94F834001E
:1053B000012802D10220BDE8F087012084F83400E2
:1053C00000BF94F8350001282BD1022084F8350065
:1053D000002060653B46324629462046FFF792FF93
:1053E00094F85C103F208840C9F8080020680068E5
:1053F00040F01600216808602068406940F0800095
:1054000021684861206C28B12068006840F00800DD
:10541000216808602068006840F001002168086089
:1054200006E000BF002084F8340000BF4FF00208FF
:105430004046C0E770B50446A56DFBF7ABF80646DD
:1054400094F83500022808D08020606500BF002055
:1054500084F8340000BF012070BD2068006820F08F
:105460001600216808602068406920F080002168EB
:105470004861206C08B9A06C28B12068006820F051
:105480000800216808602068006820F00100216899
:1054900008600FE0FBF77EF8801B05280AD9202062
:1054A000606500BF002084F8340000BF032084F84A
:1054B0003500D1E72068006800F001000028E9D13C
:1054C00094F85C103F208840A86000BF002084F85A
:1054D000340000BF012084F8350003E0EA5D0008D5
:1054E0003F8010F00020B7E7014691F83500022810
:1054F00003D08020486501207047052081F83500E1
:105500000868006820F001000A6810600020F3E7D6
:105510002DE9F05F0446884617464FF0000AFBF776
:1055200039F8834694F83500022809D08020606558
:1055300000BF002084F8340000BF0120BDE8F09FC8
:105540002068006800F4807020B14FF480706065BE
:105550000120F3E7B8F1000F05D194F85C1020208A
:1055600000FA01F904E094F85C10102000FA01F947
:10557000A56D2E6842E0781C90B12FB1FBF70AF8B8
:10558000A0EB0B00B8420BD92020606500BF0020C3
:1055900084F8340000BF012084F835000320CDE7F3
:1055A0002E6894F85C1008208840304040B1606D4F
:1055B00040F00100606594F85C1008208840A86005
:1055C00094F85C1001208840304040B1606D40F09C
:1055D0000200606594F85C1001208840A86094F88F
:1055E0005C1004208840304040B1606D40F0040001
:1055F000606594F85C1004208840A86006EA090001
:1056000020B9606D00F001000028B4D0606DA0B139
:10561000606D00F0010080B12046FFF70BFF94F8A9
:105620005C1030208840A86000BF002084F834005F
:1056300000BF012084F8350080E7B8F1000F0DD1DC
:1056400094F85C1030208840A86000BF002084F8E7
:10565000340000BF012084F8350004E094F85C10A9
:1056600010208840A860504668E7F8B5044600203E
:105670000090C64800684FF41651B0FBF1F7A56DD5
:105680002E6894F85C1008208840304098B120685B
:10569000006800F0040070B12068006820F0040089
:1056A0002168086094F85C1008208840A860606D4C
:1056B00040F00100606594F85C10012088403040A3
:1056C00068B12068406900F0800040B194F85C1037
:1056D00001208840A860606D40F00200606594F889
:1056E0005C1004208840304068B12068006800F0F9
:1056F000020040B194F85C1004208840A860606DFE
:1057000040F00400606594F85C1010208840304040
:1057100078B32068006800F0080050B394F85C107B
:1057200010208840A8602068006800F4802080B1C4
:105730002068006800F4002028B9206CC8B1204619
:10574000216C884715E0A06C98B12046A16C884771
:105750000FE02068006800F4807028B920680068B5
:1057600020F0080021680860206C10B12046216CF0
:10577000884794F85C10202088403040002865D08D
:105780002068006800F0100000285FD094F85C10DA
:1057900020208840A86094F83500052828D120688A
:1057A000006820F01600216808602068406920F039
:1057B000800021684861206C08B9A06C28B120687D
:1057C000006820F008002168086094F85C103F2011
:1057D0008840A86000BF002084F8340000BF01208A
:1057E00084F83500206D10B12046216D8847F8BD42
:1057F0002068006800F4802080B12068006800F410
:10580000002028B9606C10B12046616C88471DE00B
:10581000E06BD8B12046E16B884717E0206800684C
:1058200000F4807068B92068006820F010002168DA
:10583000086000BF002084F8340000BF012084F815
:105840003500E06B10B12046E16B8847606D38B3DE
:10585000606D00F00100F0B1052084F8350020688B
:10586000006820F001002168086000BF0098401C1B
:105870000090B84200D905E02068006800F00100FF
:105880000028F3D100BF00BF002084F8340000BF1F
:10589000012084F83500E06C10B12046E16C8847A7
:1058A00000BFA4E710B50346002400BF93F83400FE
:1058B000012801D1022010BD012083F8340000BF6F
:1058C00093F83500012814D1062910D2DFE801F041
:1058D000030507090B0DDA630AE01A6408E05A644D
:1058E00006E09A6404E0DA6402E01A6500E000BFB2
:1058F00000E0012400BF002083F8340000BF2046F0
:10590000D9E70246002300BF92F83400012801D1F4
:1059100002207047012082F8340000BF92F8350061
:10592000012824D107291FD2DFE801F004070A0D5E
:10593000101316000020D06318E00020106415E05A
:105940000020506412E0002090640FE00020D0643A
:105950000CE00020106509E00020D0631064506462
:105960009064D064106501E0012300BF00E00123D2
:1059700000BF002082F8340000BF1846C9E7014686
:1059800091F8350070470146486D704700000020CF
:105990000A460021DBE0D30B002B75D0102971D211
:1059A000DFE801F0080F161D242B323940464C5217
:1059B000585E646A038823F4004303F500430380C0
:1059C00060E0038823F4804303F58043038059E0BB
:1059D000038823F4005303F50053038052E0038847
:1059E00023F4805303F5805303804BE0038823F4B2
:1059F000006303F50063038044E0038823F48063BD
:105A000003F5806303803DE0038823F4007303F50E
:105A10000073038036E0038823F4807303F58073FA
:105A200003802FE0038823F080038033038029E084
:105A3000038823F040034033038023E0038823F0EE
:105A40002003203303801DE0038823F0100310336C
:105A5000038017E0038823F008030833038011E074
:105A6000038823F004031B1D03800BE0038823F04D
:105A700002039B1C038005E0038823F001035B1CE9
:105A8000038000BF5DE0FFE7102959D2DFE801F095
:105A9000080D12171C21262B30353A3F44494E532E
:105AA000038823F4004303804AE0038823F48043FF
:105AB000038045E0038823F40053038040E003881B
:105AC00023F4805303803BE0038823F400630380C6
:105AD00036E0038823F48063038031E0038823F4F5
